:020000040000fa
:10000000f87f00201d2b00003b1600003b1600006f
:1000100000000000000000000000000000000000e0
:100020000000000000000000000000003b1600007f
:1000300000000000000000003b160000cf1d000083
:100040003b1600003b1600003b1600003b1600006c
:100050003b160000af0500003b1600003b160000f9
:100060003b1600003b1600003b1600003b1600004c
:100070003b1600003b1600003b1600003b1600003c
:100080003b1600003b1600003b1600003b1600002c
:100090003b1600003b1600003b1600003b1600001c
:1000a0003b1600003b1600003b1600003b1600000c
:1000b0003b1600003b1600003b1600003b160000fc
:1000c0003b1600003b1600003b1600003b160000ec
:1000d0003b1600003b1600003b1600003b160000dc
:1000e0003b1600003b1600003b1600003b160000cc
:1000f0003b1600003b1600003b1600003b160000bc
:100100003b1600003b1600003b1600003b160000ab
:100110003b1600003b1600003b1600003b1600009b
:100120003b1600003b1600003b1600003b1600008b
:100130003b1600003b1600003b1600003b1600007b
:100140003b1600003b1600003b1600003b1600006b
:0c0150003b1600003b1600003b160000b0
:020000040000fa
:10015c00f8b5c046f8bc08bc9e467047592e000046
:10016c00f8b5c046f8bc08bc9e467047352e00005a
:020000040000fa
:08017c00d21e0000010000008a
:020000040000fa
:1001840080b582b000af0200fb1d1a70fb1d1b7806
:100194007f2b12d8fb1d1b781a001f231a40110055
:1001a4004ef20013cef20003fa1d127852b2520935
:1001b4000120884001009200d150c046bd4602b0e3
:1001c40080bd90b583b000af02003960fb1d1a708a
:1001d400fb1d1b787f2b2fd84ef20013cef20003a9
:1001e400fa1d127852b29208c0329200d358fa1d06
:1001f4001278110003220a40d200ff2191400a0024
:10020400d2431a4010003b689b01ff221a40fb1d99
:100214001b78190003230b40db009a4011004ef2b7
:100224000013cef20003fa1d127852b29208014371
:10023400c0329200d15037e04ef60053cef20003a4
:10024400fa1d127811000f220a40083a9208063269
:1002540092009b1804331b68fa1d127811000322c4
:100264000a40d200ff2191400a00d2431a401000f4
:100274003b689b01ff221a40fb1d1b7819000323d6
:100284000b40db009a404ef60053cef20003f91dfa
:1002940009780c000f2121400839890802430631ee
:1002a40089005b1804331a60c046bd4603b090bd94
:1002b40080b582b000af00237b6040f20043c4f2fb
:1002c400000301229a7140f20043c4f200030222a7
:1002d4009a7000e0c04640f20043c4f200039b79e8
:1002e400dbb21a0001231340002bf3d040f2004389
:1002f400c4f2000301229a7145f20003c4f2001310
:1003040004225a6041f60003c4f2000340f20232b0
:100314001a6200e0c04641f60003c4f20003da6842
:100324008023db021340002bf4d041f20003c4f21b
:10033400000300221a8600e0c04641f20003c4f222
:1003440000031a6980235b041340002bf4d046f2a7
:100354002003c0f280031b687b607a68fc23db0502
:1003640013407b607b68db0b7b607b6840f2002280
:1003740013437b6041f20003c4f200037a685a63ba
:1003840000e0c04641f20003c4f200031a6980236e
:100394005b041340002bf4d041f20003c4f20003c9
:1003a4001b8e9ab241f20003c4f2000302210a43f5
:1003b40092b21a8600e0c04641f20003c4f2000380
:1003c4001a6980235b041340002bf4d041f60043e8
:1003d400c4f2000340f205129a6200e0c04641f6fe
:1003e4000043c4f200035b6810221340002bf5d1d4
:1003f40041f60043c4f2000340f20712c0f20202c5
:100404001a6200e0c04641f60043c4f200035b6890
:1004140004221340002bf5d1c046bd4602b080bd76
:1004240080b500af41f60043c4f20003902242219c
:10043400995000e0c04641f60043c4f20003902204
:100444009b5842221340002bf4d042f60023c4f2fe
:10045400000301221a7000e0c04642f60023c4f2f1
:1004640000035b6801221340002bf5d142f6002300
:10047400c4f200030f225a63c046bd4680bd80b556
:1004840000af42f60023c4f200031b78dab242f64e
:100494000023c4f2000302210a43d2b21a7000e01e
:1004a400c04642f60023c4f200035b6802221340f4
:1004b400002bf5d1c046bd4680bd80b500af40f2eb
:1004c4000023c4f2002301221a70c046c046c0466d
:1004d400c046bd4680bd80b500af43f20023c4f2e0
:1004e400000348f200025a6143f20023c4f20003fd
:1004f40048f200029a6043f20023c4f200034f2240
:1005040000219954c046bd4680bd80b586b000af79
:100514000200bb1d1a803b1d0a1c1a8010217b1887
:1005240000221a607b1800225a6008203b1800221f
:100534001a603b1800225a603b1d00229b5edb437d
:100544001bb2ba1d0020125e13401ab2bb1d1a80e2
:10055400bb1d1b880122134033b17b181b6848f272
:1005640000021a437b181a603b1d1b8801221340aa
:100574003bb108217b181b6848f200021a437b1820
:100584001a6043f20023c4f200031022ba1812685e
:100594009a6143f20023c4f200030822ba181268d5
:1005a4005a61c046bd4606b080bd80b500af40f27a
:1005b4005c13c2f200031b889bb2032293439ab2da
:1005c40040f25c13c2f200031a8042f60023c4f224
:1005d40000039b6b0422134073b940f25c13c2f214
:1005e40000031b889bb2012213439ab240f25c13ae
:1005f400c2f200031a800de040f25c13c2f2000361
:100604001b889bb2022213439ab240f25c13c2f2db
:1006140000031a8042f60023c4f200035a6942f62a
:100624000023c4f2000304210a435a61c046bd46b4
:1006340080bd80b500af43f20023c4f200038022e2
:1006440012045a6043f20023c4f200035722032128
:10065400995443f20023c4f200033b229b5cdab2b8
:1006640043f20023c4f200030f210a40d1b23b221b
:10067400995442f60023c4f200031a6b42f6002395
:10068400c4f2000304210a431a6342f60023c4f2ad
:100694000003da6942f60023c4f200030c490a405d
:1006a400da6142f60023c4f20003da6942f6002359
:1006b400c4f2000340f600310a43da6142f6002333
:1006c400c4f2000304221a61c046bd4680bdc04680
:1006d400fff0ffff80b582b000afba1d40f25c139b
:1006e400c2f200031b88138040f25c13c2f20003c1
:1006f40000221a80bb1d1b881800bd4602b080bdb5
:1007040080b500afbff35f8f62b603210520fff70a
:1007140058fd01235b4203211800fff752fd052019
:10072400fff72efd01235b421800fff729fdc046a9
:10073400bd4680bd80b500affff7bafdfff7bdfe33
:10074400fff76efefff775fffff7c5fe00f0aefa88
:1007540000f072fffff793fe01f08bfbfff7d0ff71
:10076400c046bd4680bd80b582b000af3b001800d6
:1007740001f0b7fb3b00180000f0dbfb3b00180066
:0c07840001f0baf8c046bd4602b080bdce
:020000040000fa
:1007900080b582b000af78607b6840f2f81200212b
:1007a000180002f0bdfc7b6800229a70fff7c4ffbe
:1007b0007b6898331a007b688c215a507b689022a2
:1007c000102199527b688c33180000f0b1fc7b68d3
:1007d000b4331a007b68a8215a507b68ac224021b0
:1007e00099527b68a833180001f0d6f8c046bd4680
:1007f00002b080bdb0b584b000af7860fff7b5ff40
:100800000e257c19fff768ff030023807b191b88e6
:100810000122134033b17b681b88012213439ab233
:100820007b681a80c046bd4604b0b0bd90b585b0a7
:1008300000af78607b68ae229b5a9bb2012b69d1d6
:1008400043f20023c4f2000348f200029a610e242e
:100850003b197a68b021525a1a807b6840f2f41230
:100860009b5a1a003b191b88d318ff2b40dc7b686e
:10087000f4337a6840f2f411525a98187b68b43312
:1008800019003b191b881a0002f040fc7b6840f2fb
:10089000f4129a5a3b191b88d31899b27b6840f21c
:1008a000f41299527b6840f2f4129b5a19007b684b
:1008b000f4225b189b1800221a707b68f4331a002c
:1008c00043f26013c0f200031900100002f0d2fae4
:1008d0000300b3b17b681b881a000223134083b95d
:1008e0007b681b88022213439ab27b681a8008e057
:1008f0007b6840f2f412002199527b68f4220021b7
:1009000099547b68ae22002199527b68a833180065
:1009100001f042f8c046bd4605b090bd80b582b03a
:1009200000af786039603b68002b07dd3b689ab206
:100930007b6840f2f4115b5a9a4210d97b6840f20e
:10094000f412002199527b68f422002199547b68ab
:100950001b88022293439ab27b681a8039e07b6835
:1009600040f2f4129a5a3b689bb2d31a99b27b6850
:1009700040f2f41299527b68f43318007b68f43328
:100980001a003b68d1187b6840f2f4129b5a1a0097
:1009900002f022fb7b6840f2f4129b5a19007b683c
:1009a000f4225b189b1800221a707b68f4331a003b
:1009b00043f26013c0f200031900100002f05afa6b
:1009c000030033b97b681b88022293439ab27b6889
:1009d0001a80bd4602b080bdf0b57c4ca54400af86
:1009e000f860b9607a60fb681b881a000223134024
:1009f000002b00d1e1e0fb68f4331a0043f26013ee
:100a0000c0f200031900100002f034fa030040f2b3
:100a10001c22b9180b60bb181b683bb9fb681b880c
:100a2000022293439ab2fb681a80c9e0fb68f43350
:100a300040f21c22ba181268d31a40f21822b918d0
:100a40000b60bb181b68023340f214217818036056
:100a5000bb181b68ff2b07dd7b181a68fb681100a9
:100a60001800fff75bffabe0fb68f433190040f2be
:100a700018257b191a6840f210143b19180002f06f
:100a800045fb534b40f22022ba18d2187b191b6841
:100a9000d31800221a7043f26413c0f2000338190d
:100aa0000722190002f0d7fa020040f21326bb1900
:100ab00051424a411a700123002b50d040f21422b7
:100ac000bb181b68ff2b3fd8fb68f43319001500d7
:100ad000bb181a681023fb18180002f017fb7a19cc
:100ae00012681023f918fb68180001f08dfe03004e
:100af000002b64d0bb191b78e3b1bb681b78cbb962
:100b0000fb681b881a00042313409bb97b685a1e9c
:100b10003919bb68180002f030fb7b68013bba68ea
:100b2000d31800221a70fb681b88042213439ab260
:100b3000fb681a8040f21423fb181a68fb68110046
:100b40001800fff7ebfe3be040f21423fb181a6895
:100b5000fb6811001800fff7e1fec04630e040f2ec
:100b60001323fb181b78f3b1bb681b78dbb9fb6858
:100b70001b881a0004231340abb97b685a1e40f24d
:100b80001013f918bb68180002f0f7fa7b68013bf4
:100b9000ba68d31800221a70fb681b88042213431a
:100ba0009ab2fb681a8040f21423fb181a68fb689b
:100bb00011001800fff7b2fe02e0c04600e0c04698
:100bc000bd4640f224239d44f0bdc046dcfdffff3e
:100bd000f0feffff90b5a3b000af786039607b688e
:100be0001b881a00042313402bb33b681b78d3b136
:100bf000082439193b688022180000f03efb0300ee
:100c000033b101233a683919786801f05bfd13e0cc
:100c10007b681b88042293439ab27b681a803b68e6
:100c200000221a7008e07b681b88042293439ab262
:100c30007b681a8000e0c046bd4623b090bd80b5f9
:100c400082b000af786043f20023c4f2000348f2a0
:100c500000025a617b681800fff7ccfd7b68180022
:100c6000fff7e4fd7b68180001f0eafc40f20003a6
:100c7000c2f20003786880221900fff7adfe40f24f
:100c80000003c2f200037a6819001000fff7a2ff08
:100c9000c046bd4602b080bd80b5feb000af3b008f
:100ca0001800fff775fd3b001800fff7c8fffae7d3
:020000040000fa
:100cb00080b500af41f60043c4f20003d0224221c8
:100cc000995000e0c04641f60043c4f20003d02230
:100cd0009b5840221340002bf4d040f2d003c2f2c4
:100ce00000032c220021180002f01afa40f2d0036f
:100cf000c2f2000341f20002c4f200221a6041f283
:100d00000003c4f2002301221a6000e0c04641f251
:100d10000003c4f20023db6901221340002bf5d14c
:100d200041f20003c4f2002304221a6041f20003de
:100d3000c4f20023196841f20003c4f20023002228
:100d4000c4f210020a431a6041f20002c4f2002207
:100d500041f20003c4f2002352685a6041f20003da
:100d6000c4f200232c4a9a8140f2d003c2f200035d
:100d700000225a6240f2d003c2f200034ef6c232a1
:100d8000c0f20b029a6241f20003c4f200235a68d7
:100d900041f20003c4f20023c32109040a435a604c
:100da00000e0c04641f20003c4f20023db690422e4
:100db0001340002bf5d143f20023c4f20003842238
:100dc00040f20031995043f20023c4f20003c822dc
:100dd0000321995443f20023c4f20003b4220321f7
:100de000995441f20003c4f200231a6841f200034f
:100df000c4f2002302210a431a6000e0c04641f217
:100e00000003c4f20023db6902221340002bf5d15a
:100e1000c046bd4680bdc0462bf6ffff80b582b000
:100e200000af78607b685b6963b17b685b690122b6
:100e3000da807b685b697a68128c92b21a817b686f
:100e400000225a617b6800229a617b680022da6185
:100e50007b6800221a84c046bd4602b080bd80b5c2
:100e600086b000af786039601623fb1800221a8024
:100e70001523fb1800221a707b681b681b7edbb2ef
:100e80001a0001231340002b51d07b681b8a9bb2b0
:100e900083b17b68db68591c7a68d1601b78dab251
:100ea0007b681b689a627b681b8a9bb2013b9ab283
:100eb0007b681a827b681b8a9bb2002b37d17b68c8
:100ec0000022da607b681b899bb22bb37b685b686e
:100ed0001a687b68da607b685b689b889ab27b687b
:100ee0001a827b685b6808331a007b685a607b68eb
:100ef0001b899bb2013b9ab27b681a817b68db68d5
:100f00001bb17b681b8a9bb28bb97b680022da60bd
:100f10007b6800221a820ae07b681b6801221a752e
:100f20007b6800225a607b680022da60c046c046b7
:100f3000bd4606b080bd80b582b000af78607a68eb
:100f400040f2d003c2f2000311001800fff787ff40
:100f5000c046bd4602b080bd80b582b000af7860ab
:100f60007b681b8a9bb25bb97b681b899bb23bb9d0
:100f70007b681b681b7edbb21a00012313400bb990
:100f8000012300e000231a1c01231340dbb21800e8
:100f9000bd4602b080bd80b588b000aff860b960d2
:100fa0007a601e23fb18082252421a80bb680bb1dc
:100fb0007b680bb901233ae07b68202b01d9002321
:100fc00035e0fb681800fff7c7ff03000bb10023f3
:100fd0002de00023bb6100237b611ce0bb69db00cb
:100fe000ba68d3189b881e22ba1812889a4201d276
:100ff00000231ce0bb69db00ba68d3189a881e2165
:101000007b18791809888a1a1a807b6901337b61f9
:10101000bb690133bb61ba697b689a42ded3fb6866
:10102000ba685a607b689ab2fb681a81012318007b
:10103000bd4608b080bd80b582b000af78607b68e7
:1010400000221a817b6800225a607b6800221a8283
:101050007b680022da60c046bd4602b080bd80b524
:1010600082b000af786039603a68796840f2d003a6
:10107000c2f200031800fff78eff03001800bd4600
:1010800002b080bd80b500af40f2d003c2f20003d1
:101090001800fff761ff03001800bd4680bd80b552
:1010a00000af40f2d003c2f200031800fff7c3ff05
:1010b000c046bd4680bd80b582b000af78607b6819
:1010c0005b695a1e9341dbb21800bd4602b080bd79
:1010d00080b582b000af786039603b685bb13b6837
:1010e0001b6843b13b689b882bb13b689b884ff6dc
:1010f000f872934201d9002316e07b685b690bb15b
:10110000002311e03b680022da803b6800221a814c
:101110007b6800221a847b681833180000f0e3fe15
:101120007b683a685a6101231800bd4602b080bd51
:1011300080b582b000af78607a6840f2d003c2f226
:10114000000311001800fff7c3ff03001800bd469d
:1011500002b080bd80b500af40f2d003c2f2000300
:101160001800fff7a8ff03001800bd4680bd80b53a
:1011700000af40f2d003c2f200031800fff74efeaa
:08118000c046bd4680bdc0461b
:020000040000fa
:10118800f0b58fb002aff860b9607a60fb6833b130
:10119800fb68180001f07eff0300052b0ad842f611
:1011a800fc13c0f200037968b8681a0001f08affde
:1011b80000235ae01c203b1800210a1c1a80022236
:1011c800995418257b1900210a1c1a800222995467
:1011d8001426bb1900210a1c1a8002229954f968a6
:1011e80004003b180222180001f0c3fffb68991c99
:1011f8007b190222180001f0bcfffb68191dbb19fe
:101208000222180001f0b5ff3b19180001f06efe2c
:101218000300bb627b19180001f068fe03007b62c3
:10122800bb19180001f062fe03003b62bb6a083379
:10123800fb62fb6a172b03ddfb6a183bfb6205e0c8
:10124800fb6a002b02dafb6a1833fb62fc6a42f67f
:101258000822c0f200027968b8683b6a01937b6a89
:101268000093230001f02eff01231800bd460db0a6
:10127800f0bdb0b5dab004aff860b9607a60fb6869
:101288001bb1bb680bb17b680bb90023cde1bb6810
:1012980000221a7042f61823c0f20003f8680722e9
:1012a800190001f0d4fe03000bb10023bde1f96879
:1012b800bc243b196b22180001f05bff3b196b2221
:1012c80000219954002340f25412ba18136011e017
:1012d800a023fa1840f254103b181b68990042f6f4
:1012e8002023c0f200038b500200bb181b68013397
:1012f800ba18136040f25413fb181b68062be7dd7d
:10130800bc23fb18073340f25012b9180b600023b6
:1013180040f24c1179180b60bb181b6840f2481258
:10132800ba18136037e040f25012bb181b681b78dc
:101338002c2b04d0bb181b681b782a2b24d140f215
:1013480047143b1940f250103a18126812781a7074
:101358003b181b6800221a7040f24c117b181b685e
:101368005a1c79180a60a022ba189b0040f2481546
:101378007919096899503b181b6801337a19136069
:101388003b191b782a2b13d040f25012bb181b684c
:101398000133ba18136040f25013fb181b681b780e
:1013a8003bb140f24c13fb181b68062bbbdd00e079
:1013b800c04640f248117b181b681b78c3b140f245
:1013c8004c103b181b68062b12dc7b181a6840f27d
:1013d8005013fb181b689a420ad23b181b685a1c08
:1013e80038180260a022ba189b0079180968995029
:1013f800a022bb181b6840f2401179180b60bb187b
:101408005b6840f23c1179180b60bb189b6840f28e
:10141800381179180b60bb18db6840f23411791861
:101428000b6040f24c13fb181b68042b02ddbb1841
:101438001b6903e042f62023c0f2000340f2301299
:10144800b9180b609423f918bb181b680c221800f4
:10145800fff796fe40f24013fb181b681a7840f21b
:101468002f13fb18511e8a411a7040f23c12bb1808
:101478001b681b785bb1bb181b681b784e2b04d00c
:10148800bb181b681b78532b01d1012200e00022f6
:1014980040f22e103b181a701a7801210a401a706f
:1014a80040f22f13fb181b78bbb13b181b78a3b174
:1014b80040f23c13fb181b681b78190040f24013dc
:1014c800fb181b6842f62422c0f200025420381888
:1014d8000091402101f0f6fd1ce040f22f13fb18ab
:1014e8001b786bb140f24013fb181b6842f63022a0
:1014f800c0f2000254217818402101f0e3fd09e010
:1015080042f63823c0f200035422b8181a004021ca
:1015180001f0d8fd40f23813fb181b681a7840f226
:101528002d13fb18511e8a411a7040f23412bb1851
:101538001b681b785bb1bb181b681b78452b04d054
:10154800bb181b681b78572b01d1012200e0002231
:1015580040f22c103b181a701a7801210a401a70b0
:1015680040f22d13fb181b78bbb13b181b78a3b1b5
:1015780040f23413fb181b681b78190040f238132b
:10158800fb181b6842f64822c0f2000214203818e3
:101598000091402101f096fd1ce040f22d13fb184c
:1015a8001b786bb140f23813fb181b6842f65822bf
:1015b800c0f2000214217818402101f083fd09e0ef
:1015c80042f66423c0f200031422b8181a0040211e
:1015d80001f078fd9423fc1842f67822c0f200024c
:1015e8007968b86842f68823c0f20003029354234e
:1015f800fb1801931423fb180093230001f062fdec
:10160800030040f22812b9180b60bb181b68002ba6
:1016180006ddbb181b687a689a4201d9012300e0ed
:1016280000231a1c01231340dbb21800bd4656b034
:02163800b0bd43
:020000040000fa
:02163a00fee7c9
:020000040000fa
:10163c0080b500af41f60043c4f20003c82242213a
:10164c00995000e0c04641f60043c4f20003c822a2
:10165c009b5840221340002bf4d040f2fc03c2f202
:10166c0000032c220021180001f054fd40f2fc0371
:10167c00c2f2000340f60002c4f200221a6040f6e7
:10168c000003c4f2002301221a6000e0c04640f6b9
:10169c000003c4f20023db6901221340002bf5d1b7
:1016ac0040f60003c4f2002304221a6040f6000343
:1016bc00c4f20023196840f60003c4f20023002290
:1016cc00c4f210020a431a6040f60003c4f200236d
:1016dc005a6840f60003c4f2002340210a435a60c2
:1016ec0040f60003c4f200232b4a9a8140f2fc031b
:1016fc00c2f2000300225a6240f2fc03c2f2000361
:10170c004ef6c232c0f20b029a6240f60003c4f2eb
:10171c0000235a6840f60003c4f20023c3210904d5
:10172c000a435a6000e0c04640f60003c4f20023ae
:10173c00db6904221340002bf5d143f20023c4f2e1
:10174c000003802292025a6043f20023c4f2000389
:10175c0051220321995443f20023c4f2000338228e
:10176c002021995440f60003c4f200231a6840f675
:10177c000003c4f2002302210a431a6000e0c046b1
:10178c0040f60003c4f20023db6902221340002b55
:10179c00f5d1c046bd4680bd2bf6ffff80b582b0ab
:1017ac0000af78607b685b6963b17b685b69012221
:1017bc00da807b685b697a68128c92b21a817b68da
:1017cc0000225a617b6800229a617b680022da61f0
:1017dc007b6800221a84c046bd4602b080bd90b51d
:1017ec0087b000af7860396016217b1800221a8010
:1017fc0015203b1800221a707b681b681b7edbb21d
:10180c001a000423134063b17b681b685b8b9ab28c
:10181c007b1836490a431a807b681b689a6a3b1806
:10182c001a707b685b69002b59d01623fb181b8838
:10183c0048f20302134048f20002934213d17b6832
:10184c005b691a687b681b8c9bb2591c88b27968df
:10185c000884d3181522ba1812781a707b683a6863
:10186c00183303ca03c37b681b685b8b9bb21ab229
:10187c001623fb1800215b5ef7210b401bb21343b0
:10188c001ab27b681b6892b25a837b681b8c9ab223
:10189c007b685b699b889bb29a4204d37b68180077
:1018ac00fff77cff1ce07b681b8c9bb2cbb17b6889
:1018bc0018331a0039680c243b19180000f051fb3e
:1018cc007b6824331a003b191100180000f04dfa04
:1018dc00031e06db7b681800fff760ff00e0c046c4
:1018ec00c046c046bd4607b090bdc0460080ffff55
:1018fc0080b582b000af78607a6840f2fc03c2f227
:10190c00000311001800fff76affc046bd4602b085
:10191c0080bd80b582b000af78607b685b695a1e71
:10192c009341dbb21800bd4602b080bd80b582b0d9
:10193c0000af786039603b685bb13b681b6843b1b2
:10194c003b689b882bb13b689b884ff6f87293429f
:10195c0001d9002316e07b685b690bb1002311e011
:10196c003b680022da803b6800221a817b680022e7
:10197c001a847b681833180000f0affa7b683a6859
:10198c005a6101231800bd4602b080bd80b582b0fb
:10199c0000af78607a6840f2fc03c2f200031100d9
:1019ac001800fff7c3ff03001800bd4602b080bd4e
:1019bc0080b500af40f2fc03c2f200031800fff741
:1019cc00a8ff03001800bd4680bd80b500af40f2f3
:1019dc00fc03c2f200031800fff7e0fec046bd4650
:0419ec0080bdc046b4
:020000040000fa
:1019f0000023f0b506001500b1b0079103930799d5
:101a00000b78002b00d10ae101235b420c9310ab51
:101a100000240e9380230b940d940f930b5d0bb158
:101a2000252b29d134b12200300001f000fb079ba7
:101a30001b190793079b1a78252a00d0e4e040f28f
:101a4000020c0121102701330493079307980378b0
:101a50002b2b1ad025d8202b1ad0232b1dd02a2b84
:101a600028d001f047fa0d90079b1a78303a092ade
:101a700031d801330793f7e70134cfe70b9b059388
:101a80000b4301300b930790e0e704230b9a0fe020
:101a90000b9b0593059a08230ae00b9b05933b4398
:101aa000efe72d2bead0302bd9d162460b9b059363
:101ab0001343e6e72b6801301a1d1b6807902a6064
:101ac0000d93002b07da0b9a5b42059201220599d0
:101ad0000d934a400b920b9bda0702d502229343e7
:101ae0000b93079b1a782e2a0ed10022581c0c92b9
:101af00007905a782a2a27d1023307932b681a1d98
:101b00001b682a6005930c9307a801f04bfa079b0a
:101b10000700187801f02afb692800d182e034dc44
:101b2000632800d1d7e01adc252800d1e4e0612841
:101b300058d0049b01220793002352420c920b932e
:101b40000d9300930232e1e001f0d4f90c90079b71
:101b50001a78303a092ad7d801330793f7e764286f
:101b600060d06728e5dc2a00390008a801f04afaad
:101b7000002800d1abe0079b0ba95a1c07921b78e9
:101b800008aa300001f00ffb3de0702800d17be097
:101b900016dc6e2800d193e06f28cad12b000022fa
:101ba000390008a800f078fe002800d18fe0079bdc
:101bb00008aa01330ba93000079301f0f2fa22e0e2
:101bc000752840d078284ed07328b2d1802f00d00d
:101bd0007de0079b2a6801330793131d2b60126871
:101be000002384e02a00390008a801f00bfa00283d
:101bf00000d16ce0079b0ba95a1c07921b7808aa1e
:101c0000300001f0d0fa2418039b1c19a34200dc19
:101c10007ee04f223f4b1a6001235b4203930398ff
:101c200031b0f0bd2b000122390008a800f034fecd
:101c300000284cd0079b08aa01330ba9300007935a
:101c400000f085fedfe72b000022390008a800f035
:101c500023fee0b3079b08aa01330ba930000793ca
:101c600001f09ffacfe72b000022390008a800f00e
:101c700013fe60b3079b5a1c07921b7808aa0ba996
:101c8000300001f090fabee72b000022f02108a8f6
:101c900000f002fed8b1079b099a01330793089b15
:101ca00013435bb91c4801f0f9f902000b9b1a4978
:101cb00000930d9b300000f070ffa4e77823dde770
:101cc000039b39001a1908a82b0000f0ddff079bc1
:101cd0000133079398e7802ff9d1079b01330793ce
:101ce0002b681a1d1b682a6008aa137001230ba910
:101cf000300001f053f886e7802fe8d10122079bde
:101d0000013307930b9b049300930d9b0349d1e789
:101d1000039474e658010020863100008c310000e5
:020000040000fa
:101d200080b582b000af786019e07b685b6843f2f1
:101d30000062ccf265429a187b685a607b681b6827
:101d4000013305d07b681b685a1c7b681a6006e06b
:101d50007a684cf6ff13c3f69a33536007e07b684a
:101d60005a684cf6ff13c3f69a339a42ddd8c04640
:101d7000bd4602b080bd80b582b000af78603960ea
:101d80007b681a683b681b689a4202d201235b4257
:101d900019e07b681a683b681b689a4201d90123e5
:101da00011e07b685a683b685b689a4202d2012363
:101db0005b4208e07b685a683b685b689a4201d9dd
:101dc000012300e000231800bd4602b080bd80b5ad
:101dd00082b000af3a0040f24413c2f2000303cbda
:101de00003c23b005b6844f64032c0f24c029a18d2
:101df0003b005a600de03b005b6843f20062ccf2ae
:101e000065429a183b005a603b001b685a1c3b0015
:101e10001a603b005a684cf6ff13c3f69a339a4295
:101e2000e9d840f24c13c2f200031b685a1c40f27e
:101e30004c13c2f200031a6040f24413c2f20003d2
:101e40003a0003ca03c340f24c13c2f200031b68fa
:101e50005a1c40f24c13c2f200031a604ef21003f7
:101e6000cef2000348f25812c0f215029a60c04642
:101e7000bd4602b080bd80b500af4ef21003cef279
:101e800000034ef660225a604ef21003cef20003b9
:101e900048f25812c0f215029a604ef21003cef2c8
:101ea000000307221a60c046bd4680bd80b584b0dd
:101eb00000af786040f24c13c2f200031b68fb6075
:101ec0007a6840f24413c2f2000303cb03c240f22b
:101ed0004c13c2f200031b68fa689a42ead1c0466a
:101ee000bd4604b080bd90b587b000af78604ef2bb
:101ef0001003cef200039b684ef66022d31a7b617a
:101f00000c243b191800fff7d1ff20003b1859683b
:101f10007a6913005b019b1a9b009b18db001a0077
:101f20000c23b2fbf3f3ca183b185a600ee00c21e5
:101f30007b185b6843f20062ccf265429a187b180a
:101f40005a607b181b685a1c7b181a600c217b187e
:101f50005a684cf6ff13c3f69a339a42e7d87b6867
:101f60007a1803ca03c3c046bd4607b090bd80b50a
:101f700088b000aff860b9607a6014217b18002245
:101f80001a607b1800225a600023fb61bb681a6844
:101f90007b681b689a4207d2bb681a687b681b681b
:101fa000d21a7b181a6007e0bb681a687b681b6846
:101fb000d21a1423fb181a60bb681a687b681b6866
:101fc0009a4233d27b681a68bb681b68d31afb61dc
:101fd00015e0fb6943f2006cccf2654c6344fb6195
:101fe0001422bb181b6823b9bb18012252421a6085
:101ff00005e014217b181b685a1e7b181a60fa69c9
:102000004cf6ff13c3f69a339a42e2d81422bb1857
:102010001b6823b9bb18012252421a600ee014213a
:102020007b181b685a1e7b181a6007e0bb685a6849
:102030007b685b68d21a1423fb185a60fb68142271
:0e204000ba1803ca03c3c046bd4608b080bd2f
:020000040000fa
:10204e00f0b585b000930393009b02900c00160030
:10205e00150001900f00002b00d0c9e08a424ad92a
:10206e00100000f060ff48b12023019f1b1adf40d3
:10207e00019b84408340854027430193aab22b0cd9
:10208e00b7fbf3f1160094461a004a434e43bf1aab
:10209e00019a3f04140c27430a00be4207d97f1948
:1020ae00013abd4203d8be4201d98a1e7f19be1b1a
:1020be00b6fbf3f14b436446f61a6b464c439b88d2
:1020ce0036041e430f00b44207d97619013fb542bc
:1020de0003d8b44201d98f1e76191204341b3a4329
:1020ee000a9b23b1c4401c6000230a994b60100068
:1020fe00009905b0f0bd02b9ffde100000f013ff2d
:10210e00b8bb0123a41b00932b0cb4fbf3f21f00ee
:10211e0011005743aeb27143e41b019f24043f0ce0
:10212e003c439446a1420ad9012764197f42bc441c
:10213e00a54204d8a14202d9023a94466419641aff
:10214e00b4fbf3f77b43e41a6b467e439b8824046f
:10215e001c433900a64207d964190139a54203d898
:10216e00a64201d9b91e641963461a04a41b0a4378
:10217e00b6e7202223000199121ad3408440d140a1
:10218e00019a8540824021438c46290cb3fbf1f421
:10219e0001920a00624326009b1a6246afb27e434a
:1021ae00120c1b04134322009e4207d95b19013afd
:1021be009d4203d89e4201d9a21e5b199b1bb3fb05
:1021ce00f1f671435b1a614677438cb21b041c43d4
:1021de003100a74207d964190139a54203d8a74295
:1021ee0001d9b11e641912040a43e41b00928be755
:1021fe00009b8b420ad90a9b002b00d1abe0029abe
:10220e0059601a60002300931a0070e7039800f0db
:10221e008afed8b9039ba34203d3029b02009e42bf
:10222e000ad8029b01229e1b039b0196e41a029b75
:10223e00b342ad416d42671b0a9b0093002b00d148
:10224e0055e7019982c30023009350e720231b1a00
:10225e0001933300019a039fd34087401f4323000d
:10226e000199d340029a8440ca4022439446029a6e
:10227e00390c8240b3fbf1f402920a0086406243ad
:10228e00009626009b1a6246bdb26e43120c1b04ca
:10229e00134322009e4207d9db19013a9f4203d80d
:1022ae009e4201d9a21edb199e1bb6fbf1f46346ba
:1022be0061436543761a360499b20e432300b54244
:1022ce0007d9f619013bb74203d8b54201d9a31e6f
:1022de00f61912041a436b461c88009b711b8c4620
:1022ee00190c230096b2150c6c4373434d43714386
:1022fe001e0c091971188c4202d9802464022d1902
:10230e000c0c9bb209046519c918ac4503d30bd14b
:10231e00029b8b4208d2009b013ace1ab1428941f0
:10232e004942cf193100ed1b0a9b0093002b00d1bf
:10233e00dde6029b019c591a63465d1b029b8b4294
:10234e009b415b42ed1a2b00c140a340c54019438f
:0a235e000a9b22c377e70a9b55e7ac
:020000040000fa
:102368001b5b306d0000c0461b5b324a0000c04654
:102378001b5b313b314800001b5b31313b37480068
:102388001b5b4b001b5b306d1b5b324a1b5b313b9d
:1023980031482b2d2d2d2d2d2d2d2d2d2d2d2d2d48
:1023a8002d2d2d2d2d2d2d2d2d2d2d2d2d2d2d2d55
:1023b8002d2d2d2d2d2d2d2d2d2d2d2d2d2d2d2d45
:1023c8002d2d2d2d2d2d2d2d2d2d2d2d2d2d2d2d35
:1023d8002d2d2d2d2d2d2d2b0d0a7c2045454520ed
:1023e8003139323a20456c656374726963616c20d7
:1023f800616e6420456c656374726f6e69637320e7
:10240800456e67696e656572696e67204c61626fbb
:102418007261746f72792056492020202020207c18
:102428000d0a7c20202020202020202020416361cc
:1024380064656d6963205965617220323032342dcc
:10244800323032352c2053656d65737465722032d5
:102458002020202020202020202020202020202074
:10246800202020202020207c0d0a7c2020202020d5
:102478002020202020202020202020202020202054
:102488002020202020202020202020202020202044
:102498002020202020202020202020202020202034
:1024a8002020202020202020202020202020207cc8
:1024b8000d0a7c2053656e736f723a204750532083
:1024c8004d6f64756c65202020202020202020205e
:1024d80020202020202020202020202020202020f4
:1024e80020202020202020202020202020202020e4
:1024f800202020202020207c0d0a7c202020202045
:1025080020202020202020202020202020202020c3
:1025180020202020202020202020202020202020b3
:1025280020202020202020202020202020202020a3
:102538002020202020202020202020202020207c37
:102548000d0a7c20417574686f723a20204465201a
:1025580056696c6c612c20457374726164612c201f
:10256800262052616d6f7320284545452031393248
:102578002032532920202020202020202020202005
:10258800202020202020207c0d0a7c2044617465b6
:102598003a202020203230323520202020202020d0
:1025a8002020202020202020202020202020202023
:1025b8002020202020202020202020202020202013
:1025c8002020202020202020202020202020207ca7
:1025d8000d0a2b2d2d2d2d2d2d2d2d2d2d2d2d2d68
:1025e8002d2d2d2d2d2d2d2d2d2d2d2d2d2d2d2d13
:1025f8002d2d2d2d2d2d2d2d2d2d2d2d2d2d2d2d03
:102608002d2d2d2d2d2d2d2d2d2d2d2d2d2d2d2df2
:102618002d2d2d2d2d2d2d2b0d0a0d0a44617461a4
:102628003a201b5b31313b374800c0462573257380
:0826380025730000257300006a
:020000040000fa
:1026400080b582b000af78607b681b881a000123d8
:1026500013406bb3fef716fd03005bbb7b681b8862
:102660001bb2002b28db7a6842f28c33c0f20003e5
:1026700053607b6840f2a5221a817b681b88104a50
:1026800013439ab27b681a807b68043301211800d7
:10269000fef7e5fc030083b17b681b8847f6fe72fa
:1026a00013409ab27b681a807b6801229a7004e01a
:1026b000c04602e0c04600e0c046bd4602b080bd54
:1026c0000080ffff80b588b002aff860b9607a6023
:1026d0001a00fb1c1a70fef7d5fc0300002b00d07b
:1026e00088e0fb681b881bb2002b00da84e0002323
:1026f0007b61fb1c1b7801225340dbb2a3b3fb6858
:102700009b78c3b1fb680c33180042f28031c0f2f1
:10271000000142f23462c0f2000242f28833c0f299
:1027200000030193bb6800930b00802100f0cefcf6
:1027300003007b6125e0fb680c33180042f278311e
:10274000c0f2000142f23462c0f2000242f2883369
:10275000c0f200030193bb6800930b00802100f0de
:10276000b5fc03007b610ce0fb680c331800bb6810
:1027700042f23c62c0f20002802100f0a7fc03009c
:102780007b617b69002b28dd7b697f2b25d8fb686b
:102790000c331a00fb685a607b699ab2fb681a8195
:1027a000fb681b88174a13439ab2fb681a80fb68c0
:1027b000043301211800fef752fc0300f3b1fb685b
:1027c0001b8847f6fb7213409ab2fb681a807b683d
:1027d000a3b17b6800221a7010e0fb681b880422fa
:1027e00093439ab2fb681a807b6843b17b680022ee
:1027f0001a7004e0c04602e0c04600e0c046bd4694
:1028000006b080bd0080ffff80b584b000aff860e7
:10281000b9607a60fef736fc03000bb1002334e0a8
:10282000fb681b881bb2002b01da00232de07b68bc
:102830007f2b29d8fb680c337a68b968180000f040
:1028400065fcfb680c331a00fb685a607b689ab21f
:10285000fb681a81fb681b880e4a13439ab2fb6817
:102860001a80fb68043301211800fef7f8fb03000f
:1028700043b1fb681b885b045b0c9ab2fb681a804f
:10288000012302e0002300e000231800bd4604b04d
:0828900080bdc0460080ffff7f
:020000040000fa
:1028980010b588293ad014dc81294ad003dc802974
:1028a80047d0002010bd822910d08429f9d1196899
:1028b8002ab30a1d1a6000228b5e0360db1743608f
:1028c80010e0a0292ed00fdc9029ead1196807243e
:1028d8006ab30919a1430a0008321a600b684c68e8
:1028e800036044600120dde7c02901d0f029d8d178
:1028f8001a68111d1960136803600023dfe70c1db7
:102908001c600b689bb203604260ebe7196822b158
:102918000a1d1a600023cb56cfe70c1d1c600b68fc
:10292800dbb2f0e71a68111d19601368c5e70731b3
:10293800d0e719681ab10a1d1a600b68bde70c1dab
:062948001c600b68dfe7d4
:020000040000fa
:10294e00f0b54b6889b005930b6807009c4607935a
:10295e00cb680c008e6810685168cd0f0493002d63
:10296e0041d00b000200002150429941059b002be3
:10297e0007db022263469343079315b9079b5a0759
:10298e0028d5731e07aa02920a22009301920b0009
:10299e000200200000f037f915b9079b5a071dd524
:1029ae0001382d2305b9023b049a135423695a1e8c
:1029be00049b121a1918079b38000093330000f07d
:1029ce00e5f87b68db0503d56368984200da1800ea
:1029de0009b0f0bd1b07db0ff31ad3e71b07e5d5d4
:0e29ee0001382023e0e7059b002bc2dac6e784
:020000040000fa
:1029fc002d2d3a2d2d3a2d2d0000c0462530326458
:102a0c003a253032643a253032640000244750476e
:102a1c004c4c2c000000c0464c61743a2025732ca1
:102a2c00202563004c61743a202573004c61743a84
:102a3c002057616974696e672e2e2e004c6f6e677d
:102a4c003a2025732c2025630000c0464c6f6e671e
:102a5c003a2025730000c0464c6f6e673a205761d0
:102a6c006974696e672e2e2e0000c0462573207c7b
:102a7c00202573207c202573257300000d0a00008f
:020000040000fa
:102a8c0060010020040000000100000000000000b4
:102a9c00280100201c0000000000000000000020a5
:102aac0080000000000000005c010020020000001b
:102abc0000000000440100200c0000000000000099
:102acc00d000002058000000000000005001002041
:102adc0004000000000000008000002050000000f6
:102aec00000000005401002008000000000000005d
:102afc006401002004000000010000000000000040
:102b0c000000000000000000666666666666666689
:020000040000fa
:102b1c0040f20003c0f2000323b140f20003c0f204
:102b2c000003984740f20003c0f2000323b140f2c7
:102b3c000003c0f20003984700f014fa40f20003bf
:102b4c00c0f200037f2293434ef60052cef20002f5
:102b5c00936042f6f143c0f20003984740f2000341
:102b6c00c0f2000323b140f20003c0f20003984707
:102b7c0040f20003c0f2000323b140f20003c0f2a4
:0e2b8c000003984700210020fef780f8fee7c6
:020000040000fa
:102b9a00f0b51d00012389b014000e9a06001a40f0
:102baa00039102920ab9a5420ad822000399300079
:102bba0000f038faa54203d82500280009b0f0bd74
:102bca002f1b01973a00102f00d91022202104a8a8
:102bda0000f0a1fa019b0f2b0ed80f2204a93a404c
:102bea00300000f01ffa029b002be6d12200039965
:102bfa00300000f017fae0e7102204a9300000f0d4
:0a2c0a0011fa019b103b0193e4e76f
:020000040000fa
:102c1400f7b5040019000a9fe368666800933b68ef
:102c2400100001932369013b1c00002e00da0126e9
:102c34000022009dea5435000123002c02dce3b19c
:102c44002000febd02000a434ab9002d07dc089aa1
:102c5400921b5219002af2dd019a9207efd5099bc3
:102c6400099adb1700f024f98c460099013c130003
:102c740030320a55013d6146dfe710233a689a4332
:042c84003a60dde7ee
:020000040000fa
:102c880010b584291fd007dc812915d0822922d0cc
:102c9800802911d0002010bd90291cd008dc88297b
:102ca800f8d119680c1d1c600b6803601a7010e0dd
:102cb800a02901d0c029edd119680c1d1c600b6832
:102cc80003601a6005e019680c1d1c600b6803603e
:102cd8001a800120dfe719680c1d1c600b6803606f
:082ce8001a60d2175a60f4e7ec
:020000040000fa
:102cf00000230e4a10b513600d4a0e4c13600e4aa5
:102d000013600e4a13600e4a13600e4a5362136139
:102d10000133936000f0c1f900f0bff90a4b9c4207
:102d200000d310bd08cc9847f8e7c04654010020f6
:102d30008c00002068010000880000208000002036
:0c2d400084000020900000206c010000c6
:020000040000fa
:102d4c0070b512b34b1c0978561e441c017071b13e
:102d5c0082181900801906e00d78061b631c25707b
:102d6c00013135b11c00a242f6d1200070bd230008
:102d7c0004009a190021002ef7d0197001339a42e1
:102d8c00fbd1002cf1d11400efe70400ede7c046b5
:020000040000fa
:102d9c00f0b50f00150087b0039007220e4904a868
:102dac001c0000f0adf9bb687e6802933f6805b962
:102dbc0004ad1cb9280000f06bf90400002e02dbf6
:102dcc00b44200d934000097029b220029000398da
:0c2ddc00fff7ddfe07b0f0bd96310000ef
:020000040000fa
:102de80030b51500012289b0524201920432ff32f7
:102df800029200b9684603900491002401b14c1e68
:102e08000594002906da4f220120074b40421a6038
:102e180009b030bd00220790027006901a00290000
:0c2e280001a800f043f9f3e75801002076
:020000040000fa
:102e340010b5054c227832b9044b13b1044800e0b4
:102e440000bf0123237010bd2801002000000000f2
:102e540000000000034b10b51bb10349034800e018
:102e640000bf10bd000000002c0100200000000085
:020000040000fa
:102e7400f0b50f78d7b10678beb104002000b74290
:102e840005d066788eb101342000b742f9d14b7871
:102e940063b166789e42f5d101230133ca5c2ab13d
:102ea400e55c9542f9d00134eee70020f0bdc04660
:020000040000fa
:102eb400002b11d1002a0fd1002900d1002802d003
:102ec4000021c943081c07b4024802a1401802901b
:102ed40003bdc046d902000003b4684601b5029898
:102ee400fff7b3f8019b9e4602b00cbc7047c04686
:020000040000fa
:102ef400030010b51a78202a0dd0110009390429cd
:102f040009d900212b2a02d02d2a01d10131013304
:102f140000200a2404e00133ece760430133801a03
:0e2f24001a78303a092af8d901b9404210bd96
:020000040000fa
:022f32007047e6
:020000040000fa
:102f34001c2101231b04984201d3000c10391b0ae5
:102f4400984201d3000a08391b09984201d30009a9
:102f5400043902a2105c40187047c0460403020200
:0c2f64000101010100000000000000005d
:020000040000fa
:102f700010b50a48016821b9436813b9fff7d9ffb2
:102f800010bd04008368064a9bb20c349b009b581a
:102f900042682000984780002018ebe78c2a000048
:042fa000f830000005
:020000040000fa
:102fa40070b5040000200a4b4200d55c15b9d21854
:102fb400507870bd216801300e78c0b2ae4204d1a1
:102fc400034b0131d218507821600a28ebd9f0e77d
:042fd400e2300000e7
:020000040000fa
:102fd80010b5531e884208d98c18a04205d21ab1e0
:102fe800ca5cc254013bfbd210bd0023002afbd0af
:0c2ff800cc5cc45401339a42fad1f5e7d6
:020000040000fa
:10300400002380290fdb812901dd83290bd10721ce
:10301400136807338b431900083111601a685b6821
:0a30240002604360012318007047aa
:020000040000fa
:10302e0070b505690400954200d915005db12a00fe
:10303e00606900f064f8226963695b19551b002210
:08304e00636125611a7070bd79
:020000040000fa
:1030560070b513006ab10024013a035d0e1933b14d
:103066000d5d25b1a24202d00134ab42f5d03078d5
:063076001b1a180070bdda
:020000040000fa
:10307c00002310b5934206d103201840421e904104
:0e308c009b08c01810bdc45ccc540133f2e7a1
:020000040000fa
:02309a0070477d
:020000040000fa
:10309c00037833b1030001331a78002afbd1181ad4
:0830ac0070470020fce7c0465c
:020000040000fa
:1030b40013b50400019201aafef798fc6368db06cd
:0830c40001d50120404216bdb8
:020000040000fa
:1030cc000cb407b504ab04cb0193fff787fe03b038
:0630dc0008bc02b0184719
:020000040000fa
:1030e20068076c094c836a9074a07ac00080688873
:0630f20000846c820081e5
:020000040000fa
:1030f800493100007d3000009f3100009f31000001
:043108009f310000f3
:020000040000fa
:10310c0010b52ab10023cc5cc45401339342fad1dc
:04311c0010bdc046dc
:020000040000fa
:1031200032b10300c9b28218197001339342fbd146
:043130007047c046de
:020000040000fa
:1031340010b5fff70afcfff72ffefff7abfbfff715
:04314400a1fd10bd1c
:020000040000fa
:103148008a18914201d10020704700230b70013189
:02315800f7e797
:020000040000fa
:10315c000100c0460d0a0000244750474c4c2c007f
:020000040000fa
:0e316c000300413b192b01d820231843704764
:020000040000fa
:0c317a0010b50400fff7e5fd200010bdbb
:020000040000fa
:08318600286e696c2900250088
:020000040000fa
:08318e0010b5fff7ecff10bdc6
:020000040000fa
:07319600286e756c6c290026
:020000040000fa
:04319e000020704756
:020000040000fa
:0431a2000020704752
:020000040000fa
:0431a600002070474e
:020000040000fa
:0431aa00002070474a
:020000040000fa
:0431b0007047c0465e
:00000001FF
