:020000040000fa
:10000000f07f00208d5300006f3b00006f3b00002d
:1000100000000000000000000000000000000000e0
:100020000000000000000000000000006f3b000026
:1000300000000000000000006f3b0000ef380000ef
:100040006f3b00006f3b00006f3b00006f3b000008
:100050006f3b00005f1c00006f3b00006f3b000027
:100060006f3b00006f3b00006f3b00006f3b0000e8
:100070006f3b00006f3b00006f3b00006f3b0000d8
:100080006f3b00006f3b00006f3b00006f3b0000c8
:100090006f3b00006f3b00006f3b00006f3b0000b8
:1000a0006f3b00006f3b00006f3b00006f3b0000a8
:1000b0006f3b00006f3b00006f3b00006f3b000098
:1000c0006f3b00006f3b00006f3b00006f3b000088
:1000d0006f3b00006f3b00006f3b00006f3b000078
:1000e0006f3b00006f3b00006f3b00006f3b000068
:1000f0006f3b00006f3b00006f3b00006f3b000058
:100100006f3b00006f3b00006f3b00006f3b000047
:100110006f3b00006f3b00006f3b00006f3b000037
:100120006f3b00006f3b00006f3b00006f3b000027
:100130006f3b00006f3b00006f3b00006f3b000017
:100140006f3b00006f3b00006f3b00006f3b000007
:0c0150006f3b00006f3b00006f3b0000a5
:020000040000fa
:10015c00f8b5c046f8bc08bc9e467047b55a0000be
:10016c00f8b5c046f8bc08bc9e467047915a0000d2
:020000040000fa
:10017c001c3d0000010000000843000001000000cd
:020000040000fa
:10018c00f0b58fb002aff860b9607a60fb6833b13c
:10019c00fb68180005f0a8fe0300052b0ad844f6ee
:1001ac002073c0f200037968b8681a0005f0c0fe2d
:1001bc0000235ae01c203b1800210a1c1a80022242
:1001cc00995418257b1900210a1c1a800222995473
:1001dc001426bb1900210a1c1a8002229954f968b2
:1001ec0004003b180222180005f040fffb68991c24
:1001fc007b190222180005f039fffb68191dbb1989
:10020c000222180005f032ff3b19180005f0b9fc6a
:10021c000300bb627b19180005f0b3fc03007b6282
:10022c00bb19180005f0adfc03003b62bb6a083338
:10023c00fb62fb6a172b03ddfb6a183bfb6205e0d4
:10024c00fb6a002b02dafb6a1833fb62fc6a44f689
:10025c002c72c0f200027968b8683b6a01937b6a21
:10026c000093230005f064fe01231800bd460db079
:10027c00f0bdb0b590b000af786039607b6813b159
:10028c007b681b780bb9002394e07b682e21180047
:10029c0005f082fe0300fb62fb6a23b1fa6a7b68fd
:1002ac00d31afb6305e07b68180005f01dfe030004
:1002bc00fb63fb6b012b01dc00237be0fb6b023b44
:1002cc00bb62002300243b637c63bb6a002b01da16
:1002dc0000236fe0bb6a002b25ddbb6a072b01dd19
:1002ec00002367e0ba6a79680c243b19180005f002
:1002fc00bdfe21007a18bb6ad31800221a707a6ae4
:10030c000d007b181100180005f0bcfe03000c005a
:10031c003b637c637b197a6a9a4202d07b6a1b78b6
:10032c000bb1002346e0bb6a7a68d3183b623b6a88
:10033c001b780bb900233de01423fa183b6a11001b
:10034c00180005f09ffe03000c00bb61fc617b698b
:10035c003a6a9a4202d07b691b780bb1002329e0e0
:10036c0000220023b869f96905f0ecfb03004bb9d6
:10037c0000220023c4f24e03b869f96905f01cfb96
:10038c0003000bb1002315e000220023c4f24e033e
:10039c00b869f96904f03cfe03000c001800210058
:1003ac003a6b7b6b04f0c6fa03000c003a681360de
:1003bc00546001231800bd4610b0b0bdf0b5f3b0c9
:1003cc0004aff860b9607a60bb680bb17b680bb99d
:1003dc000023e6e2bb6800221a7044f63c73c0f2bc
:1003ec00000340f29012b9180b6044f64873c0f247
:1003fc00000340f28c117818036044f64c73c0f281
:10040c00000340f288103c18236044f65873c0f285
:10041c00000340f284143d192b6044f65c73c0f267
:10042c00000340f280157e1933600123f3b1bb1831
:10043c001b6840f2b412ba1813607b181b6840f2a8
:10044c00b012ba1813603b181b6840f2ac12ba1801
:10045c0013603b191b6840f2a812ba1813607b1981
:10046c001b6840f2a412ba181360f9e0fb6853b190
:10047c0044f66873c0f20003f8680722190005f00f
:10048c00e2fc03000bb100238be2f9681023fb188c
:10049c006b22180005f0eafdd84b40f2b81cbc44a6
:1004ac0063446b2200219954002340f2a012ba1825
:1004bc00136014e0d24b40f2b812ba18d21840f2c2
:1004cc00a0103b181b68990044f67073c0f200032f
:1004dc008b500200bb181b680133ba18136040f232
:1004ec00a013fb181b68062be4dd1023fb18073345
:1004fc0040f29c12b9180b60002340f29811791845
:10050c000b60bb181b6840f29412ba1813603ae0e7
:10051c0040f29c12bb181b681b782c2b04d0bb1808
:10052c001b681b782a2b27d140f27f143b1940f211
:10053c009c103a18126812781a703b181b6800222b
:10054c001a7040f298117b181b685a1c79180a60b3
:10055c00ab4a40f2b81cbc4462449b0040f2941578
:10056c007919096899503b181b6801337a19136083
:10057c003b191b782a2b13d040f29c12bb181b681a
:10058c000133ba18136040f29c13fb181b681b78dc
:10059c003bb140f29813fb181b68062bb8dd00e04a
:1005ac00c04640f294117b181b681b78dbb140f2fb
:1005bc0098103b181b68062b15dc7b181a6840f248
:1005cc009c13fb181b689a420dd23b181b685a1cd3
:1005dc00381802608a4a40f2b81cbc4462449b0042
:1005ec00791809689950864b40f2b81cbc44634496
:1005fc001b6840f2b412ba181360814b40f2b81c5d
:10060c00bc4463445b6840f2b012ba1813607c4b74
:10061c0040f2b81cbc4463449b6840f2ac12ba185c
:10062c001360774b40f2b81cbc446344db6840f267
:10063c00a812ba18136040f29813fb181b68042b0d
:10064c0006dd6f4b40f2b81cbc4463441b6903e0ed
:10065c0044f67073c0f2000340f2a412ba1813608f
:10066c0040f26813f91840f2a413fb181b680c2213
:10067c001800fff785fd40f2b412bb181b682bb1b4
:10068c00bb181b681b780bb1012200e0002240f262
:10069c007e13fb181a701a7801210a401a7040f266
:1006ac00b012bb181b687bb1bb181b681b785bb105
:1006bc00bb181b681b784e2b04d0bb181b681b780f
:1006cc00532b01d1012200e0002240f27d143b1992
:1006dc001a701a7801210a401a7040f27e13fb1826
:1006ec001b78002b00d173e040f220157a1940f2f0
:1006fc00b413fb181b6811001800fff7bafd0300b8
:10070c00002b3bd03b191b78f3b144f67472c0f24a
:10071c000002781cff300423202105f009fc7b1912
:10072c005c681b6840f2b012ba181268127811009b
:10073c007a1cff3240f22810381802910093019471
:10074c00402105f0f5fb4ee044f68472c0f2000245
:10075c00781cff300423202105f0eafb40f2201323
:10076c00fb185c681b687a1cff3240f22811781861
:10077c0000930194402105f0dbfb34e040f27d1343
:10078c00fb181b78abb140f2b013fb181b681b783d
:10079c00190040f2b413fb181b6844f69072c0f2b7
:1007ac00000240f2281038180091402105f0c0fbdf
:1007bc0019e040f2b413fb181b6844f69c72c0f2ab
:1007cc00000240f228117818402105f0b1fb0ae034
:1007dc0044f6a473c0f2000340f22812b8181a00b1
:1007ec00402105f0a5fb40f2ac12bb181b684bb1c5
:1007fc00bb181b681b782bb1012204e058feffffcd
:10080c00c4feffff002240f27c13fb181a701a780a
:10081c0001210a401a7040f2a812bb181b687bb168
:10082c00bb181b681b785bb1bb181b681b78452b6e
:10083c0004d0bb181b681b78572b01d1012200e098
:10084c00002240f27b143b191a701a7801210a40dd
:10085c001a7040f27c13fb181b78002b6ad0b82559
:10086c007a1940f2ac13fb181b6811001800fff743
:10087c0000fd0300b3b33b191b78e3b144f6b4722b
:10088c00c0f200029826b8190423202105f050fb71
:10089c007b195c681b6840f2a812ba1812681278af
:1008ac001100ba19c020381802910093019440210c
:1008bc0005f03efb48e044f6c872c0f200029825f1
:1008cc0078190423202105f033fbb823fb185c684e
:1008dc001b687a19c021781800930194402105f007
:1008ec0027fb31e040f27b13fb181b78a3b140f2dd
:1008fc00a813fb181b681b78190040f2ac13fb18eb
:10090c001b6844f6d872c0f20002c020381800915f
:10091c00402105f00dfb17e040f2ac13fb181b68ef
:10092c0044f6e872c0f20002c0217818402105f0ac
:10093c00fffa09e044f6f473c0f20003c022b818c1
:10094c001a00402105f0f4fa40f26813fc1845f245
:10095c000802c0f200027968b86845f21803c0f2c8
:10096c0000030293c023fb18019340f22813fb18d9
:10097c000093230005f0dcfa030040f27412b9185e
:10098c000b60bb181b68002b06ddbb181b687a6854
:10099c009a4201d9012300e000231a1c01231340c1
:0c09ac00dbb21800bd466fb0f0bdc046c5
:020000040000fa
:1009b800f0b5bc4ca544109304000023080008922d
:1009c8000693302851d02e2877d1e36be26c9342fe
:1009d80058d25a1ce263187800220023029203932b
:1009e800302853d001230993002300221e0015004c
:1009f8001f001293059300930300303b092b62d923
:100a08002e2862d0099b0bb902950396069b002bf2
:100a180000d1aee320230343652b00d0c1e39999ad
:100a2800200004f031f970b980231b0699420ad1dd
:100a3800999b002b00d1aae3e36c0020002113b19d
:100a4800e36b013be363029b039c1b184c4102933d
:100a58000394129c002c00d088e0989805f02afa9c
:100a68000022002304f066f897e3e36be26c9342fc
:100a780004d25a1ce26318780123a1e7200004f08d
:100a880061fef9e7200004f05dfea5e7012252426d
:100a9800d3170298039980185941e36be26c0290ce
:100aa8000391934205d25a1ce263187801230693f6
:100ab80096e7200004f046fef8e700230022099399
:100ac8000292039390e72e280ed1099b002b4bd15d
:100ad8000295039601330993e36be26c93423fd28c
:100ae8005a1ce263187887e7009a7c2a20dc2900e0
:100af800320001250026491972410d0016003028e0
:100b080000d0059137b1009a12a9920052580a21d3
:100b18004a43d318009a12a992005350012301376f
:100b28000693092fd8d1009b002701330093d3e700
:100b38002a003300012500265219734115001e00b2
:100b48003028c9d040f2f01212ab9b58059301230c
:100b580005990b4312a98b5040f25c430593bbe700
:100b6800200004f0effd47e72e204fe7029a954258
:100b78001bd1039a964218d1002e16dc0eb9092d06
:100b880013d8089b1e2b03dc2300089ad34063b9b3
:100b9800989805f08ff9060020000f0005f098f9e5
:100ba80002000b00300039005ce7109b109adb0f45
:100bb8009b185b1003995b42da17914203dc11d151
:100bc800029a9a420ed92222374b98981a6005f059
:100bd80071f90122354b524203f0acff0122334b2d
:100be80052423fe7109b03996a3bda178a4203dcbb
:100bf80011d1029a93420ed922222b4b98981a604f
:100c080005f058f9802300225b0303f093ff80234b
:100c180000225b0326e70a21f7b9059b029c082bf3
:100c28006bdca34269dc112c67dc092c1ad1129801
:100c380005f04ef9040098980d0005f03bf9020004
:100c48000b00200029000de79a0012abd35812a818
:100c580006934b4301371350009b082ff4dd0133f3
:100c68000093dae7082c25dc129805f031f9060024
:100c780098980f0005f01ef902000b0030003900ab
:100c880003f058ff08231c1b094ba4000600e0587a
:100c98000f0005f00ff902000b003000390004f0d6
:100ca800b9f97ae2b4fdffff58010020ffffef7f9a
:100cb800d45d00002300093b9a009b1a089a9b18f0
:100cc8001e2b02dc129ada40bab9129805f000f924
:100cd800060098980f0005f0edf802000b003000b0
:100ce800390003f027ff0a3c8e4ba4000600e058a9
:100cf8000f0005f0dff853e70093009b12a9013bb2
:100d08009a005258002af7d0092394fbf3f2534370
:100d1800e31a0293dbb1002c01da093302930823aa
:100d2800029a12a89b1a7f4a9b009f5800231a0018
:100d38001900009da9420dd12bb1a90012a80b5092
:100d48002b0001330093029b0292e41a093400231a
:100d5800059378e00568b5fbf7f6f3189c46036041
:100d6800714b7e4393fbf7f3ae1b7343914205d15e
:100d780065461db97f224d1c2a40093c01310430cb
:100d8800d7e7059b1d3b0593009b5d1e7f231d40f8
:100d98000023069312aaab009b58da085b070a9354
:100da800069b0b920c9300230a9e0b9f0d930c9aa3
:100db8000d9bb6185f4117b95b4b9e421ed95a4a24
:100dc80000233000390004f09ffe574a06900023a4
:100dd8003000390004f098feab0012a95a50009b6d
:100de800591e7f230b40ab420bd1029b9d4273d00f
:100df80002b900957f23013d1d40cbe732000697dd
:100e0800eae7029a9542f5d1069ae2b17f21029a61
:100e18000934013a0a4002920298009a82420dd19e
:100e28005a1e0a40920012a810589900009012a861
:100e3800095800980093014312a81150029b069983
:100e48009b0012aa9950112c9bdd122c06d1029bf3
:100e580012a99b00354a5b58934292d90126029bfe
:100e6800009a934215d012aa9b009b582f4a93428e
:100e78000fd92f4a93420ed17f22029b0133134090
:100e8800009a9a4205d09b0012a92a4a5b589342bd
:100e980001d8122c50d032001b2c00dd0922059bf2
:100ea80000219b18059333009340013b06931e4b8a
:100eb80013419c46029b009883420fd10029ced053
:100ec800421c7f20029b02409a4220d0009b12a81d
:100ed8009b00c1500092c2e7029b95e79f0012a8b1
:100ee8003d582800d040401812a97850069929404a
:100ef80065466943029dab4205d120b95d1c7f3030
:100f080005400295093c7f2001330340d3e7009b4d
:100f180012aa013b03409b00d25812a90692324301
:100f2800ca509ce7d45d000000ca9a3b5e708900f5
:100f38005f708900ff092f0f029b009a934209d125
:100f48005a1c7f231a40130000920022013b9b0089
:100f580012a9ca50029b12aa9b00d05804f0b8ffed
:100f68000022002303f0e8fc029b009a5e1c7f230a
:100f78001e40964208d101321a4013000092002206
:100f8800013b9b0012ace2500022874b03f0d2fddc
:100f980004000d0012abb600f05804f099ff2200cf
:100fa8002b0003f0c9fc04000d00989804f082ffa0
:100fb80022002b000690079103f0bcfd059b109ab8
:100fc800353311939b1a089a0a900b910c9393420c
:100fd80000dbb1e0002b00dab1e01d00012309932a
:100fe800342d00ddafe069220020521b6f4904f068
:100ff80027fc0a9a0b9b05f00ff835220e900f91eb
:10100800521b0020694904f01bfc02000b000a98df
:101018000b9905f05bf802000b0006000f000a9818
:101028000b9904f0cfff02000b000e980f9903f004
:1010380083fc0a900b917f22029b00990233134094
:101048008b4232d012a99b005b5859498b4200d978
:1010580080e02bb9029c009b033414409c420dd0c5
:101068000022544b0698079903f064fd02000b0018
:101078003000390003f060fc06000f0035235b1bcd
:10108800012b12dd0022494b3000390005f01ef813
:101098000022002304f056fe38b130003900002247
:1010a800424b03f049fc06000f000a980b99109b6d
:1010b80032005c42089be41a3b0003f03dfc0e9aa8
:1010c8000f9b04f07fff119b621e5b000090019153
:1010d8005b089a422adc04f0f5ff0022364b04f044
:1010e8006dfc90b1099b2bb10c9b5d1b2b005d1e09
:1010f800ab410993314b00980199002203f01afd86
:10110800059b0090019101330593059b033434330b
:10111800a34208da099b4bb10022002330003900b2
:1011280004f010fe10b92222254b1a60059a009887
:10113800019904f0c3ff30e0089d00234fe7012325
:10114800002509934fe7002300241e000e930f94f7
:10115800270070e71b498b4202d000221a4b81e717
:10116800029c009b0334144000229c42f6d1134b8e
:1011780078e7002808dbe36c13b1e36b013be3631a
:10118800069b002b00d064e416220d4b1a60002148
:10119800200004f0b7fe0020002140f24c239d44bb
:1011a800f0bd0028e7da54e465cdcd410000f03ffa
:1011b800ff64cd1d0000d03f000040430000e03f29
:0c11c800580100200065cd1d0000e83f2c
:020000040000fa
:1011d400f0b595b004000492022900d929e1af4b7f
:1011e40001335b18db7f49005bb21293ab4bc91828
:1011f40024228b5e0a93e36be26c93422cd25a1c3a
:10120400e2631d78202df6d02b00093b042bf2d984
:1012140001222b2d25d0069202232d2d22d000272a
:1012240020239f4a2b43ba181278934229d0032fc4
:1012340003d040d9049b002b3ed0e26c12b1e36b87
:10124400013be363049b4bb3032f27d012b1e36b41
:10125400013be363013ff7e7200004f075fa050062
:10126400d0e70023d31a0693e26ce36b934203d2d4
:101274005a1ce2631d78d2e7200004f065fa0500e9
:10128400cde77e1c072f09d0e36be26c93420dd2ad
:101294005a1ce2631d783700082ec1d1069b00203a
:1012a400013300d1a2e27f4915b0f0bd200004f063
:1012b4004bfa0500efe7b7b1e36c002b00d1b1e0c6
:1012c400e36b013be363ade07e1c022f00d19ae2a5
:1012d400e36be26c93426bd25a1ce2631d783700d5
:1012e400032e00d18fe220236f4a2b43ba181278c1
:1012f4009342e9d0002fdfd1129b0b93302d00d005
:1013040069e2e36be26c934200d39ce05a1ce26313
:1013140018782023e26c0343782b00d057e2e36b68
:10132400934200d393e05a1ce263187800230f938e
:10133400302800d18fe02e2800d199e0002200232c
:10134400089209930e93002300221393574b002510
:101354001092119300230026029203930300303b62
:101364000c93092b00d8bbe020230343613b052bde
:1013740000d8b5e02e2800d1b4e00f9b002b00d09c
:101384001be1e36c002b00d132e2049ae36b002ae8
:1013940000d10be10e9a002a00d005e1023be36381
:1013a400069804f089fd0022002303f0c5fb7be7c7
:1013b400200004f0c9f9050091e75a1ce26318788b
:1013c4002838431e9841c0b2012540b1e36c13b9db
:1013d4000020374968e7e36b013be363f8e7e36b1d
:1013e400e26c934211d25a1ce26318780300303b3a
:1013f400092b08d9202302009a431300413b192bdf
:1014040001d95f2805d10135e9e7200004f09cf9f2
:10141400ece72928dcd0e26c12b1e36b013be36317
:10142400049b6bb91622234b1a600021200004f0a0
:101434006bfd0020002137e712b1e36b013be3634e
:10144400013df9d2c4e7200004f07ef961e72000f1
:1014540004f07af96ae7e36be26c934204d25a1c13
:10146400e2631878012362e7200004f06df9f9e7dc
:10147400e36be26c93420dd25a1ce26318780022ab
:10148400002301256d42ee1708920993302813d0ea
:10149400012357e7200004f057f9f0e7d45d00007a
:1014a4006a6000000000f07f736000000000f03ffd
:1014b4000000f87f58010020e36be26c93420bd2ea
:1014c4005a1ce2631878089a099b521973410892ce
:1014d400099301230f93d9e7200004f035f9f2e7cb
:1014e4002e2813d10e9b002b00d086e10c950d966f
:1014f40001330e93e36be26c934251d25a1ce263c4
:101504001878089509960c9d0d9e27e7392803dd68
:1015140020230343573b0c93002e2adc0eb9072dde
:101524000dd80c9b3f01df1901220023521973418e
:10153400089d099e0c920d9301230f93dae70d2d5c
:1015440017d8109811990022b34b03f0f5fa1090b4
:1015540011910c9804f0b0fc109a119b03f0ecfa72
:1015640002000b000298039903f0e8f9029003913a
:10157400dae70c9b002bd7d0139b002bd4d1109807
:1015840011990022a54b03f0d7fa0b000200029830
:10159400039903f0d3f90123029003911393c3e752
:1015a400200004f0d1f8ace7033bf8e6013be36329
:1015b4000021200004f0a8fcf2e60e9b0bb908956c
:1015c40009960122002302e0ad185e413f01002e7e
:1015d40003dc002ef8d1072df6d9202630437028dd
:1015e4000cd10499200003f051fb70b980231b0631
:1015f40099420ad1049b002b00d116e7e36c13b186
:10160400e36b013be36300200021002f00d1c7e618
:10161400089a099b08246442e51712196b411400c7
:10162400960f9b003343a20012184b41049205937a
:101634000a9b05995b42da17914203dc11d1049aa3
:101644009a420ed92222764b06981a6004f034fc92
:101654000122744b524203f06ffa0122714b524241
:10166400a3e60a9b05996a3bda178a4203dc33d165
:10167400049a934230d92222694b06981a6004f0e6
:101684001bfc802300225b0303f056fa8023002214
:101694005b038ae6002202980399604b04f090f9f8
:1016a4007f00002800d187e00298039900225e4b56
:1016b40004f08afc013702000b000298039903f03e
:1016c4003df901225242d3170290039104980599df
:1016d4008018594104900591002fdbda049805998c
:1016e400129b2022dc17002312184b410a98c117c1
:1016f400121a8b419c4203dc08d11299914205d9fc
:10170400049b0a9a9b1a20330b935ad40b9b342bb9
:101714005adc54220b9b0020d21a434904f092f85d
:10172400040006980d0004f0c7fb0b00020029001a
:10173400200004f073fc0b9b04000d001f2b0ddc38
:10174400029803990022002304f0fefa30b9fb0743
:1017540004d400220023029203930137069804f074
:10176400abfb029a039b0690079103f0e5f9029004
:101774000391380004f0aefb069a079b03f0dcf9f2
:1017840022002b0003f0daf8029a039b03f0d6f848
:1017940022002b0004f018fc0022002304000d009a
:1017a40004f0d2fa10b122221d4b1a60049a2000d0
:1017b400290004f085fc77e5029a039b10001900c8
:1017c4007de700230b93a4e700240025c6e712b1ac
:1017d400e36b013be363049b129a0193069b29008c
:1017e400009320000a9bfff7e5f85de50f495be5f0
:1017f400049b002b00d0d3e5dae60f9b2e20002bb0
:1018040000d0dee6bde5e36be26c934200d2d4e5a2
:10181400200003f099ffd3e50000b03f0000e03f53
:1018240058010020ffffef7f0000f03f0000f0ffb1
:020000040000fa
:1018340080b582b000af0200fb1d1a70fb1d1b783f
:101844007f2b12d8fb1d1b781a001f231a4011008e
:101854004ef20013cef20003fa1d127852b252096e
:101864000120884001009200d150c046bd4602b01c
:1018740080bd90b583b000af02003960fb1d1a70c3
:10188400fb1d1b787f2b2fd84ef20013cef20003e2
:10189400fa1d127852b29208c0329200d358fa1d3f
:1018a4001278110003220a40d200ff2191400a005d
:1018b400d2431a4010003b689b01ff221a40fb1dd3
:1018c4001b78190003230b40db009a4011004ef2f1
:1018d4000013cef20003fa1d127852b292080143ab
:1018e400c0329200d15037e04ef60053cef20003de
:1018f400fa1d127811000f220a40083a92080632a3
:1019040092009b1804331b68fa1d127811000322fd
:101914000a40d200ff2191400a00d2431a4010002d
:101924003b689b01ff221a40fb1d1b78190003230f
:101934000b40db009a404ef60053cef20003f91d33
:1019440009780c000f212140083989080243063127
:1019540089005b1804331a60c046bd4603b090bdcd
:1019640080b582b000af00237b6040f20043c4f234
:10197400000301229a7140f20043c4f200030222e0
:101984009a7000e0c04640f20043c4f200039b7921
:10199400dbb21a0001231340002bf3d040f20043c2
:1019a400c4f2000301229a7145f20003c4f2001349
:1019b40004225a6041f60003c4f2000340f20232ea
:1019c4001a6200e0c04641f60003c4f20003da687c
:1019d4008023db021340002bf4d041f20003c4f255
:1019e400000300221a8600e0c04641f20003c4f25c
:1019f40000031a6980235b041340002bf4d046f2e1
:101a04002003c0f280031b687b607a68fc23db053b
:101a140013407b607b68db0b7b607b6840f20022b9
:101a240013437b6041f20003c4f200037a685a63f3
:101a340000e0c04641f20003c4f200031a698023a7
:101a44005b041340002bf4d041f20003c4f2000302
:101a54001b8e9ab241f20003c4f2000302210a432e
:101a640092b21a8600e0c04641f20003c4f20003b9
:101a74001a6980235b041340002bf4d041f6004321
:101a8400c4f2000340f205129a6200e0c04641f637
:101a94000043c4f200035b6810221340002bf5d10d
:101aa40041f60043c4f2000340f20712c0f20202fe
:101ab4001a6200e0c04641f60043c4f200035b68ca
:101ac40004221340002bf5d1c046bd4602b080bdb0
:101ad40080b500af41f60043c4f2000390224221d6
:101ae400995000e0c04641f60043c4f2000390223e
:101af4009b5842221340002bf4d042f60023c4f238
:101b0400000301221a7000e0c04642f60023c4f22a
:101b140000035b6801221340002bf5d142f6002339
:101b2400c4f200030f225a63c046bd4680bd80b58f
:101b340000af42f60023c4f200031b78dab242f687
:101b44000023c4f2000302210a43d2b21a7000e057
:101b5400c04642f60023c4f200035b68022213402d
:101b6400002bf5d1c046bd4680bd80b500af40f224
:101b74000023c4f2002301221a70c046c046c046a6
:101b8400c046bd4680bd80b500af43f20023c4f219
:101b9400000348f200025a6143f20023c4f2000336
:101ba40048f200029a6043f20023c4f200034f2279
:101bb40000219954c046bd4680bd80b586b000afb3
:101bc4000200bb1d1a803b1d0a1c1a8010217b18c1
:101bd40000221a607b1800225a6008203b18002259
:101be4001a603b1800225a603b1d00229b5edb43b7
:101bf4001bb2ba1d0020125e13401ab2bb1d1a801c
:101c0400bb1d1b880122134033b17b181b6848f2ab
:101c140000021a437b181a603b1d1b8801221340e3
:101c24003bb108217b181b6848f200021a437b1859
:101c34001a6043f20023c4f200031022ba18126897
:101c44009a6143f20023c4f200030822ba1812680e
:101c54005a61c046bd4606b080bd80b500af40f2b3
:101c64006013c2f200031b889bb2032293439ab20f
:101c740040f26013c2f200031a8042f60023c4f259
:101c840000039b6b0422134073b940f26013c2f249
:101c940000031b889bb2012213439ab240f26013e3
:101ca400c2f200031a800de040f26013c2f2000396
:101cb4001b889bb2022213439ab240f26013c2f211
:101cc40000031a8042f60023c4f200035a6942f664
:101cd4000023c4f2000304210a435a61c046bd46ee
:101ce40080bd80b500af43f20023c4f2000380221c
:101cf40012045a6043f20023c4f200035722032162
:101d0400995443f20023c4f200033b229b5cdab2f1
:101d140043f20023c4f200030f210a40d1b23b2254
:101d2400995442f60023c4f200031a6b42f60023ce
:101d3400c4f2000304210a431a6342f60023c4f2e6
:101d44000003da6942f60023c4f200030c490a4096
:101d5400da6142f60023c4f20003da6942f6002392
:101d6400c4f2000340f600310a43da6142f600236c
:101d7400c4f2000304221a61c046bd4680bdc046b9
:101d8400fff0ffff80b582b000afba1d40f26013d0
:101d9400c2f200031b88138040f26013c2f20003f6
:101da40000221a80bb1d1b881800bd4602b080bdee
:101db40080b500afbff35f8f62b603210520fff744
:101dc40058fd01235b4203211800fff752fd052053
:101dd400fff72efd01235b421800fff729fdc046e3
:101de400bd4680bd80b500affff7bafdfff7bdfe6d
:101df400fff76efefff775fffff7c5fe00f0aefac2
:101e040001f0aaf9fff793fe01f0c3fdfff7d0ff3d
:101e1400c046bd4680bd80b582b000af3b0018000f
:101e240001f0effd3b00180000f0dbfb3b00180065
:0c1e340001f0f2fac046bd4602b080bdcd
:020000040000fa
:101e400080b582b000af78607b6840f2f812002164
:101e5000180004f09df87b6800229a70fff7c4ff19
:101e60007b6898331a007b688c215a507b689022db
:101e7000102199527b688c33180000f0b1fc7b680c
:101e8000b4331a007b68a8215a507b68ac224021e9
:101e900099527b68a833180001f00efbc046bd467e
:101ea00002b080bdb0b584b000af7860fff7b5ff79
:101eb0000e257c19fff768ff030023807b191b8820
:101ec0000122134033b17b681b88012213439ab26d
:101ed0007b681a80c046bd4604b0b0bd90b585b0e1
:101ee00000af78607b68ae229b5a9bb2012b69d110
:101ef00043f20023c4f2000348f200029a610e2468
:101f00003b197a68b021525a1a807b6840f2f41269
:101f10009b5a1a003b191b88d318ff2b40dc7b68a7
:101f2000f4337a6840f2f411525a98187b68b4334b
:101f300019003b191b881a0004f020f87b6840f256
:101f4000f4129a5a3b191b88d31899b27b6840f255
:101f5000f41299527b6840f2f4129b5a19007b6884
:101f6000f4225b189b1800221a707b68f4331a0065
:101f700045f6f473c0f200031900100003f0a8fd49
:101f80000300b3b17b681b881a000223134083b996
:101f90007b681b88022213439ab27b681a8008e090
:101fa0007b6840f2f412002199527b68f4220021f0
:101fb00099547b68ae22002199527b68a83318009f
:101fc00001f07afac046bd4605b090bd80b582b03a
:101fd00000af786039603b68002b07dd3b689ab240
:101fe0007b6840f2f4115b5a9a4210d97b6840f248
:101ff000f412002199527b68f422002199547b68e5
:102000001b88022293439ab27b681a8039e07b686e
:1020100040f2f4129a5a3b689bb2d31a99b27b6889
:1020200040f2f41299527b68f43318007b68f43361
:102030001a003b68d1187b6840f2f4129b5a1a00d0
:1020400003f0b2fe7b6840f2f4129b5a19007b68e1
:10205000f4225b189b1800221a707b68f4331a0074
:1020600045f6f473c0f200031900100003f030fdd0
:10207000030033b97b681b88022293439ab27b68c2
:102080001a80bd4602b080bdf0b57c4ca54400afbf
:10209000f860b9607a60fb681b881a00022313405d
:1020a000002b00d1e1e0fb68f4331a0045f6f4732d
:1020b000c0f200031900100003f00afd030040f213
:1020c0001c22b9180b60bb181b683bb9fb681b8846
:1020d000022293439ab2fb681a80c9e0fb68f4338a
:1020e00040f21c22ba181268d31a40f21822b9180a
:1020f0000b60bb181b68023340f214217818036090
:10210000bb181b68ff2b07dd7b181a68fb681100e2
:102110001800fff75bffabe0fb68f433190040f2f7
:1021200018257b191a6840f210143b19180003f0a7
:1021300025ff534b40f22022ba18d2187b191b6896
:10214000d31800221a7045f6f873c0f2000338194c
:102150000722190003f07dfe020040f21326bb198e
:1021600051424a411a700123002b50d040f21422f0
:10217000bb181b68ff2b3fd8fb68f4331900150010
:10218000bb181a681023fb18180003f0f7fe7a1921
:1021900012681023f918fb68180002f089fb03008d
:1021a000002b64d0bb191b78e3b1bb681b78cbb99b
:1021b000fb681b881a00042313409bb97b685a1ed6
:1021c0003919bb68180003f057ff7b68013bba68f8
:1021d000d31800221a70fb681b88042213439ab29a
:1021e000fb681a8040f21423fb181a68fb68110080
:1021f0001800fff7ebfe3be040f21423fb181a68cf
:10220000fb6811001800fff7e1fec04630e040f225
:102210001323fb181b78f3b1bb681b78dbb9fb6891
:102220001b881a0004231340abb97b685a1e40f286
:102230001013f918bb68180003f01eff7b68013b00
:10224000ba68d31800221a70fb681b880422134353
:102250009ab2fb681a8040f21423fb181a68fb68d4
:1022600011001800fff7b2fe02e0c04600e0c046d1
:10227000bd4640f224239d44f0bdc046dcfdffff77
:10228000f0feffff90b5a3b000af786039607b68c7
:102290001b881a00042313402bb33b681b78d3b16f
:1022a000082439193b6880221800fef78df80300d6
:1022b00033b101233a683919786802f057fa13e00c
:1022c0007b681b88042293439ab27b681a803b6820
:1022d00000221a7008e07b681b88042293439ab29c
:1022e0007b681a8000e0c046bd4623b090bd80b533
:1022f00082b000af786043f20023c4f2000348f2da
:1023000000025a617b681800fff7ccfd7b6818005b
:10231000fff7e4fd7b68180002f0e6f940f20003e5
:10232000c2f20003786880221900fff7adfe40f288
:102330000003c2f200037a6819001000fff7a2ff41
:10234000c046bd4602b080bd80b5feb000af3b00c8
:102350001800fff775fd3b001800fff7c8fffae70c
:020000040000fa
:1023600080b500af41f60043c4f20003d022422101
:10237000995000e0c04641f60043c4f20003d02269
:102380009b5840221340002bf4d040f2d003c2f2fd
:1023900000032c220021180003f0fafd40f2d003c4
:1023a000c2f2000341f20002c4f200221a6041f2bc
:1023b0000003c4f2002301221a6000e0c04641f28b
:1023c0000003c4f20023db6901221340002bf5d186
:1023d00041f20003c4f2002304221a6041f2000318
:1023e000c4f20023196841f20003c4f20023002262
:1023f000c4f210020a431a6041f20002c4f2002241
:1024000041f20003c4f2002352685a6041f2000313
:10241000c4f200232c4a9a8140f2d003c2f2000396
:1024200000225a6240f2d003c2f200034ef6c232da
:10243000c0f20b029a6241f20003c4f200235a6810
:1024400041f20003c4f20023c32109040a435a6085
:1024500000e0c04641f20003c4f20023db6904221d
:102460001340002bf5d143f20023c4f20003842271
:1024700040f20031995043f20023c4f20003c82215
:102480000321995443f20023c4f20003b422032130
:10249000995441f20003c4f200231a6841f2000388
:1024a000c4f2002302210a431a6000e0c04641f250
:1024b0000003c4f20023db6902221340002bf5d194
:1024c000c046bd4680bdc0462bf6ffff80b582b03a
:1024d00000af78607b685b6963b17b685b690122f0
:1024e000da807b685b697a68128c92b21a817b68a9
:1024f00000225a617b6800229a617b680022da61bf
:102500007b6800221a84c046bd4602b080bd80b5fb
:1025100086b000af786039601623fb1800221a805d
:102520001523fb1800221a707b681b681b7edbb228
:102530001a0001231340002b51d07b681b8a9bb2e9
:1025400083b17b68db68591c7a68d1601b78dab28a
:102550007b681b689a627b681b8a9bb2013b9ab2bc
:102560007b681a827b681b8a9bb2002b37d17b6801
:102570000022da607b681b899bb22bb37b685b68a7
:102580001a687b68da607b685b689b889ab27b68b4
:102590001a827b685b6808331a007b685a607b6824
:1025a0001b899bb2013b9ab27b681a817b68db680e
:1025b0001bb17b681b8a9bb28bb97b680022da60f7
:1025c0007b6800221a820ae07b681b6801221a7568
:1025d0007b6800225a607b680022da60c046c046f1
:1025e000bd4606b080bd80b582b000af78607a6825
:1025f00040f2d003c2f2000311001800fff787ff7a
:10260000c046bd4602b080bd80b582b000af7860e4
:102610007b681b8a9bb25bb97b681b899bb23bb909
:102620007b681b681b7edbb21a00012313400bb9c9
:10263000012300e000231a1c01231340dbb2180021
:10264000bd4602b080bd80b588b000aff860b9600b
:102650007a601e23fb18082252421a80bb680bb115
:102660007b680bb901233ae07b68202b01d900235a
:1026700035e0fb681800fff7c7ff03000bb100232c
:102680002de00023bb6100237b611ce0bb69db0004
:10269000ba68d3189b881e22ba1812889a4201d2af
:1026a00000231ce0bb69db00ba68d3189a881e219e
:1026b0007b18791809888a1a1a807b6901337b6133
:1026c000bb690133bb61ba697b689a42ded3fb68a0
:1026d000ba685a607b689ab2fb681a8101231800b5
:1026e000bd4608b080bd80b582b000af78607b6821
:1026f00000221a817b6800225a607b6800221a82bd
:102700007b680022da60c046bd4602b080bd80b55d
:1027100082b000af786039603a68796840f2d003df
:10272000c2f200031800fff78eff03001800bd4639
:1027300002b080bd80b500af40f2d003c2f200030a
:102740001800fff761ff03001800bd4680bd80b58b
:1027500000af40f2d003c2f200031800fff7c3ff3e
:10276000c046bd4680bd80b582b000af78607b6852
:102770005b695a1e9341dbb21800bd4602b080bdb2
:1027800080b582b000af786039603b685bb13b6870
:102790001b6843b13b689b882bb13b689b884ff615
:1027a000f872934201d9002316e07b685b690bb194
:1027b000002311e03b680022da803b6800221a8186
:1027c0007b6800221a847b681833180001f01bf91b
:1027d0007b683a685a6101231800bd4602b080bd8b
:1027e00080b582b000af78607a6840f2d003c2f260
:1027f000000311001800fff7c3ff03001800bd46d7
:1028000002b080bd80b500af40f2d003c2f2000339
:102810001800fff7a8ff03001800bd4680bd80b573
:1028200000af40f2d003c2f200031800fff74efee3
:08283000c046bd4680bdc04654
:020000040000fa
:10283800f0b59bb013930b6815900a934b680d91f4
:1028480002938b68ce680b930b69189313680693f1
:1028580053680698089300220023089903f074f936
:1028680060b90a9b5b0734d408200a9b034009938c
:102878000b9b0393099b73b1202306e08022120669
:102888009446089b634408932d2333700b9b013bac
:10289800039301230993089b06995b005b088e4a02
:1028a800d9b9934219d1139b099a413bb018192bf6
:1028b80011d88a4903f0e2fb300003f017fb0a9baa
:1028c8000200009331000b9b159802f09afd1bb093
:1028d800f0bd2b23d9e78249ece7934202d80bd10c
:1028e800069b4bb1139b099a413bb018192b01d891
:1028f8007c49dfe77c49dde7002200230698089938
:1029080003f020fa0024794d0027e8bb070002e015
:102918000137049c059d0022754b2000290002f018
:1029280009f9069a089b0490059103f04bf90028d1
:10293800eed0002304931fe06e4b9f4213da049bf2
:102948008bb900226c4b0698089902f0f3f86a4b91
:102958000690089120002900002202f0ebf80123dc
:1029680004000d000493200029000022604b02f0af
:1029780051fb04000d00013f22002b000698089926
:1029880003f0e2f80028d7d1139803f05cfbc3b238
:102998000c93029b002b00da93e10c9b0493672baa
:1029a80000d0afe0029b002b00d185e13b1d03db8b
:1029b800029b9f4200daa1e06523b5e000220023d4
:1029c8000e920f9303e106940795049b0897652bd5
:1029d80000d01ce10023089319e1029b5bb9089b16
:1029e800002b08da2e23149a0134b354039b013bbd
:1029f80003930123029323002a19302101e0f154a3
:102a080001339a42fbd1039a2b193030551b5c1cb9
:102a1800f0546b1e0393002523e00d9b14941b694f
:102a28001093053ba34200d8fde0069a079b0e9839
:102a3800129902f0effa02f04dfb1090119103f099
:102a48004df9092800dd092010230a9a1340034391
:102a5800002bc2d10c9b672bbfd1089b002bcada75
:102a6800013580200006844612990e9a61440b00b5
:102a78001098119900920193069a079b03f0d4fad3
:102a880080231b06cb180e90129306980799184bb3
:102a9800002202f0bffa089b06900791013b0893b9
:102aa800bce00a9bdb0600d4c1e02e233355013479
:102ab800bde00a2297fbf2f56a43ba1a3032013bad
:102ac800f254039a2f00013a0392bde0039b325c53
:102ad800f3181a540138e3e00000f07f106000009a
:102ae80014600000186000001c6000000000f03f47
:102af80000002440d4feffff00005043002f12daec
:102b080066230493029b01330293049b662b0cd12a
:102b1800002f02da002400276d4d0c9b672b02d092
:102b2800029bdb19029366230493069b0e940f9570
:102b38001293089b1093002314930e9a0f9b1298dc
:102b4800109902f067fa02f0c5fa1690179103f08f
:102b5800c5f819908020000684461099129a61449d
:102b68000b0016981799009201930e9a0f9b03f089
:102b78005bfa80231b06cb181290109300220e9844
:102b88000f99544b02f046fa149b0e900f910133a3
:102b98001493149a029b9342cfd100224e4b01f01a
:102ba800c9ff0e900f9102000b001298109902f0c5
:102bb800cbff002800d001e70e9a0f9b12981099be
:102bc80003f0c0f818b1199bdb0700d4f6e60e9a9b
:102bd8000f9b0698089901f0affe00220e90129103
:102be8003c4b2000290001f0a5ff0e9a129b06908d
:102bf800079102f005ff002800d1e4e6049b0137a5
:102c0800662b00d0e1e6029b08970133029300256a
:102c1800029a089b099c9b1a16930295089b169a80
:102c2800934200d0f9e6029b002b00d139e700213e
:102c3800049b30190170652b25d1189b013bf15479
:102c48008f4201da7f420131002f00d031e7189a14
:102c58009a1a0332002a00dd2be75d1e2d2201b9e6
:102c6800023a7255139a023b413a192a01d8452271
:102c78000492049af1180a70039a023a03929c4249
:102c880001da03f0fbf903230a9a1340022b00d060
:102c980012e6039b002b00dc0ee6300003f026f959
:102ca800099b834200dc11e7f018039a302103f0f6
:102cb8006bf900230b93ffe50123029376e60623c5
:102cc800fbe70c9b672bfad004930623029319e7c2
:0c2cd8000000f03f000024400000144009
:020000040000fa
:102ce400f0b599b014930b68576809934b68139027
:102cf4000d938b68ce680c930b693900119313689c
:102d0400002208930898002302f020ff60b9099b71
:102d14005b072fd40820099b0c9d0340059363b1e6
:102d24002023013d337006e080231b06ff182d236a
:102d340033700c9b5d1e01230593089a7b005b088e
:102d4400e2b9ab4a934219d1149b059a413bb0189e
:102d5400192b11d8a74903f093f9a74803f0c8f831
:102d6400099b0200009331000c9b139802f04bfb6b
:102d740019b0f0bd2b23dbe79f49ece79c4a934253
:102d840002d80ed1089b63b1149b059a413bb0183d
:102d9400192b04d8994903f073f99948dee7984947
:102da400f9e7059b05995a1c30237354149b413b46
:102db4000e930e995823192900d920330599b35439
:102dc4000231ab1e059107930022002308983900b5
:102dd40002f0baff002800d15fe10023894c06937a
:102de400029303940d9b1093002b01da1823109384
:102df400029b039c0a930b943c000023089d1293ae
:102e040028000a9a0b9b210002f006f902f064f9eb
:102e14000a9a0b9b1690179101f08efe02000b008c
:102e24002800210003f0d0f8774b05000c000a9825
:102e34000b99002201f080fe129b0a900b91013342
:102e44000f930d9b002b06da00220023280021009b
:102e540002f07aff30b9109b129a934200dd22e10e
:102e640001330f9300220a980b99684b01f064fe1a
:102e74000a900b9102000b002800210002f066fe6c
:102e8400002800d011e10a9a0b9b2800210002f0cf
:102e94005bff30b11698179902f022ffc30700d4e4
:102ea40003e10a9a0b9b0898390001f047fd16913b
:102eb40049000a90490818b94d4b994200d143e79b
:102ec4000025059c10950895119b2700053ba342fe
:102ed40031d9029a039b0a98169902f09df802f0e0
:102ee400fbf81490159102f0fbfe0300002800d0bb
:102ef400e0e0089a002a00d1dce00135029a039b45
:102f04001498159901f018fe02000b000a981699fe
:102f140003f05af800220a9016913b4b0298039949
:102f240001f00afe089b0290039101330893089a6a
:102f34000f9b9342c8d1109bd3b9002d00d1fde063
:102f44000d9b002b00dcf9e0099bdb0700d5f5e0c5
:102f54002e22302133191a702a19b21859700133ec
:102f64009a42fbd12c19ed43079b0134eb180793cc
:102f74000021119b069a3019013b0170f1548a42d9
:102f840002da524206920131069a002a00d0bfe0ca
:102f9400119a9a1a013200d1bae05d1e2d2201b9ac
:102fa400023a0e997255023b5022192900d9203257
:102fb400f1180a709c4201da03f062f80323099abb
:102fc4001340022b11d1079b9c1e002c0ddd3000f9
:102fd40002f08eff059b984200dba8e0f018220067
:102fe400302102f0d3ff00230c933000b6e6c04634
:102ff4000000f07f00600000046000000860000032
:103004000c6000000000f03f0000b03f00002040d2
:10301400069b0294039501330693029a039b1000c6
:10302400190001f08bfc04000d0002000b0008984d
:10303400390002f08bfd0028ead0029a039b08981d
:10304400390002f083fd002800d1cbe602980399f1
:1030540000223e4b01f070fd0022002302f074feba
:1030640078b1029803990022394b01f065fd0022e2
:1030740002900391364b0898390001f05dfd0f0072
:103084000890324b02980399002201f055fd069beb
:1030940002900391013b0693cfe700232d4c069049
:1030a40002930394b9e70f9ba9e6002300240a9333
:1030b4000b94f6e6109a4ab9089a3ab12e22f255c0
:1030c400079a0134013a0792012210922a191292a6
:1030d400302201e03255013412998c42fad11800a1
:1030e400079a5730571b092b01dc303318000e9b0d
:1030f400192b06d820230343613b192b01d802f076
:10310400abff129b00255c1cf0547b1e0793f5e675
:103114000a22069d069f95fbf2f56a43ba1a3032dd
:10312400013bf254079a0695013a07922ce7079b54
:10313400325c023bf3181a5401384be7099bdb0657
:1031440000d415e72e233355013411e70000e03f86
:08315400000050430000f03fb1
:020000040000fa
:10315c0080b500af41f60043c4f20003c8224221ff
:10316c00995000e0c04641f60043c4f20003c82267
:10317c009b5840221340002bf4d040f2fc03c2f2c7
:10318c0000032c220021180002f0fcfe40f2fc038c
:10319c00c2f2000340f60002c4f200221a6040f6ac
:1031ac000003c4f2002301221a6000e0c04640f67e
:1031bc000003c4f20023db6901221340002bf5d17c
:1031cc0040f60003c4f2002304221a6040f6000308
:1031dc00c4f20023196840f60003c4f20023002255
:1031ec00c4f210020a431a6040f60003c4f2002332
:1031fc005a6840f60003c4f2002340210a435a6087
:10320c0040f60003c4f200232b4a9a8140f2fc03df
:10321c00c2f2000300225a6240f2fc03c2f2000325
:10322c004ef6c232c0f20b029a6240f60003c4f2b0
:10323c0000235a6840f60003c4f20023c32109049a
:10324c000a435a6000e0c04640f60003c4f2002373
:10325c00db6904221340002bf5d143f20023c4f2a6
:10326c000003802292025a6043f20023c4f200034e
:10327c0051220321995443f20023c4f20003382253
:10328c002021995440f60003c4f200231a6840f63a
:10329c000003c4f2002302210a431a6000e0c04676
:1032ac0040f60003c4f20023db6902221340002b1a
:1032bc00f5d1c046bd4680bd2bf6ffff80b582b070
:1032cc0000af78607b685b6963b17b685b690122e6
:1032dc00da807b685b697a68128c92b21a817b689f
:1032ec0000225a617b6800229a617b680022da61b5
:1032fc007b6800221a84c046bd4602b080bd90b5e2
:10330c0087b000af7860396016217b1800221a80d4
:10331c0015203b1800221a707b681b681b7edbb2e1
:10332c001a000423134063b17b681b685b8b9ab251
:10333c007b1836490a431a807b681b689a6a3b18cb
:10334c001a707b685b69002b59d01623fb181b88fd
:10335c0048f20302134048f20002934213d17b68f7
:10336c005b691a687b681b8c9bb2591c88b27968a4
:10337c000884d3181522ba1812781a707b683a6828
:10338c00183303ca03c37b681b685b8b9bb21ab2ee
:10339c001623fb1800215b5ef7210b401bb2134375
:1033ac001ab27b681b6892b25a837b681b8c9ab2e8
:1033bc007b685b699b889bb29a4204d37b6818003c
:1033cc00fff77cff1ce07b681b8c9bb2cbb17b684e
:1033dc0018331a0039680c243b19180000f051fb03
:1033ec007b6824331a003b191100180000f04dfac9
:1033fc00031e06db7b681800fff760ff00e0c04689
:10340c00c046c046bd4607b090bdc0460080ffff19
:10341c0080b582b000af78607a6840f2fc03c2f2eb
:10342c00000311001800fff76affc046bd4602b04a
:10343c0080bd80b582b000af78607b685b695a1e36
:10344c009341dbb21800bd4602b080bd80b582b09e
:10345c0000af786039603b685bb13b681b6843b177
:10346c003b689b882bb13b689b884ff6f872934264
:10347c0001d9002316e07b685b690bb1002311e0d6
:10348c003b680022da803b6800221a817b680022ac
:10349c001a847b681833180000f0affa7b683a681e
:1034ac005a6101231800bd4602b080bd80b582b0c0
:1034bc0000af78607a6840f2fc03c2f2000311009e
:1034cc001800fff7c3ff03001800bd4602b080bd13
:1034dc0080b500af40f2fc03c2f200031800fff706
:1034ec00a8ff03001800bd4680bd80b500af40f2b8
:1034fc00fc03c2f200031800fff7e0fec046bd4615
:04350c0080bdc04678
:020000040000fa
:103510000023f0b506001500b1b007910393079999
:103520000b78002b00d10ae101235b420c9310ab16
:1035300000240e9380230b940d940f930b5d0bb11d
:10354000252b29d134b12200300002f06efc079bfc
:103550001b190793079b1a78252a00d0e4e040f254
:10356000020c012110270133049307930798037875
:103570002b2b1ad025d8202b1ad0232b1dd02a2b49
:1035800028d002f004fb0d90079b1a78303a092ae4
:1035900031d801330793f7e70134cfe70b9b05934d
:1035a0000b4301300b930790e0e704230b9a0fe0e5
:1035b0000b9b0593059a08230ae00b9b05933b435d
:1035c000efe72d2bead0302bd9d162460b9b059328
:1035d0001343e6e72b6801301a1d1b6807902a6029
:1035e0000d93002b07da0b9a5b4205920122059995
:1035f0000d934a400b920b9bda0702d502229343ac
:103600000b93079b1a782e2a0ed10022581c0c927d
:1036100007905a782a2a27d1023307932b681a1d5c
:103620001b682a6005930c9307a802f041fb079bd7
:103630000700187802f00bfd692800d182e034dc25
:10364000632800d1d7e01adc252800d1e4e0612806
:1036500058d0049b01220793002352420c920b93f3
:103660000d9300930232e1e002f091fa0c90079b77
:103670001a78303a092ad7d801330793f7e7642834
:1036800060d06728e5dc2a00390008a802f0b8fb02
:10369000002800d1abe0079b0ba95a1c07921b78ae
:1036a00008aa3000fff7c8f83de0702800d17be0a1
:1036b00016dc6e2800d193e06f28cad12b000022bf
:1036c000390008a801f068fd002800d18fe0079bb1
:1036d00008aa01330ba93000079301f00dff22e087
:1036e000752840d078284ed07328b2d1802f00d0d2
:1036f0007de0079b2a6801330793131d2b60126836
:10370000002384e02a00390008a802f079fb002891
:1037100000d16ce0079b0ba95a1c07921b7808aae2
:103720003000fff7dffa2418039b1c19a34200dcca
:103730007ee04f223f4b1a6001235b4203930398c4
:1037400031b0f0bd2b000122390008a801f024fda2
:1037500000284cd0079b08aa01330ba9300007931f
:1037600001f075fddfe72b000022390008a801f009
:1037700013fde0b3079b08aa01330ba930000793a0
:1037800002f00ff8cfe72b000022390008a801f063
:1037900003fd60b3079b5a1c07921b7808aa0ba96c
:1037a000300001f023fbbee72b000022f02108a827
:1037b00001f0f2fcd8b1079b099a01330793089beb
:1037c00013435bb91c4802f095fb02000b9b1a499e
:1037d00000930d9b300001f018fea4e77823dde78d
:1037e000039b39001a1908a82b0001f0bcfe079ba7
:1037f0000133079398e7802ff9d1079b0133079393
:103800002b681a1d1b682a6008aa137001230ba9d4
:10381000300002f08df886e7802fe8d10122079b67
:10382000013307930b9b049300930d9b0349d1e74e
:10383000039474e658010020ac600000b260000000
:020000040000fa
:1038400080b582b000af786019e07b685b6843f2b6
:103850000062ccf265429a187b685a607b681b68ec
:10386000013305d07b681b685a1c7b681a6006e030
:103870007a684cf6ff13c3f69a33536007e07b680f
:103880005a684cf6ff13c3f69a339a42ddd8c04605
:10389000bd4602b080bd80b582b000af78603960af
:1038a0007b681a683b681b689a4202d201235b421c
:1038b00019e07b681a683b681b689a4201d90123aa
:1038c00011e07b685a683b685b689a4202d2012328
:1038d0005b4208e07b685a683b685b689a4201d9a2
:1038e000012300e000231800bd4602b080bd80b572
:1038f00082b000af3a0040f24413c2f2000303cb9f
:1039000003c23b005b6844f64032c0f24c029a1896
:103910003b005a600de03b005b6843f20062ccf272
:1039200065429a183b005a603b001b685a1c3b00da
:103930001a603b005a684cf6ff13c3f69a339a425a
:10394000e9d840f24c13c2f200031b685a1c40f243
:103950004c13c2f200031a6040f24413c2f2000397
:103960003a0003ca03c340f24c13c2f200031b68bf
:103970005a1c40f24c13c2f200031a604ef21003bc
:10398000cef2000348f25812c0f215029a60c04607
:10399000bd4602b080bd80b500af4ef21003cef23e
:1039a00000034ef660225a604ef21003cef200037e
:1039b00048f25812c0f215029a604ef21003cef28d
:1039c000000307221a60c046bd4680bd80b584b0a2
:1039d00000af786040f24c13c2f200031b68fb603a
:1039e0007a6840f24413c2f2000303cb03c240f2f0
:1039f0004c13c2f200031b68fa689a42ead1c0462f
:103a0000bd4604b080bd90b587b000af78604ef27f
:103a10001003cef200039b684ef66022d31a7b613e
:103a20000c243b191800fff7d1ff20003b18596800
:103a30007a6913005b019b1a9b009b18db001a003c
:103a40000c23b2fbf3f3ca183b185a600ee00c21aa
:103a50007b185b6843f20062ccf265429a187b18cf
:103a60005a607b181b685a1c7b181a600c217b1843
:103a70005a684cf6ff13c3f69a339a42e7d87b682c
:103a80007a1803ca03c3c046bd4607b090bd80b5cf
:103a900088b000aff860b9607a6014217b1800220a
:103aa0001a607b1800225a600023fb61bb681a6809
:103ab0007b681b689a4207d2bb681a687b681b68e0
:103ac000d21a7b181a6007e0bb681a687b681b680b
:103ad000d21a1423fb181a60bb681a687b681b682b
:103ae0009a4233d27b681a68bb681b68d31afb61a1
:103af00015e0fb6943f2006cccf2654c6344fb615a
:103b00001422bb181b6823b9bb18012252421a6049
:103b100005e014217b181b685a1e7b181a60fa698d
:103b20004cf6ff13c3f69a339a42e2d81422bb181c
:103b30001b6823b9bb18012252421a600ee01421ff
:103b40007b181b685a1e7b181a6007e0bb685a680e
:103b50007b685b68d21a1423fb185a60fb68142236
:0e3b6000ba1803ca03c3c046bd4608b080bdf4
:020000040000fa
:023b6e00fee770
:020000040000fa
:103b7000f0b54e4657464546de469046e0b516003f
:103b80001f0002000b0012184b41bf4a85b081464e
:103b9000934200d952e134003d000023a4197d4135
:103ba0000022cff6e07312196b410024cff6c074e7
:103bb000a34200d942e100d13de10023002400935b
:103bc0000194cb0fdb077c0001934d006308c246d4
:103bd0000393cb466d089d4200d8bae02b0d9c465e
:103be000002b50d080200903090b400308430399a0
:103bf0004a46090d0300894600297ad080253c03f6
:103c0000240b6d0325434046290066464f46e14597
:103c100000db20e114001d00241a8d41002d06db7d
:103c200023002b43002b00d19de022002b00013efe
:103c300092185b41be42edd1b94614001d00241a12
:103c40008d41002d06db23002b43002b00d18ae0a1
:103c500022002b00802040030100184206d1484674
:103c600092185b4101381942fad0814649464c1ef0
:103c700000d5f2e00020210580185941009b019ced
:103c8000c018614171e02a00002d00d1a3e04ff679
:103c9000ff739d4200d9d6e040f2180910232a0490
:103ca0007a4ca24201d84b461202794ca24201d86a
:103cb00004331201774ca24201d802339200d2435e
:103cc000d20f9a180b235b429c4694442b3a9146a0
:103cd00000d5a6e005004c46a5402b00010060463b
:103ce00081400a0041428c460399090d894600290a
:103cf00084d10398010000283ed04ff6ff70814226
:103d000000d9a4e040f21808102009045f4da94230
:103d100001d8404609025e4da94201d8043009018c
:103d20005c4da94201d802308900c943c90f41182e
:103d30000b2040428146203889440d183fd434007e
:103d4000ac4021004d463400ac4020006c42a146fe
:103d50005be79d4202d1c14500d93fe7da4504d176
:103d6000039bab4201d10098019905b03cbc904641
:103d70009946a246ab46f0bd40464ff6ff7808256f
:103d8000c24502d8102130041035404ca04201d861
:103d9000290000023e4da84201d8043100013d4dea
:103da000a84201d802318000c043c00f09180b207f
:103db000404281462031203889440d18bfd54846fd
:103dc00020213500091acd40039ca84684402100db
:103dd00044462143b6e74ff6ff7c4b4640f20809c4
:103de000e34503d840f2180910220304274ca342ec
:103df00001d84a461b02264ca34201d804321b01bb
:103e0000244ca34201d802329b00db43db0fd218c3
:103e10000b235b429c46203294442b3a914600d4bb
:103e200058e76246202364469b1aa5400200da4008
:103e30002b00134352e7002a00d1bee600210020e8
:103e4000c7f6f87191e740f20809002328e740f22d
:103e5000080800205ae7e146efe648460121091a22
:103e600020204042081807d41c00c4402000cb404a
:103e7000020000210020ffe620201c00401a8440a0
:103e80001000c8402043f2e7ffffdfffffffff0005
:083e9000ffffff0fffffff3fe2
:020000040000fa
:103e9800f0b585b000930393009b02900c001600c8
:103ea800150001900f00002b00d0c9e08a424ad9c2
:103eb800100001f0a7fe48b12023019f1b1adf4024
:103ec800019b84408340854027430193aab22b0c71
:103ed800b7fbf3f1160094461a004a434e43bf1a43
:103ee800019a3f04140c27430a00be4207d97f19e0
:103ef800013abd4203d8be4201d98a1e7f19be1bb2
:103f0800b6fbf3f14b436446f61a6b464c439b8869
:103f180036041e430f00b44207d97619013fb54253
:103f280003d8b44201d98f1e76191204341b3a43c0
:103f38000a9b23b1c4401c6000230a994b601000ff
:103f4800009905b0f0bd02b9ffde100001f05afe7d
:103f5800b8bb0123a41b00932b0cb4fbf3f21f0086
:103f680011005743aeb27143e41b019f24043f0c78
:103f78003c439446a1420ad9012764197f42bc44b4
:103f8800a54204d8a14202d9023a94466419641a97
:103f9800b4fbf3f77b43e41a6b467e439b88240407
:103fa8001c433900a64207d964190139a54203d830
:103fb800a64201d9b91e641963461a04a41b0a4310
:103fc800b6e7202223000199121ad3408440d14039
:103fd800019a8540824021438c46290cb3fbf1f4b9
:103fe80001920a00624326009b1a6246afb27e43e2
:103ff800120c1b04134322009e4207d95b19013a95
:104008009d4203d89e4201d9a21e5b199b1bb3fb9c
:10401800f1f671435b1a614677438cb21b041c436b
:104028003100a74207d964190139a54203d8a7422c
:1040380001d9b11e641912040a43e41b00928be7ec
:10404800009b8b420ad90a9b002b00d1abe0029a55
:1040580059601a60002300931a0070e7039801f072
:10406800d1fdd8b9039ba34203d3029b02009e4211
:104078000ad8029b01229e1b039b0196e41a029b0d
:10408800b342ad416d42671b0a9b0093002b00d1e0
:1040980055e7019982c30023009350e720231b1a98
:1040a80001933300019a039fd34087401f432300a5
:1040b8000199d340029a8440ca4022439446029a06
:1040c800390c8240b3fbf1f402920a008640624345
:1040d800009626009b1a6246bdb26e43120c1b0462
:1040e800134322009e4207d9db19013a9f4203d8a5
:1040f8009e4201d9a21edb199e1bb6fbf1f4634652
:1041080061436543761a360499b20e432300b542db
:1041180007d9f619013bb74203d8b54201d9a31e06
:10412800f61912041a436b461c88009b711b8c46b7
:10413800190c230096b2150c6c4373434d4371431d
:104148001e0c091971188c4202d9802464022d1999
:104158000c0c9bb209046519c918ac4503d30bd1e3
:10416800029b8b4208d2009b013ace1ab142894188
:104178004942cf193100ed1b0a9b0093002b00d157
:10418800dde6029b019c591a63465d1b029b8b422c
:104198009b415b42ed1a2b00c140a340c540194327
:0a41a8000a9b22c377e70a9b55e744
:020000040000fa
:0241b200704754
:020000040000fa
:1041b4001b5b306d0000c0461b5b324a0000c046ea
:1041c4001b5b313b314800001b5b31313b374800fe
:1041d4001b5b4b001b5b306d1b5b324a1b5b313b33
:1041e40031482b2d2d2d2d2d2d2d2d2d2d2d2d2dde
:1041f4002d2d2d2d2d2d2d2d2d2d2d2d2d2d2d2deb
:104204002d2d2d2d2d2d2d2d2d2d2d2d2d2d2d2dda
:104214002d2d2d2d2d2d2d2d2d2d2d2d2d2d2d2dca
:104224002d2d2d2d2d2d2d2b0d0a7c204545452082
:104234003139323a20456c656374726963616c206c
:10424400616e6420456c656374726f6e696373207c
:10425400456e67696e656572696e67204c61626f51
:104264007261746f72792056492020202020207cae
:104274000d0a7c2020202020202020202041636162
:1042840064656d6963205965617220323032342d62
:10429400323032352c2053656d657374657220326b
:1042a400202020202020202020202020202020200a
:1042b400202020202020207c0d0a7c20202020206b
:1042c40020202020202020202020202020202020ea
:1042d40020202020202020202020202020202020da
:1042e40020202020202020202020202020202020ca
:1042f4002020202020202020202020202020207c5e
:104304000d0a7c2053656e736f723a204750532018
:104314004d6f64756c6520202020202020202020f3
:104324002020202020202020202020202020202089
:104334002020202020202020202020202020202079
:10434400202020202020207c0d0a7c2020202020da
:104354002020202020202020202020202020202059
:104364002020202020202020202020202020202049
:104374002020202020202020202020202020202039
:104384002020202020202020202020202020207ccd
:104394000d0a7c20417574686f723a2020446520b0
:1043a40056696c6c612c20457374726164612c20b5
:1043b400262052616d6f73202845454520313932de
:1043c400203253292020202020202020202020209b
:1043d400202020202020207c0d0a7c20446174654c
:1043e4003a20202020323032352020202020202066
:1043f40020202020202020202020202020202020b9
:1044040020202020202020202020202020202020a8
:104414002020202020202020202020202020207c3c
:104424000d0a2b2d2d2d2d2d2d2d2d2d2d2d2d2dfd
:104434002d2d2d2d2d2d2d2d2d2d2d2d2d2d2d2da8
:104444002d2d2d2d2d2d2d2d2d2d2d2d2d2d2d2d98
:104454002d2d2d2d2d2d2d2d2d2d2d2d2d2d2d2d88
:104464002d2d2d2d2d2d2d2b0d0a0d0a446174613a
:104474003a201b5b31313b374800c0462573257316
:08448400257300002573000000
:020000040000fa
:10448c00f0b5002485b00194a14207da04000d00b8
:10449c0000216042a941012464420194002b07daf7
:1044ac00019c1d00e4430194140000236242ab41c3
:1044bc0014001e0000900f00002b00d092e08a42e6
:1044cc004ad9100001f09cfb48b12023009a1b1a1a
:1044dc00da40009b87408340844017430093220cb2
:1044ec00b7fbf2f0150003004543a1b24b437f1b11
:1044fc00009d3f042d0c2f438446bb420ad9012555
:10450c003f196d42ac44bc4204d8bb4202d90238bc
:10451c0084463f19ff1ab7fbf2f06b464243414306
:10452c00bf1a1d883f043d430200a94206d96519f4
:10453c00013aac4202d8a94200d9821e63461b0440
:10454c0013431800019b310023b1030034000021f8
:10455c005842a14105b0f0bd02b9ffde100001f0d8
:10456c004ffb10b93f1b0126b9e720213a00009bf5
:10457c00091aca40cb400099844081400091210c1b
:10458c008740b2fbf1f00e00050046433b43a7b257
:10459c007d43921b12041e0c3243ac46060095421e
:1045ac0007d91219013e944203d8954201d9861eaf
:1045bc0012196046121ab2fbf1f041434743521aea
:1045cc0012049bb2134302009f4207d91b19013af4
:1045dc009c4203d89f4201d9821e1b193604df1b53
:1045ec0016437ce78b4272d8180001f009fb38b9ee
:1045fc00be426fd30300009aa24243410026a0e7bb
:10460c00202322001b1ada40864016433a000099f8
:10461c008440da408740d9400294340c3943b2fbd1
:10462c00f4f73b000391b1b24b439c4623007b4310
:10463c00d21a039b12041b0c1a433b00944507d956
:10464c009219013b964203d8944501d9bb1e92198d
:10465c006546521bb2fbf4f77c43121b6c46794344
:10466c00a489120422433c00914207d99219013cbf
:10467c00964203d8914201d9bc1e92196d462e89df
:10468c001b04370023439cb26743029d511a2d0c27
:10469c001a0c56436c436a433d0cac46a419644453
:1046ac00a64202d980256d025219260cb2189142ed
:1046bc000bd30026914200d043e7009d2404bfb2e7
:1046cc00e4198540a54200d33be7013b96e7002661
:0a46dc00330036e70600012333e740
:020000040000fa
:0246e60070471b
:020000040000fa
:1046e80080b582b000af78607b681b881a00012310
:1046f80013406bb3fef71af803005bbb7b681b889b
:104708001bb2002b28db7a6844f2d813c0f20003ee
:1047180053607b6840f2a5221a817b681b88104a87
:1047280013439ab27b681a807b680433012118000e
:10473800fdf7e9ff030083b17b681b8847f6fe722b
:1047480013409ab27b681a807b6801229a7004e051
:10475800c04602e0c04600e0c046bd4602b080bd8b
:104768000080ffff80b588b002aff860b9607a605a
:104778001a00fb1c1a70fdf7d9ff0300002b00d0ac
:1047880088e0fb681b881bb2002b00da84e000235a
:104798007b61fb1c1b7801225340dbb2a3b3fb688f
:1047a8009b78c3b1fb680c33180044f2cc11c0f2fb
:1047b800000144f28042c0f2000244f2d413c0f275
:1047c80000030193bb6800930b00802101f0b2fb4a
:1047d80003007b6125e0fb680c33180044f2c41128
:1047e800c0f2000144f28042c0f2000244f2d41345
:1047f800c0f200030193bb6800930b00802101f015
:1048080099fb03007b610ce0fb680c331800bb6864
:1048180044f28842c0f20002802101f08bfb0300c1
:104828007b617b69002b28dd7b697f2b25d8fb68a2
:104838000c331a00fb685a607b699ab2fb681a81cc
:10484800fb681b88174a13439ab2fb681a80fb68f7
:10485800043301211800fdf756ff0300f3b1fb688c
:104868001b8847f6fb7213409ab2fb681a807b6874
:10487800a3b17b6800221a7010e0fb681b88042231
:1048880093439ab2fb681a807b6843b17b68002225
:104898001a7004e0c04602e0c04600e0c046bd46cb
:1048a80006b080bd0080ffff80b584b000aff8601f
:1048b800b9607a60fdf73aff03000bb1002334e0da
:1048c800fb681b881bb2002b01da00232de07b68f4
:1048d8007f2b29d8fb680c337a68b968180001f077
:1048e80049fbfb680c331a00fb685a607b689ab274
:1048f800fb681a81fb681b880e4a13439ab2fb684f
:104908001a80fb68043301211800fdf7fcfe030040
:1049180043b1fb681b885b045b0c9ab2fb681a8086
:10492800012302e0002300e000231800bd4604b084
:0849380080bdc0460080ffffb6
:020000040000fa
:10494000f0b40125ed070f005f405ad48b4200d12f
:10495000824205d950404240504059404b40594056
:104960004e18760ddf187f0d3bd0741c640529d0de
:10497000f41b352c26d80e0ddb022b43db0ac902b3
:104980002943c9121700202c1ed2e741e2405740ac
:10499000e3415a40a340e3405a4000248018594163
:1049a0000ad3b21c520521d0c207012f6241170061
:1049b0004008cb0718434908013636054208af4185
:1049c00060417141f0bc7047203c06d01f00e741b8
:1049d000e3405f400024012a6741c0186141ebd3e6
:1049e000dfe7002eeed129400020ebe7013631054c
:1049f0000020e7e7e742e5d10020c143090dc904e3
:104a0000e0e76b400e00871a9e4104d26e40c01b47
:104a1000b141d21973414e18df18ac0ae642e9d20f
:104a2000760d7f0d31d0f41b362ccbd8b4460e0d4d
:104a3000db022b43db0ac9022943c90a012c32d805
:104a400004d1d4075208df073a435b08ef0a6442f7
:104a5000904199411ed0002239424dd12419404144
:104a600049410124394204d10134001849413942f5
:104a7000fad06246a24204d9361b013e3605891996
:104a8000a0e7f10ac90700209ce736429ad100202e
:104a9000002197e70200224394d0b842ded2010001
:104aa00020002024e3d1202c13dd203ce24117001c
:104ab000a240e2405740e3415a40a340e3405a40fd
:104ac000012fbf410137174300227c429841914199
:104ad0000ce01700e741e2405740e3415a40a34051
:104ae000e3405a407c429041994100220f0303d297
:104af000013e241940414941013e36054708ac4179
:084b000050417141f0bc704707
:020000040000fa
:104b080006d128b9f54203d800d30ab96d0d09d1e9
:104b18000020c143090dc904f0bdf9d11242f7d1f3
:104b2800640df5d00020c14349054908a6e00020de
:104b38006146f0bdf0b50127ff070e005e403e401c
:104b4800b446be0a4c18dd18f442d9d2f542e4d274
:104b5800640decd06d0dead06419c9023943460dd5
:104b6800c0023143db023b43db0a10b48e4685b2f8
:104b780097b26f43140c6c433e0ca419260c240402
:104b8800bfb227439cb26c43a419190c6943250c86
:104b9800a4b249190d04090c6419000c95b24543d7
:104ba8003e0c76193743bfb2360c150c4543ad1988
:104bb800a6b2240cad192e0437432e0c36199db21b
:104bc8004543ad19acb22e0c89191d0c45436d181f
:104bd8002e04290c3443704680b295b245433e0cee
:104be80076193743bfb2360c150c4543ad19a6b23a
:104bf800ad19240c2e0437432e0c36199db24543ab
:104c0800ad19acb22e0c89191d0c45436d182e0434
:104c18003443290c75462d0c90b268433e0c80191c
:104c28000604bfb23e43070ca0b23f18120c6a43f9
:104c3800d019020c80b2240ca4189ab26a43121933
:104c480014042043120c89181b0c6b43c91810bca0
:104c580001273d05294203d1b61940414941013c8c
:104c6800ff077d0d013d641b0bdb6d00ac4209dacb
:104c7800240500254208be4168416141664631432a
:064c8800f0bd54e74ee709
:020000040000fa
:024c8e0070476d
:020000040000fa
:104c9000f0b5c36bc26c85b004000e0093422dd2f8
:104ca0005a1cc2631d782b0002222b3b9343002227
:104cb0000192a3b92d3d6b426b41e26c0193e36b12
:104cc00093421fd25a1ce2631d782b00303b092b04
:104cd00005d926b1e36c13b1e36b013be363002319
:104ce00000932b00303b092b11d9e36c13b1e36b1c
:104cf000013be363802700263f062de000f026fd00
:104d00000500d0e7200000f021fd0500dde70a23c3
:104d1000009a5343e26c5d19e36b303d009593427a
:104d20001ed25a1ce2631d782b00303b092b03d89e
:104d30002b4b009a9a42eadd009ef7172b00303b7e
:104d4000092b31d9e36c002b45d1019b23b13300f2
:104d50003c0000275e42a7413000390005b0f0bd9d
:104d6000200000f0f3fc0500dee70a2200233000fb
:104d7000390000f06bfeeb1702950393029a039b38
:104d800030267642f71780185941e36be26c3618eb
:104d90004f41934203d25a1ce2631d78cee72000b4
:104da00000f0d4fc0500c9e70e4b9f4203dcdcd1c8
:104db0000d4b9e42d9d9303d092dc3d8e36be26c2f
:104dc000934203d25a1ce2631d78f4e7200000f0fe
:104dd000bdfc0500efe7e36b013be363b5e7c046cd
:0c4de000cbcccc0c14ae4701ad47e17aff
:020000040000fa
:104dec00f0b58fb00d934b680c9006938b680d004b
:104dfc000793cb6816000393069b0f68002b42dbce
:104e0c0002239f4310233b400a93079b04930a9b66
:104e1c003bb1726833681343079a13b11300023b1a
:104e2c00049308233b400b935a1e9341049ad31ac4
:104e3c0004933368039a0893736809932b695c1e77
:104e4c0000231355069b0593012c1fdc0a9b002b9a
:104e5c0050d10b9b1bb12023039a013c13552b699a
:104e6c0000975a1e039b121b19190c98079b00f0f4
:104e7c00c6fa0c9b5b68db0503d56b68984200dabd
:104e8c0018000fb0f0bd01230693bbe7089b099aed
:104e9c0013435bb9059b002b08dc069a049b9b1af9
:104eac00059a9b18002bd1ddbb07cfd50f23089a91
:104ebc00013c134018005730092b01dc303318002b
:104ecc000d9b413b192b06d820230343613b192b27
:104edc0001d801f0bdf8039b1855059b013b0593c8
:104eec00099b1a07089b1b091a43099b08921b096b
:104efc000993a9e70cce1343002baad0039b0d9a60
:104f0c001b19013b1a703023039a023c1355a0e77e
:020000040000fa
:104f1c000100c0462d2d3a2d2d3a2d2d0000c046f6
:104f2c00253032643a253032643a25303264000040
:104f3c00313430352e3132333400c0464e00c04649
:104f4c0031323130322e3536373800004500c0460c
:104f5c003031333034352e303000c0462447504782
:104f6c004c4c2c000000c0464c61743a2025252e78
:104f7c0025646620252563004c61743a2025252e76
:104f8c00256466004c61743a2025732c202563003f
:104f9c004c61743a202573004c61743a2057616956
:104fac0074696e672e2e2e004c6f6e673a20252585
:104fbc002e256466202525630000c0464c6f6e6765
:104fcc003a2025252e2564660000c0464c6f6e677e
:104fdc003a2025732c2025630000c0464c6f6e6769
:104fec003a2025730000c0464c6f6e673a2057611b
:104ffc006974696e672e2e2e0000c0462573207cc6
:10500c00202573207c202573257300000d0a0000d9
:020000040000fa
:10501c00f0b40125ed070c005c402c40a446ae0a10
:10502c004c18df18f4423dd2f74244d2640d4ad0fa
:10503c007f0d3bd0e41bc9022943cf0adb022b4373
:10504c00db0a0600b61a9f4104d2013cb6197f4117
:10505c00b6185f416812800d241836dd00188442a2
:10506c0024d8e80c0021b6197f41b61a9f4103d30e
:10507c0040414941f7d304e0b6185f41001849415b
:10508c00f1d32405b6197f41b61a9f4105d3374396
:10509c00c20717430022012f504161416246114360
:1050ac00f0bc70470ad148b9f74207d20020c1437f
:1050bc00490d0905f2e70ab9f74206d00020c143b1
:1050cc00090dc904ece77f0df8d000206146e7e735
:020000040000fa
:1050dc0040f2fd724b005b0df0b55c1e944242d861
:1050ec00284a9e182ad4332e27dc274a9b182ed404
:1050fc00120cc0f20f02da404ff6ff730700c0f239
:10510c000f039743f3403c000f00024019409f43ac
:10511c000a433d007ab1002f0dda20235b42f118cf
:10512c0029d480204003c840020080214903f1406b
:10513c000b00a4185d4120002900f0bd00200029bf
:10514c0001db0021f9e70021cbf6f071f5e7202215
:10515c004ff6ff73921bc0f20f0393400122524291
:10516c00f2401a43c8e7002be7d10022c90fcb0746
:10517c0010001900e1e720218020891b40038840a2
:0c518c000200d2e701fcffffe1fbffff87
:020000040000fa
:1051980010b588293ad014dc81294ad003dc80294b
:1051a80047d0002010bd822910d08429f9d1196870
:1051b8002ab30a1d1a6000228b5e0360db17436066
:1051c80010e0a0292ed00fdc9029ead11968072415
:1051d8006ab30919a1430a0008321a600b684c68bf
:1051e800036044600120dde7c02901d0f029d8d14f
:1051f8001a68111d1960136803600023dfe70c1d8e
:105208001c600b689bb203604260ebe7196822b12f
:105218000a1d1a600023cb56cfe70c1d1c600b68d3
:10522800dbb2f0e71a68111d19601368c5e707318a
:10523800d0e719681ab10a1d1a600b68bde70c1d82
:065248001c600b68dfe7ab
:020000040000fa
:10524e00f0b54b6889b005930b6807009c46079331
:10525e00cb680c008e6810685168cd0f0493002d3a
:10526e0041d00b000200002150429941059b002bba
:10527e0007db022263469343079315b9079b5a0730
:10528e0028d5731e07aa02920a22009301920b00e0
:10529e000200200000f0eff815b9079b5a071dd544
:1052ae0001382d2305b9023b049a135423695a1e63
:1052be00049b121a1918079b38000093330000f054
:1052ce009df87b68db0503d56368984200da180009
:1052de0009b0f0bd1b07db0ff31ad3e71b07e5d5ab
:0e52ee0001382023e0e7059b002bc2dac6e75b
:020000040000fa
:1052fc006401002004000000010000000000000018
:10530c00280100201c00000000000000000000200c
:10531c00800000000000000060010020020000007e
:10532c0000000000440100200c0000000000000000
:10533c00d0000020580000000000000050010020a8
:10534c00040000000000000080000020500000005d
:10535c0000000000540100200c00000000000000c0
:10536c0068010020040000000100000000000000a3
:10537c0000000000000000006666666666666666f1
:020000040000fa
:10538c0040f20003c0f2000323b140f20003c0f26c
:10539c000003984740f20003c0f2000323b140f22f
:1053ac000003c0f20003984700f048fc40f20003f1
:1053bc00c0f200037f2293434ef60052cef200025d
:1053cc00936045f2f163c0f20003984740f200038a
:1053dc00c0f2000323b140f20003c0f2000398476f
:1053ec0040f20003c0f2000323b140f20003c0f20c
:0e53fc000003984700210020fcf7a0fffee709
:020000040000fa
:10540a00f0b51d00012389b014000e9a06001a4057
:10541a00039102920ab9a5420ad8220003993000e0
:10542a0000f0fefca54203d82500280009b0f0bd13
:10543a002f1b01973a00102f00d91022202104a80f
:10544a0000f0a1fd019b0f2b0ed80f2204a93a40b0
:10545a00300000f0e5fc029b002be6d12200039904
:10546a00300000f0ddfce0e7102204a9300000f073
:0a547a00d7fc019b103b0193e4e70f
:020000040000fa
:10548400f7b5040019000a9fe368666800933b6857
:10549400100001932369013b1c00002e00da012651
:1054a4000022009dea5435000123002c02dce3b104
:1054b4002000febd02000a434ab9002d07dc089a09
:1054c400921b5219002af2dd019a9207efd5099b2b
:1054d400099adb1700f01afb8c460099013c130073
:1054e40030320a55013d6146dfe710233a689a439a
:0454f4003a60dde756
:020000040000fa
:1054f800f0b50b680c008f68cd68496887b0060066
:105508000593002902db02218b43059305a9536803
:10551800126802910821009701912000fff7aeff61
:10552800059bdb0602d5302301382b54059b1b074e
:1055380002d5202301382b54236929185a1e059bac
:10554800121a009330003b00fff75bff7368db051e
:0e55580003d56368984200da180007b0f0bd72
:020000040000fa
:1055660010b584291fd007dc812915d0822922d0c5
:10557600802911d0002010bd90291cd008dc882974
:10558600f8d119680c1d1c600b6803601a7010e0d6
:10559600a02901d0c029edd119680c1d1c600b682b
:1055a60003601a6005e019680c1d1c600b68036037
:1055b6001a800120dfe719680c1d1c600b68036068
:0855c6001a60d2175a60f4e7e5
:020000040000fa
:1055d000c9b270b50322040051b900f08bfc241845
:1055e000200070bd2378002bfad08b42f8d0013414
:1055f0001442f7d10b48484322680b4e150093190b
:1056000045409343aa19aa431343084a134206d0bc
:105610002378002be4d08b42e2d00134f8e7043445
:10562000eae7c04601010101fffefefe80808080a6
:020000040000fa
:10563000f0b59bb004000d00160000214c2207a815
:105640001f0000f0a5fc01235b4202930433ff33eb
:10565000039304b901ac04940595002305b16b1eb6
:105660000693002d06da4f220120084b40421a60b3
:105670001bb0f0bd0db1002323703a00310002a829
:105680000894079400f04efcf2e7c0465801002051
:020000040000fa
:105690004b1801225205da4217d25b0d0722d201c4
:1056a0009b1a0fd9ff2b12d2db05ca0fd207134367
:1056b0000903020d1143490ac200524100d90131c8
:1056c000c8187047c80fc007704705d120b9c80f68
:1056d0000002ff30c00570470123db070a00c90044
:1056e000400f084398431a4010435b0a1843704721
:020000040000fa
:1056f00000230e4a10b513600d4a0e4c13600e4a7b
:1057000013600e4a13600e4a13600e4a536213610f
:1057100001339360fef7e7fffef7e5ff0a4b9c427b
:1057200000d310bd08cc9847f8e7c04654010020cc
:105730008c0000206801000088000020800000200c
:0c57400084000020900000206c0100009c
:020000040000fa
:10574c00036d70b504003bb1426d934204dc002341
:10575c000120e364404270bd200000f087fb00286c
:10576c00f5db236de16b226c9bb1656d5b1b551af0
:10577c00ab420edc013bcb18e36422b1636d521ad1
:10578c0001329a18626501390b788342e3d00870b4
:06579c00e1e71300f0e755
:020000040000fa
:1057a200f0b50b680c008f68cd68496887b00600b9
:1057b2000593002902db02218b43059305a9536857
:1057c200126802910a21009701912000fff759fe09
:1057d200236929185a1e059b121a009330003b00b8
:1057e200fff712fe7368db0503d56368984200da9f
:0657f200180007b0f0bd35
:020000040000fa
:1057f80070b512b34b1c0978561e441c017071b168
:1058080082181900801906e00d78061b631c2570a4
:10581800013135b11c00a242f6d1200070bd230031
:1058280004009a190021002ef7d0197001339a420a
:10583800fbd1002cf1d11400efe70400ede7c046de
:020000040000fa
:1058480070b540f2ff740b0d2340a34212d08bb108
:10585800d31840f2fe7293420ddc002b14dd4ff694
:10586800ff72c8f20f0211401b05194304000d0016
:105878002000290070bd0023c90fc907c7f6f073bf
:105888000b4300241d00f3e7c90f0024cd07efe701
:020000040000fa
:1058980070b59ab004000d0016000021602202a81d
:1058a80000f072fb012300215b4202a804941194ca
:1058b800129300f027fb0122310002a8fbf786fcb7
:1058c80055b1119b0093129b0193019a009b9b1a5f
:0c58d800179a9b18e4182c601ab070bde1
:020000040000fa
:1058e4000200002310b54832d3560400591e0b435e
:1058f400137043698269934203d90022c36a110079
:10590400984700236068a362a3616361830705d598
:105914001023184360600120404210bda368e26870
:0c59240000079b182364e363c017f6e73c
:020000040000fa
:10593000f0b50f00150087b0039007220e4904a8a8
:105940001c0000f01bfbbb687e6802933f6805b932
:1059500004ad1cb9280000f0cdfa0400002e02dbd3
:10596000b44200d934000097029b2200290003981a
:0c597000fff74bfd07b0f0bddc6000004d
:020000040000fa
