:020000040000fa
:10000000f87f0020d9400000db2d0000db2d000030
:1000100000000000000000000000000000000000e0
:10002000000000000000000000000000db2d0000c8
:100030000000000000000000db2d00005b2b000032
:10004000db2d0000db2d0000db2d0000db2d000090
:10005000db2d000033140000db2d0000db2d000041
:10006000db2d0000db2d0000db2d0000db2d000070
:10007000db2d0000db2d0000db2d0000db2d000060
:10008000db2d0000db2d0000db2d0000db2d000050
:10009000db2d0000db2d0000db2d0000db2d000040
:1000a000db2d0000db2d0000db2d0000db2d000030
:1000b000db2d0000db2d0000db2d0000db2d000020
:1000c000db2d0000db2d0000db2d0000db2d000010
:1000d000db2d0000db2d0000db2d0000db2d000000
:1000e000db2d0000db2d0000db2d0000db2d0000f0
:1000f000db2d0000db2d0000db2d0000db2d0000e0
:10010000db2d0000db2d0000db2d0000db2d0000cf
:10011000db2d0000db2d0000db2d0000db2d0000bf
:10012000db2d0000db2d0000db2d0000db2d0000af
:10013000db2d0000db2d0000db2d0000db2d00009f
:10014000db2d0000db2d0000db2d0000db2d00008f
:0c015000db2d0000db2d0000db2d00008b
:020000040000fa
:10015c00f8b5c046f8bc08bc9e467047e5470000a1
:10016c00f8b5c046f8bc08bc9e467047c1470000b5
:020000040000fa
:10017c00882f0000010000009c35000001000000e9
:020000040000fa
:10018c00f0b5bc4ca5441093040000230800089261
:10019c000693302851d02e2877d1e36be26c934232
:1001ac0058d25a1ce263187800220023029203935f
:1001bc00302853d001230993002300221e00150080
:1001cc001f001293059300930300303b092b62d957
:1001dc002e2862d0099b0bb902950396069b002b27
:1001ec0000d1aee320230343652b00d0c1e39999e2
:1001fc00200003f063fd70b980231b0699420ad1dd
:10020c00999b002b00d1aae3e36c0020002113b1d1
:10021c00e36b013be363029b039c1b184c41029371
:10022c000394129c002c00d088e0989804f0a0fc59
:10023c000022002303f099fc97e3e36be26c9342fa
:10024c0004d25a1ce26318780123a1e7200004f0c1
:10025c00eff8f9e7200004f0ebf8a5e70122524291
:10026c00d3170298039980185941e36be26c029002
:10027c000391934205d25a1ce2631878012306932a
:10028c0096e7200004f0d4f8f8e700230022099345
:10029c000292039390e72e280ed1099b002b4bd191
:1002ac000295039601330993e36be26c93423fd2c0
:1002bc005a1ce263187887e7009a7c2a20dc290014
:1002cc00320001250026491972410d001600302814
:1002dc0000d0059137b1009a12a9920052580a2108
:1002ec004a43d318009a12a99200535001230137a4
:1002fc000693092fd8d1009b002701330093d3e735
:10030c002a003300012500265219734115001e00e6
:10031c003028c9d040f2f01212ab9b580593012340
:10032c0005990b4312a98b5040f25c430593bbe734
:10033c00200004f07df847e72e204fe7029a954203
:10034c001bd1039a964218d1002e16dc0eb9092d3a
:10035c0013d8089b1e2b03dc2300089ad34063b9e7
:10036c00989804f005fc060020000f0004f00efc29
:10037c0002000b00300039005ce7109b109adb0f79
:10038c009b185b1003995b42da17914203dc11d185
:10039c00029a9a420ed92222374b98981a6004f08e
:1003ac00e7fb0122354b524203f0dffb0122334bba
:1003bc0052423fe7109b03996a3bda178a4203dcef
:1003cc0011d1029a93420ed922222b4b98981a6083
:1003dc0004f0cefb802300225b0303f0c6fb8023da
:1003ec0000225b0326e70a21f7b9059b029c082b28
:1003fc006bdca34269dc112c67dc092c1ad1129836
:10040c0004f0c4fb040098980d0004f0b1fb02004a
:10041c000b00200029000de79a0012abd35812a84c
:10042c0006934b4301371350009b082ff4dd013327
:10043c000093dae7082c25dc129804f0a7fb0600e1
:10044c0098980f0004f094fb02000b003000390068
:10045c0003f08bfb08231c1b094ba4000600e0587f
:10046c000f0004f085fb02000b003000390003f094
:10047c00d3fc7ae2b4fdffffdc000020ffffef7f2e
:10048c00944a00002300093b9a009b1a089a9b1877
:10049c001e2b02dc129ada40bab9129804f076fbe1
:1004ac00060098980f0004f063fb02000b0030006c
:1004bc00390003f05afb0a3c8e4ba4000600e058ae
:1004cc000f0004f055fb53e70093009b12a9013b6e
:1004dc009a005258002af7d0092394fbf3f25343a5
:1004ec00e31a0293dbb1002c01da093302930823df
:1004fc00029a12a89b1a7f4a9b009f5800231a004d
:10050c001900009da9420dd12bb1a90012a80b50c6
:10051c002b0001330093029b0292e41a093400234e
:10052c00059378e00568b5fbf7f6f3189c46036075
:10053c00714b7e4393fbf7f3ae1b7343914205d192
:10054c0065461db97f224d1c2a40093c01310430ff
:10055c00d7e7059b1d3b0593009b5d1e7f231d402c
:10056c000023069312aaab009b58da085b070a9388
:10057c00069b0b920c9300230a9e0b9f0d930c9ad7
:10058c000d9bb6185f4117b95b4b9e421ed95a4a58
:10059c0000233000390004f02df9574a069000234f
:1005ac003000390004f026f9ab0012a95a50009b18
:1005bc00591e7f230b40ab420bd1029b9d4273d043
:1005cc0002b900957f23013d1d40cbe73200069711
:1005dc00eae7029a9542f5d1069ae2b17f21029a96
:1005ec000934013a0a4002920298009a82420dd1d3
:1005fc005a1e0a40920012a810589900009012a896
:10060c00095800980093014312a81150029b0699b7
:10061c009b0012aa9950112c9bdd122c06d1029b27
:10062c0012a99b00354a5b58934292d90126029b32
:10063c00009a934215d012aa9b009b582f4a9342c2
:10064c000fd92f4a93420ed17f22029b01331340c4
:10065c00009a9a4205d09b0012a92a4a5b589342f1
:10066c0001d8122c50d032001b2c00dd0922059b26
:10067c0000219b18059333009340013b06931e4bbe
:10068c0013419c46029b009883420fd10029ced087
:10069c00421c7f20029b02409a4220d0009b12a851
:1006ac009b00c1500092c2e7029b95e79f0012a8e5
:1006bc003d582800d040401812a97850069929407e
:1006cc0065466943029dab4205d120b95d1c7f3064
:1006dc0005400295093c7f2001330340d3e7009b82
:1006ec0012aa013b03409b00d25812a90692324336
:1006fc00ca509ce7944a000000ca9a3b5e7089007d
:10070c005f708900ff092f0f029b009a934209d159
:10071c005a1c7f231a40130000920022013b9b00bd
:10072c0012a9ca50029b12aa9b00d05804f02efab0
:10073c000022002303f01bf9029b009a5e1c7f230e
:10074c001e40964208d101321a401300009200223a
:10075c00013b9b0012ace2500022874b03f005fae0
:10076c0004000d0012abb600f05804f00ffa220092
:10077c002b0003f0fcf804000d00989804f0f8f935
:10078c0022002b000690079103f0eff9059b109abd
:10079c00353311939b1a089a0a900b910c93934240
:1007ac0000dbb1e0002b00dab1e01d00012309935e
:1007bc00342d00ddafe069220020521b6f4903f09d
:1007cc008bfe0a9a0b9b04f07ffa35220e900f9148
:1007dc00521b0020694903f07ffe02000b000a98af
:1007ec000b9904f0c5fa02000b0006000f000a98e2
:1007fc000b9904f04ffa02000b000e980f9903f0be
:10080c00b6f80a900b917f22029b00990233134099
:10081c008b4232d012a99b005b5859498b4200d9ac
:10082c0080e02bb9029c009b033414409c420dd0f9
:10083c000022544b0698079903f097f902000b001d
:10084c003000390003f093f806000f0035235b1bd2
:10085c00012b12dd0022494b3000390004f088fadc
:10086c000022002304f0e2f838b1300039000022f5
:10087c00424b03f07cf806000f000a980b99109b72
:10088c0032005c42089be41a3b0003f070f80e9aad
:10089c000f9b04f0fff9119b621e5b00009001910d
:1008ac005b089a422adc04f05ffa0022364b03f014
:1008bc003dff90b1099b2bb10c9b5d1b2b005d1e6a
:1008cc00ab410993314b00980199002203f04df98b
:1008dc00059b0090019101330593059b0334343340
:1008ec00a34208da099b4bb10022002330003900e7
:1008fc0004f09cf810b92222254b1a60059a009836
:10090c00019904f02dfa30e0089d00234fe70123f4
:10091c00002509934fe7002300241e000e930f942b
:10092c00270070e71b498b4202d000221a4b81e74b
:10093c00029c009b0334144000229c42f6d1134bc2
:10094c0078e7002808dbe36c13b1e36b013be3634e
:10095c00069b002b00d064e416220d4b1a6000217c
:10096c00200004f02df90020002140f24c239d447e
:10097c00f0bd0028e7da54e465cdcd410000f03f2e
:10098c00ff64cd1d0000d03f000040430000e03f5d
:0c099c00dc0000200065cd1d0000e83fdd
:020000040000fa
:1009a800f0b595b004000492022900d929e1af4bb3
:1009b80001335b18db7f49005bb21293ab4bc9185c
:1009c80024228b5e0a93e36be26c93422cd25a1c6e
:1009d800e2631d78202df6d02b00093b042bf2d9b9
:1009e80001222b2d25d0069202232d2d22d000275f
:1009f80020239f4a2b43ba181278934229d0032ff9
:100a080003d040d9049b002b3ed0e26c12b1e36bbb
:100a1800013be363049b4bb3032f27d012b1e36b75
:100a2800013be363013ff7e7200003f003fd050006
:100a3800d0e70023d31a0693e26ce36b934203d208
:100a48005a1ce2631d78d2e7200003f0f3fc05008e
:100a5800cde77e1c072f09d0e36be26c93420dd2e1
:100a68005a1ce2631d783700082ec1d1069b00206e
:100a7800013300d1a2e27f4915b0f0bd200003f098
:100a8800d9fc0500efe7b7b1e36c002b00d1b1e06a
:100a9800e36b013be363ade07e1c022f00d19ae2d9
:100aa800e36be26c93426bd25a1ce2631d78370009
:100ab800032e00d18fe220236f4a2b43ba181278f5
:100ac8009342e9d0002fdfd1129b0b93302d00d039
:100ad80069e2e36be26c934200d39ce05a1ce26348
:100ae80018782023e26c0343782b00d057e2e36b9d
:100af800934200d393e05a1ce263187800230f93c3
:100b0800302800d18fe02e2800d199e00022002360
:100b1800089209930e93002300221393574b002544
:100b28001092119300230026029203930300303b96
:100b38000c93092b00d8bbe020230343613b052b12
:100b480000d8b5e02e2800d1b4e00f9b002b00d0d0
:100b58001be1e36c002b00d132e2049ae36b002a1c
:100b680000d10be10e9a002a00d005e1023be363b5
:100b7800069803f0ffff0022002302f0f8ff7be74e
:100b8800200003f057fc050091e75a1ce26318782f
:100b98002838431e9841c0b2012540b1e36c13b90f
:100ba8000020374968e7e36b013be363f8e7e36b51
:100bb800e26c934211d25a1ce26318780300303b6e
:100bc800092b08d9202302009a431300413b192b13
:100bd80001d95f2805d10135e9e7200003f02afc97
:100be800ece72928dcd0e26c12b1e36b013be3634c
:100bf800049b6bb91622234b1a600021200003f0d6
:100c0800e1ff0020002137e712b1e36b013be3630a
:100c1800013df9d2c4e7200003f00cfc61e7200095
:100c280003f008fc6ae7e36be26c934204d25a1cb7
:100c3800e2631878012362e7200003f0fbfbf9e781
:100c4800e36be26c93420dd25a1ce26318780022df
:100c5800002301256d42ee1708920993302813d01e
:100c6800012357e7200003f0e5fbf0e7944a000072
:100c7800104d00000000f07f194d00000000f03f0b
:100c88000000f87fdc000020e36be26c93420bd29b
:100c98005a1ce2631878089a099b52197341089202
:100ca800099301230f93d9e7200003f0c3fbf2e770
:100cb8002e2813d10e9b002b00d086e10c950d96a3
:100cc80001330e93e36be26c934251d25a1ce263f8
:100cd8001878089509960c9d0d9e27e7392803dd9d
:100ce80020230343573b0c93002e2adc0eb9072d13
:100cf8000dd80c9b3f01df190122002352197341c3
:100d0800089d099e0c920d9301230f93dae70d2d90
:100d180017d8109811990022b34b02f028ff1090b1
:100d280011910c9803f026ff109a119b02f01ffff7
:100d380002000b000298039902f01bfe0290039137
:100d4800dae70c9b002bd7d0139b002bd4d110983b
:100d580011990022a54b02f00aff0b00020002982d
:100d6800039902f006fe0123029003911393c3e74f
:100d7800200003f05ffbace7033bf8e6013be363cd
:100d88000021200003f01efff2e60e9b0bb9089528
:100d980009960122002302e0ad185e413f01002eb2
:100da80003dc002ef8d1072df6d920263043702811
:100db8000cd10499200002f083ff70b980231b0630
:100dc80099420ad1049b002b00d116e7e36c13b1ba
:100dd800e36b013be36300200021002f00d1c7e64d
:100de800089a099b08246442e51712196b411400fc
:100df800960f9b003343a20012184b4104920593af
:100e08000a9b05995b42da17914203dc11d1049ad7
:100e18009a420ed92222764b06981a6003f0aafe4f
:100e28000122744b524202f0a2fe0122714b52423f
:100e3800a3e60a9b05996a3bda178a4203dc33d199
:100e4800049a934230d92222694b06981a6003f01b
:100e580091fe802300225b0302f089fe802300229a
:100e68005b038ae6002202980399604b03f060fc5a
:100e78007f00002800d187e00298039900225e4b8a
:100e880003f00aff013702000b000298039902f0f1
:100e980070fd01225242d3170290039104980599dc
:100ea8008018594104900591002fdbda04980599c0
:100eb800129b2022dc17002312184b410a98c117f5
:100ec800121a8b419c4203dc08d11299914205d930
:100ed800049b0a9a9b1a20330b935ad40b9b342bee
:100ee8005adc54220b9b0020d21a434903f0f6fa2d
:100ef800040006980d0003f03dfe0b0002002900d7
:100f0800200003f0e3fe0b9b04000d001f2b0ddcfb
:100f1800029803990022002303f08afd30b9fb07e9
:100f280004d400220023029203930137069803f0a9
:100f380021fe029a039b0690079102f018fe029088
:100f48000391380003f024fe069a079b02f00ffe77
:100f580022002b0002f00dfd029a039b02f009fd0e
:100f680022002b0003f098fe0022002304000d004d
:100f780003f05efd10b122221d4b1a60049a200076
:100f8800290003f0effe77e5029a039b1000190091
:100f98007de700230b93a4e700240025c6e712b1e0
:100fa800e36b013be363049b129a0193069b2900c0
:100fb800009320000a9bfff7e5f85de50f495be524
:100fc800049b002b00d0d3e5dae60f9b2e20002be4
:100fd80000d0dee6bde5e36be26c934200d2d4e5d7
:100fe800200003f027fad3e50000b03f0000e03fff
:100ff800dc000020ffffef7f0000f03f0000f0ff63
:020000040000fa
:1010080080b582b000af0200fb1d1a70fb1d1b7873
:101018007f2b12d8fb1d1b781a001f231a401100c2
:101028004ef20013cef20003fa1d127852b25209a2
:101038000120884001009200d150c046bd4602b050
:1010480080bd90b583b000af02003960fb1d1a70f7
:10105800fb1d1b787f2b2fd84ef20013cef2000316
:10106800fa1d127852b29208c0329200d358fa1d73
:101078001278110003220a40d200ff2191400a0091
:10108800d2431a4010003b689b01ff221a40fb1d07
:101098001b78190003230b40db009a4011004ef225
:1010a8000013cef20003fa1d127852b292080143df
:1010b800c0329200d15037e04ef60053cef2000312
:1010c800fa1d127811000f220a40083a92080632d7
:1010d80092009b1804331b68fa1d12781100032232
:1010e8000a40d200ff2191400a00d2431a40100062
:1010f8003b689b01ff221a40fb1d1b781900032344
:101108000b40db009a404ef60053cef20003f91d67
:1011180009780c000f21214008398908024306315b
:1011280089005b1804331a60c046bd4603b090bd01
:1011380080b582b000af00237b6040f20043c4f268
:10114800000301229a7140f20043c4f20003022214
:101158009a7000e0c04640f20043c4f200039b7955
:10116800dbb21a0001231340002bf3d040f20043f6
:10117800c4f2000301229a7145f20003c4f200137d
:1011880004225a6041f60003c4f2000340f202321e
:101198001a6200e0c04641f60003c4f20003da68b0
:1011a8008023db021340002bf4d041f20003c4f289
:1011b800000300221a8600e0c04641f20003c4f290
:1011c80000031a6980235b041340002bf4d046f215
:1011d8002003c0f280031b687b607a68fc23db0570
:1011e80013407b607b68db0b7b607b6840f20022ee
:1011f80013437b6041f20003c4f200037a685a6328
:1012080000e0c04641f20003c4f200031a698023db
:101218005b041340002bf4d041f20003c4f2000336
:101228001b8e9ab241f20003c4f2000302210a4362
:1012380092b21a8600e0c04641f20003c4f20003ed
:101248001a6980235b041340002bf4d041f6004355
:10125800c4f2000340f205129a6200e0c04641f66b
:101268000043c4f200035b6810221340002bf5d141
:1012780041f60043c4f2000340f20712c0f2020232
:101288001a6200e0c04641f60043c4f200035b68fe
:1012980004221340002bf5d1c046bd4602b080bde4
:1012a80080b500af41f60043c4f20003902242210a
:1012b800995000e0c04641f60043c4f20003902272
:1012c8009b5842221340002bf4d042f60023c4f26c
:1012d800000301221a7000e0c04642f60023c4f25f
:1012e80000035b6801221340002bf5d142f600236e
:1012f800c4f200030f225a63c046bd4680bd80b5c4
:1013080000af42f60023c4f200031b78dab242f6bb
:101318000023c4f2000302210a43d2b21a7000e08b
:10132800c04642f60023c4f200035b680222134061
:10133800002bf5d1c046bd4680bd80b500af40f258
:101348000023c4f2002301221a70c046c046c046da
:10135800c046bd4680bd80b500af43f20023c4f24d
:10136800000348f200025a6143f20023c4f200036a
:1013780048f200029a6043f20023c4f200034f22ad
:1013880000219954c046bd4680bd80b586b000afe7
:101398000200bb1d1a803b1d0a1c1a8010217b18f5
:1013a80000221a607b1800225a6008203b1800228d
:1013b8001a603b1800225a603b1d00229b5edb43eb
:1013c8001bb2ba1d0020125e13401ab2bb1d1a8050
:1013d800bb1d1b880122134033b17b181b6848f2e0
:1013e80000021a437b181a603b1d1b880122134018
:1013f8003bb108217b181b6848f200021a437b188e
:101408001a6043f20023c4f200031022ba181268cb
:101418009a6143f20023c4f200030822ba18126842
:101428005a61c046bd4606b080bd80b500af40f2e7
:10143800e403c2f200031b889bb2032293439ab2cf
:1014480040f2e403c2f200031a8042f60023c4f219
:1014580000039b6b0422134073b940f2e403c2f209
:1014680000031b889bb2012213439ab240f2e403a3
:10147800c2f200031a800de040f2e403c2f2000356
:101488001b889bb2022213439ab240f2e403c2f2d1
:1014980000031a8042f60023c4f200035a6942f698
:1014a8000023c4f2000304210a435a61c046bd4622
:1014b80080bd80b500af43f20023c4f20003802250
:1014c80012045a6043f20023c4f200035722032196
:1014d800995443f20023c4f200033b229b5cdab226
:1014e80043f20023c4f200030f210a40d1b23b2289
:1014f800995442f60023c4f200031a6b42f6002303
:10150800c4f2000304210a431a6342f60023c4f21a
:101518000003da6942f60023c4f200030c490a40ca
:10152800da6142f60023c4f20003da6942f60023c6
:10153800c4f2000340f600310a43da6142f60023a0
:10154800c4f2000304221a61c046bd4680bdc046ed
:10155800fff0ffff80b582b000afba1d40f2e40390
:10156800c2f200031b88138040f2e403c2f20003b6
:1015780000221a80bb1d1b881800bd4602b080bd22
:1015880080b500afbff35f8f62b603210520fff778
:1015980058fd01235b4203211800fff752fd052087
:1015a800fff72efd01235b421800fff729fdc04617
:1015b800bd4680bd80b500affff7bafdfff7bdfea1
:1015c800fff76efefff775fffff7c5fe00f01ef888
:1015d80000f0f6fefff793fe01f00ffbfff7d0ffd8
:1015e800c046bd4680bd80b582b000af3b00180044
:1015f80001f03bfb3b00180000f04bf93b001800e2
:0c16080001f03ef8c046bd4602b080bdb7
:020000040000fa
:1016140080b500af41f60043c4f20003d02242215a
:10162400995000e0c04641f60043c4f20003d022c2
:101634009b5840221340002bf4d040f25003c2f2d6
:1016440000032c220021180003f0f6fa40f25003a4
:10165400c2f2000341f20002c4f200221a6041f215
:101664000003c4f2002301221a6000e0c04641f2e4
:101674000003c4f20023db6901221340002bf5d1df
:1016840041f20003c4f2002304221a6041f2000371
:10169400c4f20023196841f20003c4f200230022bb
:1016a400c4f210020a431a6041f20002c4f200229a
:1016b40041f20003c4f2002352685a6041f200036d
:1016c400c4f200232c4a9a8140f25003c2f2000370
:1016d40000225a6240f25003c2f200034ef6c232b4
:1016e400c0f20b029a6241f20003c4f200235a686a
:1016f40041f20003c4f20023c32109040a435a60df
:1017040000e0c04641f20003c4f20023db69042276
:101714001340002bf5d143f20023c4f200038422ca
:1017240040f20031995043f20023c4f20003c8226e
:101734000321995443f20023c4f20003b422032189
:10174400995441f20003c4f200231a6841f20003e1
:10175400c4f2002302210a431a6000e0c04641f2a9
:101764000003c4f20023db6902221340002bf5d1ed
:10177400c046bd4680bdc0462bf6ffff80b582b093
:1017840000af78607b685b6963b17b685b69012249
:10179400da807b685b697a68128c92b21a817b6802
:1017a40000225a617b6800229a617b680022da6118
:1017b4007b6800221a84c046bd4602b080bd80b555
:1017c40086b000af786039601623fb1800221a80b7
:1017d4001523fb1800221a707b681b681b7edbb282
:1017e4001a0001231340002b51d07b681b8a9bb243
:1017f40083b17b68db68591c7a68d1601b78dab2e4
:101804007b681b689a627b681b8a9bb2013b9ab215
:101814007b681a827b681b8a9bb2002b37d17b685a
:101824000022da607b681b899bb22bb37b685b6800
:101834001a687b68da607b685b689b889ab27b680d
:101844001a827b685b6808331a007b685a607b687d
:101854001b899bb2013b9ab27b681a817b68db6867
:101864001bb17b681b8a9bb28bb97b680022da6050
:101874007b6800221a820ae07b681b6801221a75c1
:101884007b6800225a607b680022da60c046c0464a
:10189400bd4606b080bd80b582b000af78607a687e
:1018a40040f25003c2f2000311001800fff787ff53
:1018b400c046bd4602b080bd80b582b000af78603e
:1018c4007b681b8a9bb25bb97b681b899bb23bb963
:1018d4007b681b681b7edbb21a00012313400bb923
:1018e400012300e000231a1c01231340dbb218007b
:1018f400bd4602b080bd80b588b000aff860b96065
:101904007a601e23fb18082252421a80bb680bb16e
:101914007b680bb901233ae07b68202b01d90023b3
:1019240035e0fb681800fff7c7ff03000bb1002385
:101934002de00023bb6100237b611ce0bb69db005d
:10194400ba68d3189b881e22ba1812889a4201d208
:1019540000231ce0bb69db00ba68d3189a881e21f7
:101964007b18791809888a1a1a807b6901337b618c
:10197400bb690133bb61ba697b689a42ded3fb68f9
:10198400ba685a607b689ab2fb681a81012318000e
:10199400bd4608b080bd80b582b000af78607b687a
:1019a40000221a817b6800225a607b6800221a8216
:1019b4007b680022da60c046bd4602b080bd80b5b7
:1019c40082b000af786039603a68796840f25003b9
:1019d400c2f200031800fff78eff03001800bd4693
:1019e40002b080bd80b500af40f25003c2f20003e4
:1019f4001800fff761ff03001800bd4680bd80b5e5
:101a040000af40f25003c2f200031800fff7c3ff17
:101a1400c046bd4680bd80b582b000af78607b68ab
:101a24005b695a1e9341dbb21800bd4602b080bd0b
:101a340080b582b000af786039603b685bb13b68c9
:101a44001b6843b13b689b882bb13b689b884ff66e
:101a5400f872934201d9002316e07b685b690bb1ed
:101a6400002311e03b680022da803b6800221a81df
:101a74007b6800221a847b681833180001f0f7f899
:101a84007b683a685a6101231800bd4602b080bde4
:101a940080b582b000af78607a6840f25003c2f239
:101aa400000311001800fff7c3ff03001800bd4630
:101ab40002b080bd80b500af40f25003c2f2000313
:101ac4001800fff7a8ff03001800bd4680bd80b5cd
:101ad40000af40f25003c2f200031800fff74efebd
:081ae400c046bd4680bdc046ae
:020000040000fa
:101aec00f0b59bb013930b6815900a934b680d914e
:101afc0002938b68ce680b930b691893136806934b
:101b0c0053680698089300220023089902f0d0fe2f
:101b1c0060b90a9b5b0734d408200a9b03400993e5
:101b2c000b9b0393099b73b1202306e080221206c2
:101b3c009446089b634408932d2333700b9b013b05
:101b4c00039301230993089b06995b005b088e4a5b
:101b5c00d9b9934219d1139b099a413bb018192b4f
:101b6c0011d88a4903f0dbf8300003f01df80a9b0a
:101b7c000200009331000b9b159802f0e6fa1bb0a3
:101b8c00f0bd2b23d9e78249ece7934202d80bd165
:101b9c00069b4bb1139b099a413bb018192b01d8ea
:101bac007c49dfe77c49dde7002200230698089991
:101bbc0002f03cff0024794d0027e8bb070002e04f
:101bcc000137049c059d0022754b2000290001f073
:101bdc00ccff069a089b0490059102f04afe00285f
:101bec00eed0002304931fe06e4b9f4213da049b4c
:101bfc008bb900226c4b0698089901f0b6ff6a4b22
:101c0c000690089120002900002201f0aeff01236c
:101c1c0004000d000493200029000022604b02f008
:101c2c00fbf804000d00013f22002b0006980899d8
:101c3c0002f03efe0028d7d1139803f05cf8c3b233
:101c4c000c93029b002b00da93e10c9b0493672b03
:101c5c0000d0afe0029b002b00d185e13b1d03dbe4
:101c6c00029b9f4200daa1e06523b5e0002200232d
:101c7c000e920f9303e106940795049b0897652b2e
:101c8c0000d01ce10023089319e1029b5bb9089b6f
:101c9c00002b08da2e23149a0134b354039b013b16
:101cac0003930123029323002a19302101e0f154fc
:101cbc0001339a42fbd1039a2b193030551b5c1c13
:101ccc00f0546b1e0393002523e00d9b14941b69a9
:101cdc001093053ba34200d8fde0069a079b0e9893
:101cec00129902f099f802f0f7f81090119102f0a5
:101cfc0051fe092800dd092010230a9a13400343e2
:101d0c00002bc2d10c9b672bbfd1089b002bcadace
:101d1c00013580200006844612990e9a61440b000e
:101d2c001098119900920193069a079b02f0d4ff28
:101d3c0080231b06cb180e90129306980799184b0c
:101d4c00002202f069f8089b06900791013b08936a
:101d5c00bce00a9bdb0600d4c1e02e2333550134d2
:101d6c00bde00a2297fbf2f56a43ba1a3032013b06
:101d7c00f254039a2f00013a0392bde0039b325cac
:101d8c00f3181a540138e3e00000f07fc44c000053
:101d9c00c84c0000cc4c0000d04c00000000f03fc0
:101dac0000002440d4feffff00005043002f12da45
:101dbc0066230493029b01330293049b662b0cd184
:101dcc00002f02da002400276d4d0c9b672b02d0ec
:101ddc00029bdb19029366230493069b0e940f95ca
:101dec001293089b1093002314930e9a0f9b129836
:101dfc00109902f011f802f06ff81690179102f09a
:101e0c00c9fd19908020000684461099129a6144ed
:101e1c000b0016981799009201930e9a0f9b02f0e3
:101e2c005bff80231b06cb181290109300220e9898
:101e3c000f99544b01f0f0ff149b0e900f9101334e
:101e4c001493149a029b9342cfd100224e4b01f073
:101e5c008cfe0e900f9102000b001298109902f05c
:101e6c0027fd002800d001e70e9a0f9b12981099bd
:101e7c0002f0dcfd18b1199bdb0700d4f6e60e9ad4
:101e8c000f9b0698089901f072fd00220e9012919a
:101e9c003c4b2000290001f068fe0e9a129b069024
:101eac00079102f021fc002800d1e4e6049b0137e5
:101ebc00662b00d0e1e6029b0897013302930025c4
:101ecc00029a089b099c9b1a16930295089b169ada
:101edc00934200d0f9e6029b002b00d139e7002198
:101eec00049b30190170652b25d1189b013bf154d3
:101efc008f4201da7f420131002f00d031e7189a6e
:101f0c009a1a0332002a00dd2be75d1e2d2201b93f
:101f1c00023a7255139a023b413a192a01d84522ca
:101f2c000492049af1180a70039a023a03929c42a2
:101f3c0001da02f0f4fe03230a9a1340022b00d0bc
:101f4c0012e6039b002b00dc0ee6300002f02cfea8
:101f5c00099b834200dc11e7f018039a302102f050
:101f6c0067fe00230b93ffe50123029376e606231d
:101f7c00fbe70c9b672bfad004930623029319e71b
:0c1f8c000000f03f000024400000144062
:020000040000fa
:101f980080b582b000af78607b68d8220021180035
:101fa80002f048fefff706fb7b6876331a007b6871
:101fb8009a667b686c22102199527b6868331800f6
:101fc800fff764fd7b6896331a007b6888215a50b6
:101fd8007b688c22402199527b688833180000f076
:101fe8009dfbc046bd4602b080bd90b58fb000af26
:101ff800f8607a600b23fb180a1c1a707b680bb117
:10200800022300e00323fb6214203b1800221a601d
:10201800fa6af96804003b18180002f07cfe3b19c4
:10202800180002f084fe03000c003b627c62fb6a2d
:10203800fa68d318180002f07afe03000c00bb619e
:10204800fc6100220023c4f24e03b869f96901f06b
:10205800e5fe03000c001a002300386a796a01f0d3
:1020680088fc03000c003b637c630b22bb181b78c5
:10207800532b03d0bb181b78572b06d13b6b3b6304
:102088007b6b8022120653407b633b6b7c6b180092
:102098002100bd460fb090bdf0b5b5b006af786071
:1020a8003960796808243b198022180002f033fe51
:1020b80020003b187f220021995443f2d063c0f2dc
:1020c80000033a181900100002f0c8fa0300b422fd
:1020d800b9180b60bb181b685bb143f2d463c0f23c
:1020e8000003ba1810680622190002f00efd03005a
:1020f8000bb10023a5e043f2d063c0f2000319003e
:10210800002002f0abfa0300b0243a19136043f23e
:10211800d063c0f200031900002002f09ffa030008
:10212800ac257a19136043f2d063c0f2000319009a
:10213800002002f093fa0300a826ba19136043f2ac
:10214800d063c0f200031900002002f087fa0300f0
:10215800a422b9180b6043f2d063c0f2000319003f
:10216800002002f07bfa0300a0217818036043f2f4
:10217800dc63c0f200031900002002f06ffa0300cc
:102188009c203a1813603b191b6883b17b191b68a4
:102198006bb1bb191b6853b1a422bb181b6833b1c0
:1021a800a0217b181b6813b13b181b680bb90023cf
:1021b80047e0ac23fb181b681978b023fb181b6891
:1021c80001221800fff711ff03000c0090257a196f
:1021d80013605460a423fb181b681978a823fb1804
:1021e8001b6800221800fff700ff03000c0088227c
:1021f800b9180b604c60a022bb181b680233b918d1
:102208000a6804329c217918096809780c00791940
:102218000d684e6843f2e061c0f200013868059429
:1022280004920393a022bb181b6802938822bb1850
:102238005c681b68009301942a00330002f0dafc02
:1022480001231800bd462fb0f0bdb0b584b000af73
:1022580078600e257b1900221a80fff7c4f97c19d3
:10226800fff778f9030023807b191b887bb17b1962
:102278001b880122134033b17b681b88012213435a
:102288009ab27b681a800e23fb1800221a807b689a
:102298001b881a000123134053b3fff7a1fb030067
:1022a80043bb7b681b881bb2002b10db7a6843f2a8
:1022b8002043c0f2000353607b6840f29e221a81db
:1022c8007b681b88374a13439ab27b681a807b68fd
:1022d800043301211800fff770fb03005bb17b6832
:1022e8001b8847f6fe7213409ab27b681a8002e098
:1022f800c04600e0c0467b688e229b5a9bb2012be9
:1023080014d143f20023c4f2000348f200029a6198
:102318007b681b88042213439ab27b681a807b6807
:1023280090229b5a99b27b68942299527b681b88a9
:102338001a000423134063b3fff752fb030053bb97
:102348007b681b881bb2002b09db7b6896331a005d
:102358007b685a607b6894229a5a7b681a817b68ea
:10236800043302211800fff728fb0300abb17b6898
:102378008e22002199527b688833180000f0cef92c
:102388007b681b8847f6fb7213409ab27b681a80f9
:1023980002e0c04600e0c046c046c046bd4604b0a4
:1023a800b0bdc0460080ffff80b5b6b000af3b00af
:1023b8001800fff7edfd3b001800fff746fffae7ae
:020000040000fa
:1023c80080b500af41f60043c4f20003c8224221a1
:1023d800995000e0c04641f60043c4f20003c82209
:1023e8009b5840221340002bf4d040f27c03c2f2e9
:1023f80000032c220021180002f01cfc40f27c0390
:10240800c2f2000340f60002c4f200221a6040f64d
:102418000003c4f2002301221a6000e0c04640f61f
:102428000003c4f20023db6901221340002bf5d11d
:1024380040f60003c4f2002304221a6040f60003a9
:10244800c4f20023196840f60003c4f200230022f6
:10245800c4f210020a431a6040f60003c4f20023d3
:102468005a6840f60003c4f2002340210a435a6028
:1024780040f60003c4f200232b4a9a8140f27c0301
:10248800c2f2000300225a6240f27c03c2f2000347
:102498004ef6c232c0f20b029a6240f60003c4f252
:1024a80000235a6840f60003c4f20023c32109043c
:1024b8000a435a6000e0c04640f60003c4f2002315
:1024c800db6904221340002bf5d143f20023c4f248
:1024d8000003802292025a6043f20023c4f20003f0
:1024e80051220321995443f20023c4f200033822f5
:1024f8002021995440f60003c4f200231a6840f6dc
:102508000003c4f2002302210a431a6000e0c04617
:1025180040f60003c4f20023db6902221340002bbb
:10252800f5d1c046bd4680bd2bf6ffff80b582b011
:1025380000af78607b685b6963b17b685b69012287
:10254800da807b685b697a68128c92b21a817b6840
:1025580000225a617b6800229a617b680022da6156
:102568007b6800221a84c046bd4602b080bd90b583
:1025780087b000af7860396016217b1800221a8076
:1025880015203b1800221a707b681b681b7edbb283
:102598001a000423134063b17b681b685b8b9ab2f3
:1025a8007b1836490a431a807b681b689a6a3b186d
:1025b8001a707b685b69002b59d01623fb181b889f
:1025c80048f20302134048f20002934213d17b6899
:1025d8005b691a687b681b8c9bb2591c88b2796846
:1025e8000884d3181522ba1812781a707b683a68ca
:1025f800183303ca03c37b681b685b8b9bb21ab290
:102608001623fb1800215b5ef7210b401bb2134316
:102618001ab27b681b6892b25a837b681b8c9ab289
:102628007b685b699b889bb29a4204d37b681800dd
:10263800fff77cff1ce07b681b8c9bb2cbb17b68ef
:1026480018331a0039680c243b19180000f051fba4
:102658007b6824331a003b191100180000f04dfa6a
:10266800031e06db7b681800fff760ff00e0c0462a
:10267800c046c046bd4607b090bdc0460080ffffbb
:1026880080b582b000af78607a6840f27c03c2f20d
:10269800000311001800fff76affc046bd4602b0ec
:1026a80080bd80b582b000af78607b685b695a1ed8
:1026b8009341dbb21800bd4602b080bd80b582b040
:1026c80000af786039603b685bb13b681b6843b119
:1026d8003b689b882bb13b689b884ff6f872934206
:1026e80001d9002316e07b685b690bb1002311e078
:1026f8003b680022da803b6800221a817b6800224e
:102708001a847b681833180000f0affa7b683a68bf
:102718005a6101231800bd4602b080bd80b582b061
:1027280000af78607a6840f27c03c2f200031100bf
:102738001800fff7c3ff03001800bd4602b080bdb4
:1027480080b500af40f27c03c2f200031800fff727
:10275800a8ff03001800bd4680bd80b500af40f259
:102768007c03c2f200031800fff7e0fec046bd4636
:0427780080bdc0461a
:020000040000fa
:10277c000023f0b506001500b1b00791039307993b
:10278c000b78002b00d10ae101235b420c9310abb8
:10279c0000240e9380230b940d940f930b5d0bb1bf
:1027ac00252b29d134b12200300002f098f9079b77
:1027bc001b190793079b1a78252a00d0e4e040f2f6
:1027cc00020c012110270133049307930798037817
:1027dc002b2b1ad025d8202b1ad0232b1dd02a2beb
:1027ec0028d002f027f80d90079b1a78303a092a66
:1027fc0031d801330793f7e70134cfe70b9b0593ef
:10280c000b4301300b930790e0e704230b9a0fe086
:10281c000b9b0593059a08230ae00b9b05933b43fe
:10282c00efe72d2bead0302bd9d162460b9b0593c9
:10283c001343e6e72b6801301a1d1b6807902a60ca
:10284c000d93002b07da0b9a5b4205920122059936
:10285c000d934a400b920b9bda0702d5022293434d
:10286c000b93079b1a782e2a0ed10022581c0c921f
:10287c0007905a782a2a27d1023307932b681a1dfe
:10288c001b682a6005930c9307a802f04ff8079b6e
:10289c000700187802f02ffa692800d182e034dca6
:1028ac00632800d1d7e01adc252800d1e4e06128a8
:1028bc0058d0049b01220793002352420c920b9395
:1028cc000d9300930232e1e001f0b4ff0c90079bf2
:1028dc001a78303a092ad7d801330793f7e76428d6
:1028ec0060d06728e5dc2a00390008a802f0e2f87d
:1028fc00002800d1abe0079b0ba95a1c07921b7850
:10290c0008aa3000fff7ecf83de0702800d17be01e
:10291c0016dc6e2800d193e06f28cad12b00002260
:10292c00390008a801f036fb002800d18fe0079b86
:10293c0008aa01330ba93000079302f023fa22e016
:10294c00752840d078284ed07328b2d1802f00d073
:10295c007de0079b2a6801330793131d2b601268d7
:10296c00002384e02a00390008a802f0a3f800280c
:10297c0000d16ce0079b0ba95a1c07921b7808aa84
:10298c00300002f001fa2418039b1c19a34200dc4e
:10299c007ee04f223f4b1a6001235b420393039866
:1029ac0031b0f0bd2b000122390008a801f0f2fa79
:1029bc0000284cd0079b08aa01330ba930000793c1
:1029cc0002f0e0f9dfe72b000022390008a801f043
:1029dc00e1fae0b3079b08aa01330ba93000079377
:1029ec0002f0d0f9cfe72b000022390008a801f043
:1029fc00d1fa60b3079b5a1c07921b7808aa0ba943
:102a0c00300002f0c1f9bee72b000022f02108a82b
:102a1c0001f0c0fad8b1079b099a01330793089bc0
:102a2c0013435bb91c4802f0bff802000b9b1a4918
:102a3c0000930d9b300001f088fba4e77823dde7c1
:102a4c00039b39001a1908a82b0001f02ffc079bd7
:102a5c000133079398e7802ff9d1079b0133079334
:102a6c002b681a1d1b682a6008aa137001230ba976
:102a7c00300001f059fd86e7802fe8d10122079b39
:102a8c00013307930b9b049300930d9b0349d1e7f0
:102a9c00039474e6dc000020544d00005a4d0000f5
:020000040000fa
:102aac0080b582b000af786019e07b685b6843f258
:102abc000062ccf265429a187b685a607b681b688e
:102acc00013305d07b681b685a1c7b681a6006e0d2
:102adc007a684cf6ff13c3f69a33536007e07b68b1
:102aec005a684cf6ff13c3f69a339a42ddd8c046a7
:102afc00bd4602b080bd80b582b000af7860396051
:102b0c007b681a683b681b689a4202d201235b42bd
:102b1c0019e07b681a683b681b689a4201d901234b
:102b2c0011e07b685a683b685b689a4202d20123c9
:102b3c005b4208e07b685a683b685b689a4201d943
:102b4c00012300e000231800bd4602b080bd80b513
:102b5c0082b000af3a0040f2c403c2f2000303cbd0
:102b6c0003c23b005b6844f64032c0f24c029a1838
:102b7c003b005a600de03b005b6843f20062ccf214
:102b8c0065429a183b005a603b001b685a1c3b007c
:102b9c001a603b005a684cf6ff13c3f69a339a42fc
:102bac00e9d840f2cc03c2f200031b685a1c40f275
:102bbc00cc03c2f200031a6040f2c403c2f2000359
:102bcc003a0003ca03c340f2cc03c2f200031b68f1
:102bdc005a1c40f2cc03c2f200031a604ef21003ee
:102bec00cef2000348f25812c0f215029a60c046a9
:102bfc00bd4602b080bd80b500af4ef21003cef2e0
:102c0c0000034ef660225a604ef21003cef200031f
:102c1c0048f25812c0f215029a604ef21003cef22e
:102c2c00000307221a60c046bd4680bd80b584b043
:102c3c0000af786040f2cc03c2f200031b68fb606b
:102c4c007a6840f2c403c2f2000303cb03c240f221
:102c5c00cc03c2f200031b68fa689a42ead1c04660
:102c6c00bd4604b080bd90b587b000af78604ef221
:102c7c001003cef200039b684ef66022d31a7b61e0
:102c8c000c243b191800fff7d1ff20003b185968a2
:102c9c007a6913005b019b1a9b009b18db001a00de
:102cac000c23b2fbf3f3ca183b185a600ee00c214c
:102cbc007b185b6843f20062ccf265429a187b1871
:102ccc005a607b181b685a1c7b181a600c217b18e5
:102cdc005a684cf6ff13c3f69a339a42e7d87b68ce
:102cec007a1803ca03c3c046bd4607b090bd80b571
:102cfc0088b000aff860b9607a6014217b180022ac
:102d0c001a607b1800225a600023fb61bb681a68aa
:102d1c007b681b689a4207d2bb681a687b681b6881
:102d2c00d21a7b181a6007e0bb681a687b681b68ac
:102d3c00d21a1423fb181a60bb681a687b681b68cc
:102d4c009a4233d27b681a68bb681b68d31afb6142
:102d5c0015e0fb6943f2006cccf2654c6344fb61fb
:102d6c001422bb181b6823b9bb18012252421a60eb
:102d7c0005e014217b181b685a1e7b181a60fa692f
:102d8c004cf6ff13c3f69a339a42e2d81422bb18be
:102d9c001b6823b9bb18012252421a600ee01421a1
:102dac007b181b685a1e7b181a6007e0bb685a68b0
:102dbc007b685b68d21a1423fb185a60fb681422d8
:0e2dcc00ba1803ca03c3c046bd4608b080bd96
:020000040000fa
:022dda00fee712
:020000040000fa
:102ddc00f0b54e4657464546de469046e0b51600e1
:102dec001f0002000b0012184b41bf4a85b08146f0
:102dfc00934200d952e134003d000023a4197d41d7
:102e0c000022cff6e07312196b410024cff6c07488
:102e1c00a34200d942e100d13de1002300240093fc
:102e2c000194cb0fdb077c0001934d006308c24675
:102e3c000393cb466d089d4200d8bae02b0d9c46ff
:102e4c00002b50d080200903090b40030843039941
:102e5c004a46090d0300894600297ad080253c0397
:102e6c00240b6d0325434046290066464f46e14539
:102e7c0000db20e114001d00241a8d41002d06db1f
:102e8c0023002b43002b00d19de022002b00013ea0
:102e9c0092185b41be42edd1b94614001d00241ab4
:102eac008d41002d06db23002b43002b00d18ae043
:102ebc0022002b00802040030100184206d1484616
:102ecc0092185b4101381942fad0814649464c1e92
:102edc0000d5f2e00020210580185941009b019c8f
:102eec00c018614171e02a00002d00d1a3e04ff61b
:102efc00ff739d4200d9d6e040f2180910232a0432
:102f0c007a4ca24201d84b461202794ca24201d80b
:102f1c0004331201774ca24201d802339200d243ff
:102f2c00d20f9a180b235b429c4694442b3a914641
:102f3c0000d5a6e005004c46a5402b0001006046dc
:102f4c0081400a0041428c460399090d89460029ab
:102f5c0084d10398010000283ed04ff6ff708142c7
:102f6c0000d9a4e040f21808102009045f4da942d2
:102f7c0001d8404609025e4da94201d8043009012e
:102f8c005c4da94201d802308900c943c90f4118d0
:102f9c000b2040428146203889440d183fd4340020
:102fac00ac4021004d463400ac4020006c42a146a0
:102fbc005be79d4202d1c14500d93fe7da4504d118
:102fcc00039bab4201d10098019905b03cbc9046e3
:102fdc009946a246ab46f0bd40464ff6ff78082511
:102fec00c24502d8102130041035404ca04201d803
:102ffc00290000023e4da84201d8043100013d4d8c
:10300c00a84201d802318000c043c00f09180b2020
:10301c00404281462031203889440d18bfd548469e
:10302c0020213500091acd40039ca846844021007c
:10303c0044462143b6e74ff6ff7c4b4640f2080965
:10304c00e34503d840f2180910220304274ca3428d
:10305c0001d84a461b02264ca34201d804321b015c
:10306c00244ca34201d802329b00db43db0fd21865
:10307c000b235b429c46203294442b3a914600d45d
:10308c0058e76246202364469b1aa5400200da40aa
:10309c002b00134352e7002a00d1bee6002100208a
:1030ac00c7f6f87191e740f20809002328e740f2cf
:1030bc00080800205ae7e146efe648460121091ac4
:1030cc0020204042081807d41c00c4402000cb40ec
:1030dc00020000210020ffe620201c00401a844042
:1030ec001000c8402043f2e7ffffdfffffffff00a7
:0830fc00ffffff0fffffff3f84
:020000040000fa
:10310400f0b585b000930393009b02900c00160069
:10311400150001900f00002b00d0c9e08a424ad963
:10312400100001f0e9fb48b12023019f1b1adf4086
:10313400019b84408340854027430193aab22b0c12
:10314400b7fbf3f1160094461a004a434e43bf1ae4
:10315400019a3f04140c27430a00be4207d97f1981
:10316400013abd4203d8be4201d98a1e7f19be1b53
:10317400b6fbf3f14b436446f61a6b464c439b880b
:1031840036041e430f00b44207d97619013fb542f5
:1031940003d8b44201d98f1e76191204341b3a4362
:1031a4000a9b23b1c4401c6000230a994b601000a1
:1031b400009905b0f0bd02b9ffde100001f09cfbe0
:1031c400b8bb0123a41b00932b0cb4fbf3f21f0028
:1031d40011005743aeb27143e41b019f24043f0c1a
:1031e4003c439446a1420ad9012764197f42bc4456
:1031f400a54204d8a14202d9023a94466419641a39
:10320400b4fbf3f77b43e41a6b467e439b882404a8
:103214001c433900a64207d964190139a54203d8d1
:10322400a64201d9b91e641963461a04a41b0a43b1
:10323400b6e7202223000199121ad3408440d140da
:10324400019a8540824021438c46290cb3fbf1f45a
:1032540001920a00624326009b1a6246afb27e4383
:10326400120c1b04134322009e4207d95b19013a36
:103274009d4203d89e4201d9a21e5b199b1bb3fb3e
:10328400f1f671435b1a614677438cb21b041c430d
:103294003100a74207d964190139a54203d8a742ce
:1032a40001d9b11e641912040a43e41b00928be78e
:1032b400009b8b420ad90a9b002b00d1abe0029af7
:1032c40059601a60002300931a0070e7039801f014
:1032d40013fbd8b9039ba34203d3029b02009e4273
:1032e4000ad8029b01229e1b039b0196e41a029baf
:1032f400b342ad416d42671b0a9b0093002b00d182
:1033040055e7019982c30023009350e720231b1a39
:1033140001933300019a039fd34087401f43230046
:103324000199d340029a8440ca4022439446029aa7
:10333400390c8240b3fbf1f402920a0086406243e6
:10334400009626009b1a6246bdb26e43120c1b0403
:10335400134322009e4207d9db19013a9f4203d846
:103364009e4201d9a21edb199e1bb6fbf1f46346f3
:1033740061436543761a360499b20e432300b5427d
:1033840007d9f619013bb74203d8b54201d9a31ea8
:10339400f61912041a436b461c88009b711b8c4659
:1033a400190c230096b2150c6c4373434d437143bf
:1033b4001e0c091971188c4202d9802464022d193b
:1033c4000c0c9bb209046519c918ac4503d30bd185
:1033d400029b8b4208d2009b013ace1ab14289412a
:1033e4004942cf193100ed1b0a9b0093002b00d1f9
:1033f400dde6029b019c591a63465d1b029b8b42ce
:103404009b415b42ed1a2b00c140a340c5401943c8
:0a3414000a9b22c377e70a9b55e7e5
:020000040000fa
:02341e007047f5
:020000040000fa
:103420001b5b306d1b5b324a1b5b313b31482b2de4
:103430002d2d2d2d2d2d2d2d2d2d2d2d2d2d2d2dbc
:103440002d2d2d2d2d2d2d2d2d2d2d2d2d2d2d2dac
:103450002d2d2d2d2d2d2d2d2d2d2d2d2d2d2d2d9c
:103460002d2d2d2d2d2d2d2d2d2d2d2d2d2d2d2d8c
:103470002d2d2d2b0d0a7c20454545203139323a22
:1034800020456c656374726963616c20616e6420b1
:10349000456c656374726f6e69637320456e67690e
:1034a0006e656572696e67204c61626f7261746fe0
:1034b00072792056492020202020207c0d0a7c2073
:1034c00020202020202020202041636164656d6938
:1034d00063205965617220323032342d32303235fa
:1034e0002c2053656d657374657220322020202076
:1034f00020202020202020202020202020202020cc
:103500002020207c0d0a7c2020202020202020202c
:1035100020202020202020202020202020202020ab
:10352000202020202020202020202020202020209b
:10353000202020202020202020202020202020208b
:1035400020202020202020202020207c0d0a7c20ec
:1035500053656e736f723a20475053204d6f6475f8
:103560006c652020202020202020202020202020ca
:10357000202020202020202020202020202020204b
:10358000202020202020202020202020202020203b
:103590002020207c0d0a7c2020202020202020209c
:1035a000202020202020202020202020202020201b
:1035b000202020202020202020202020202020200b
:1035c00020202020202020202020202020202020fb
:1035d00020202020202020202020207c0d0a7c205c
:1035e000417574686f723a2020457374726164612a
:1035f0002028537570706c656d656e74656420620b
:103600007920454545203135382041592032342d27
:103610003235203153292020202020202020202036
:103620002020207c0d0a7c20446174653a202020f3
:103630002032303235202020202020202020202041
:10364000202020202020202020202020202020207a
:10365000202020202020202020202020202020206a
:1036600020202020202020202020207c0d0a2b2d0f
:103670002d2d2d2d2d2d2d2d2d2d2d2d2d2d2d2d7a
:103680002d2d2d2d2d2d2d2d2d2d2d2d2d2d2d2d6a
:103690002d2d2d2d2d2d2d2d2d2d2d2d2d2d2d2d5a
:1036a0002d2d2d2d2d2d2d2d2d2d2d2d2d2d2d2d4a
:1036b0002d2d2d2b0d0a0d0a446174613a20000056
:1036c0001b5b313b314800001b5b32303b31480013
:1036d0002c00c046244750474c4c00002a00c046ee
:1036e0004c617469747564653a20252e36660a4cff
:1036f0006f6e6769747564653a20252e36660a54c4
:10370000696d653a20252e32733a252e32733a259b
:103710002e32730a5374617475733a2025630a005c
:020000040000fa
:10372000f0b5002485b00194a14207da04000d0031
:1037300000216042a941012464420194002b07da70
:10374000019c1d00e4430194140000236242ab413c
:1037500014001e0000900f00002b00d092e08a425f
:103760004ad9100001f0caf848b12023009a1b1a68
:10377000da40009b87408340844017430093220c2b
:10378000b7fbf2f0150003004543a1b24b437f1b8a
:10379000009d3f042d0c2f438446bb420ad90125ce
:1037a0003f196d42ac44bc4204d8bb4202d9023836
:1037b00084463f19ff1ab7fbf2f06b464243414380
:1037c000bf1a1d883f043d430200a94206d965196e
:1037d000013aac4202d8a94200d9821e63461b04ba
:1037e00013431800019b310023b103003400002172
:1037f0005842a14105b0f0bd02b9ffde100001f052
:103800007df810b93f1b0126b9e720213a00009b43
:10381000091aca40cb400099844081400091210c94
:103820008740b2fbf1f00e00050046433b43a7b2d0
:103830007d43921b12041e0c3243ac460600954297
:1038400007d91219013e944203d8954201d9861e28
:1038500012196046121ab2fbf1f041434743521a63
:1038600012049bb2134302009f4207d91b19013a6d
:103870009c4203d89f4201d9821e1b193604df1bcc
:1038800016437ce78b4272d8180001f037f838b93c
:10389000be426fd30300009aa24243410026a0e734
:1038a000202322001b1ada40864016433a00009972
:1038b0008440da408740d9400294340c3943b2fb4b
:1038c000f4f73b000391b1b24b439c4623007b438a
:1038d000d21a039b12041b0c1a433b00944507d9d0
:1038e0009219013b964203d8944501d9bb1e921907
:1038f0006546521bb2fbf4f77c43121b6c467943be
:10390000a489120422433c00914207d99219013c38
:10391000964203d8914201d9bc1e92196d462e8958
:103920001b04370023439cb26743029d511a2d0ca0
:103930001a0c56436c436a433d0cac46a4196444cc
:10394000a64202d980256d025219260cb218914266
:103950000bd30026914200d043e7009d2404bfb260
:10396000e4198540a54200d33be7013b96e70026da
:0a397000330036e70600012333e7b9
:020000040000fa
:10397a00f0b40125ed070f005f405ad48b4200d105
:10398a00824205d950404240504059404b4059402c
:10399a004e18760ddf187f0d3bd0741c640529d0b4
:1039aa00f41b352c26d80e0ddb022b43db0ac90289
:1039ba002943c9121700202c1ed2e741e240574082
:1039ca00e3415a40a340e3405a4000248018594139
:1039da000ad3b21c520521d0c207012f6241170037
:1039ea004008cb0718434908013636054208af415b
:1039fa0060417141f0bc7047203c06d01f00e7418e
:103a0a00e3405f400024012a6741c0186141ebd3bb
:103a1a00dfe7002eeed129400020ebe70136310521
:103a2a000020e7e7e742e5d10020c143090dc904b8
:103a3a00e0e76b400e00871a9e4104d26e40c01b1d
:103a4a00b141d21973414e18df18ac0ae642e9d2e5
:103a5a00760d7f0d31d0f41b362ccbd8b4460e0d23
:103a6a00db022b43db0ac9022943c90a012c32d8db
:103a7a0004d1d4075208df073a435b08ef0a6442cd
:103a8a00904199411ed0002239424dd1241940411a
:103a9a0049410124394204d10134001849413942cb
:103aaa00fad06246a24204d9361b013e360589196c
:103aba00a0e7f10ac90700209ce736429ad1002004
:103aca00002197e70200224394d0b842ded20100d7
:103ada0020002024e3d1202c13dd203ce2411700f2
:103aea00a240e2405740e3415a40a340e3405a40d3
:103afa00012fbf410137174300227c42984191416f
:103b0a000ce01700e741e2405740e3415a40a34026
:103b1a00e3405a407c429041994100220f0303d26c
:103b2a00013e241940414941013e36054708ac414e
:083b3a0050417141f0bc7047dd
:020000040000fa
:103b420006d128b9f54203d800d30ab96d0d09d1bf
:103b52000020c143090dc904f0bdf9d11242f7d1c9
:103b6200640df5d00020c14349054908a6e00020b4
:103b72006146f0bdf0b50127ff070e005e403e40f2
:103b8200b446be0a4c18dd18f442d9d2f542e4d24a
:103b9200640decd06d0dead06419c9023943460dab
:103ba200c0023143db023b43db0a10b48e4685b2ce
:103bb20097b26f43140c6c433e0ca419260c2404d8
:103bc200bfb227439cb26c43a419190c6943250c5c
:103bd200a4b249190d04090c6419000c95b24543ad
:103be2003e0c76193743bfb2360c150c4543ad195e
:103bf200a6b2240cad192e0437432e0c36199db2f1
:103c02004543ad19acb22e0c89191d0c45436d18f4
:103c12002e04290c3443704680b295b245433e0cc3
:103c220076193743bfb2360c150c4543ad19a6b20f
:103c3200ad19240c2e0437432e0c36199db2454380
:103c4200ad19acb22e0c89191d0c45436d182e040a
:103c52003443290c75462d0c90b268433e0c8019f2
:103c62000604bfb23e43070ca0b23f18120c6a43cf
:103c7200d019020c80b2240ca4189ab26a43121909
:103c820014042043120c89181b0c6b43c91810bc76
:103c920001273d05294203d1b61940414941013c62
:103ca200ff077d0d013d641b0bdb6d00ac4209daa1
:103cb200240500254208be41684161416646314300
:063cc200f0bd54e74ee7df
:020000040000fa
:103cc800f0b5c36bc26c85b004000e0093422dd2d0
:103cd8005a1cc2631d782b0002222b3b93430022ff
:103ce8000192a3b92d3d6b426b41e26c0193e36bea
:103cf80093421fd25a1ce2631d782b00303b092bdc
:103d080005d926b1e36c13b1e36b013be3630023f0
:103d180000932b00303b092b11d9e36c13b1e36bf3
:103d2800013be363802700263f062de000f082fb7d
:103d38000500d0e7200000f07dfb0500dde70a2341
:103d4800009a5343e26c5d19e36b303d0095934252
:103d58001ed25a1ce2631d782b00303b092b03d876
:103d68002b4b009a9a42eadd009ef7172b00303b56
:103d7800092b31d9e36c002b45d1019b23b13300ca
:103d88003c0000275e42a7413000390005b0f0bd75
:103d9800200000f04ffb0500dee70a220023300078
:103da800390000f0e7fceb1702950393029a039b96
:103db80030267642f71780185941e36be26c3618c3
:103dc8004f41934203d25a1ce2631d78cee720008c
:103dd80000f030fb0500c9e70e4b9f4203dcdcd145
:103de8000d4b9e42d9d9303d092dc3d8e36be26c07
:103df800934203d25a1ce2631d78f4e7200000f0d6
:103e080019fb0500efe7e36b013be363b5e7c04649
:0c3e1800cbcccc0c14ae4701ad47e17ad6
:020000040000fa
:103e2400f0b40125ed070c005c402c40a446ae0a1a
:103e34004c18df18f4423dd2f74244d2640d4ad004
:103e44007f0d3bd0e41bc9022943cf0adb022b437d
:103e5400db0a0600b61a9f4104d2013cb6197f4121
:103e6400b6185f416812800d241836dd00188442ac
:103e740024d8e80c0021b6197f41b61a9f4103d318
:103e840040414941f7d304e0b6185f410018494165
:103e9400f1d32405b6197f41b61a9f4105d33743a0
:103ea400c20717430022012f50416141624611436a
:103eb400f0bc70470ad148b9f74207d20020c14389
:103ec400490d0905f2e70ab9f74206d00020c143bb
:103ed400090dc904ece77f0df8d000206146e7e73f
:020000040000fa
:103ee40040f2fd724b005b0df0b55c1e944242d86b
:103ef400284a9e182ad4332e27dc274a9b182ed40e
:103f0400120cc0f20f02da404ff6ff730700c0f242
:103f14000f039743f3403c000f00024019409f43b6
:103f24000a433d007ab1002f0dda20235b42f118d9
:103f340029d480204003c840020080214903f14075
:103f44000b00a4185d4120002900f0bd00200029c9
:103f540001db0021f9e70021cbf6f071f5e720221f
:103f64004ff6ff73921bc0f20f039340012252429b
:103f7400f2401a43c8e7002be7d10022c90fcb0750
:103f840010001900e1e720218020891b40038840ac
:0c3f94000200d2e701fcffffe1fbffff91
:020000040000fa
:103fa00010b588293ad014dc81294ad003dc802955
:103fb00047d0002010bd822910d08429f9d119687a
:103fc0002ab30a1d1a6000228b5e0360db17436070
:103fd00010e0a0292ed00fdc9029ead1196807241f
:103fe0006ab30919a1430a0008321a600b684c68c9
:103ff000036044600120dde7c02901d0f029d8d159
:104000001a68111d1960136803600023dfe70c1d97
:104010001c600b689bb203604260ebe7196822b139
:104020000a1d1a600023cb56cfe70c1d1c600b68dd
:10403000dbb2f0e71a68111d19601368c5e7073194
:10404000d0e719681ab10a1d1a600b68bde70c1d8c
:064050001c600b68dfe7b5
:020000040000fa
:024056007047b1
:020000040000fa
:10405800e80000200400000001000000000000004b
:10406800a80000201c00000000000000e400002060
:104078000200000000000000c40000200c00000046
:104088000000000050000020580000000000000060
:10409800d000002008000000000000000000002000
:1040a8005000000000000000d80000200c000000b4
:1040b80000000000ec0000200400000001000000e7
:1040c8000000000000000000000000006666666650
:020000040000fa
:1040d80040f20003c0f2000323b140f20003c0f233
:1040e8000003984740f20003c0f2000323b140f2f6
:1040f8000003c0f20003984700f082fc40f200037e
:10410800c0f200037f2293434ef60052cef2000223
:10411800936044f2e133c0f20003984740f2000391
:10412800c0f2000323b140f20003c0f20003984735
:1041380040f20003c0f2000323b140f20003c0f2d2
:0e4148000003984700210020fef72ef9fee745
:020000040000fa
:10415600f0b51d00012389b014000e9a06001a401e
:10416600039102920ab9a5420ad8220003993000a7
:1041760000f0b8fca54203d82500280009b0f0bd20
:104186002f1b01973a00102f00d91022202104a8d6
:1041960000f051fd019b0f2b0ed80f2204a93a40c7
:1041a600300000f09ffc029b002be6d12200039911
:1041b600300000f097fce0e7102204a9300000f080
:0a41c60091fc019b103b0193e4e71c
:020000040000fa
:1041d00070b50d008ab004002022002102a800f072
:1041e0002dfd2b781800c3b16a78c2b11f200121c0
:1041f0002b782bb30e005a0903409e4033009200e7
:1042000002aeb65801353343019602aeb350efe724
:10421000013002789a42fbd0001b0ab070bd20002a
:10422000f7e701300378002bf6d00e005a092b4037
:104230009e403300920002aeb2581a42f1d1ebe731
:0842400020001f250121ede71c
:020000040000fa
:1042480070b50d0009788ab0040009b16b782bb9f4
:10425800200000f061f8001b0ab070bd0021202288
:1042680002a800f0e7fc1f2001212b78e3b10e0023
:104278005a0903409e403300920002aeb6580135f9
:104288003343019602aeb350efe701300378002bb9
:10429800e1d00e005a092b409e403300920002ae36
:1042a800b2581a42f1d0d6e720001f250121ede7c8
:020000040000fa
:1042b80010b584291fd007dc812915d0822922d086
:1042c800802911d0002010bd90291cd008dc882935
:1042d800f8d119680c1d1c600b6803601a7010e097
:1042e800a02901d0c029edd119680c1d1c600b68ec
:1042f80003601a6005e019680c1d1c600b680360f8
:104308001a800120dfe719680c1d1c600b68036028
:084318001a60d2175a60f4e7a5
:020000040000fa
:10432000c9b270b50322040051b900f043fc24184f
:10433000200070bd2378002bfad08b42f8d00134d6
:104340001442f7d10b48484322680b4e15009319cd
:1043500045409343aa19aa431343084a134206d07f
:104360002378002be4d08b42e2d00134f8e7043408
:10437000eae7c04601010101fffefefe8080808069
:020000040000fa
:104380004b1801225205da4217d25b0d0722d201e7
:104390009b1a0fd9ff2b12d2db05ca0fd20713438a
:1043a0000903020d1143490ac200524100d90131eb
:1043b000c8187047c80fc007704705d120b9c80f8b
:1043c0000002ff30c00570470123db070a00c90067
:1043d000400f084398431a4010435b0a1843704744
:020000040000fa
:1043e00000230e4a10b513600d4a0e4c13600e4a9e
:1043f00013600e4a13600e4a13600e4a5362136133
:1044000001339360fff70bf8fff709f80a4b9c4262
:1044100000d310bd08cc9847f8e7c046d80000206c
:104420000c000020680100000800002000000020af
:0c44300004000020100000206c010000bf
:020000040000fa
:10443c00036d70b504003bb1426d934204dc002364
:10444c000120e364404270bd200000f06ffb0028a7
:10445c00f5db236de16b226c9bb1656d5b1b551a13
:10446c00ab420edc013bcb18e36422b1636d521af4
:10447c0001329a18626501390b788342e3d00870d7
:06448c00e1e71300f0e778
:020000040000fa
:1044940070b512b34b1c0978561e441c017071b1df
:1044a40082181900801906e00d78061b631c25701c
:1044b400013135b11c00a242f6d1200070bd2300a9
:1044c40004009a190021002ef7d0197001339a4282
:1044d400fbd1002cf1d11400efe70400ede7c04656
:020000040000fa
:1044e40070b540f2ff740b0d2340a34212d08bb180
:1044f400d31840f2fe7293420ddc002b14dd4ff60c
:10450400ff72c8f20f0211401b05194304000d008d
:104514002000290070bd0023c90fc907c7f6f07336
:104524000b4300241d00f3e7c90f0024cd07efe778
:020000040000fa
:10453400f0b50f00150087b0039007220e4904a8b8
:104544001c0000f097fbbb687e6802933f6805b9c6
:1045540004ad1cb9280000f02bfb0400002e02db84
:10456400b44200d934000097029b2200290003982a
:0c457400fff7effd07b0f0bd844d000024
:020000040000fa
:1045800070b59ab004000d0016000021602202a848
:1045900000f054fb012300215b4202a80494119413
:1045a000129300f013fb0122310002a8fcf7fcf982
:1045b00055b1119b0093129b0193019a009b9b1a8a
:0c45c000179a9b18e4182c601ab070bd0c
:020000040000fa
:1045cc0030b51500012289b0524201920432ff32fb
:1045dc00029200b9684603900491002401b14c1e6c
:1045ec000594002906da4f220120074b40421a603d
:1045fc0009b030bd00220790027006901a00290005
:0c460c0001a800f0e9faf3e7dc00002050
:020000040000fa
:104618000200002310b54832d3560400591e0b433c
:10462800137043698269934203d90022c36a110057
:10463800984700236068a362a3616361830705d577
:104648001023184360600120404210bda368e2684f
:0c46580000079b182364e363c017f6e71b
:020000040000fa
:1046640070b504000e000f4d08b92c6844b1200049
:104674003100fff7abfd241823781bb91c002b6015
:10468400200070bd31002000fff7dcfd2018037806
:10469400286023b1431c2b6000230370f0e72b60d8
:0846a400eee7c046d40000203f
:020000040000fa
:1046ac00002b15d1002a13d1002906db01dc0028d0
:1046bc0006d00020c043410802e0802109060020fa
:1046cc0007b4024801a14018029003bdc9060000be
:1046dc0003b4684601b5029800f076f9019b9e463a
:0846ec0002b00cbc7047c0468f
:020000040000fa
:1046f40030b401256d054c00e54215d85c00e54257
:1047040012d80c001c436400044314430fd005d298
:1047140082428b418041013030bc704790429941c4
:104724008041013030bc7047002030bc704701200c
:0447340030bc7047de
:020000040000fa
:1047380030b401256d054c00e54215d85c00e54212
:1047480012d80c001c436400044314430fd005d254
:10475800904299418041013030bc704782428b4180
:104768008041013030bc7047002030bc70470120c8
:0447780030bc70479a
:020000040000fa
:10477c00f7b597b201933b00140c86b2050c73434a
:10478c006f4366436543f6191c0ca4199c46a7425b
:10479c0002d980235b02ed186346260c751924049c
:1047ac009eb2019ba4194343200051435b19591835
:0447bc0003b0f0bd99
:020000040000fa
:1047c00010b5054c227832b9044b13b1044800e00f
:1047d00000bf0123237010bda800002000000000ce
:1047e00000000000034b10b51bb10349034800e073
:1047f00000bf10bd00000000ac0000200000000061
:020000040000fa
:10480000002b11d1002a0fd1002900d1002802d09d
:104810000021c943081c07b4024802a140180290b5
:1048200003bdc0467d05000003b4684601b502988b
:10483000fef768fc019b9e4602b00cbc7047c04668
:020000040000fa
:10484000030010b51a78202a0dd011000939042967
:1048500009d900212b2a02d02d2a01d1013101339f
:1048600000200a2404e00133ece760430133801a9e
:0e4870001a78303a092af8d901b9404210bd31
:020000040000fa
:10487e0030b401256d054c00e54215d85c00e542cb
:10488e0012d80c001c436400044314430cd005d210
:10489e0082428b418041404230bc704790429941e8
:0e48ae008041404230bc7047002030bc704753
:020000040000fa
:1048bc0030b401256d054c00e54215d85c00e5428d
:1048cc0012d80c001c436400044314430cd005d2d2
:1048dc00904299418041404230bc704782428b41aa
:0e48ec008041404230bc7047002030bc704715
:020000040000fa
:1048fc001c2101231b04984201d3000c10391b0a04
:10490c00984201d3000a08391b09984201d30009c7
:10491c00043902a2105c40187047c046040302021e
:0c492c000101010100000000000000007b
:020000040000fa
:1049380070b5040000200a4b4200d55c15b9d218a6
:10494800507870bd216801300e78c0b2ae4204d1f3
:10495800034b0131d218507821600a28ebd9f0e7cf
:04496800124c0000ed
:020000040000fa
:10496c0010b5fff772fb084b0021186800f010fa25
:10497c00064b0021186800f00bfa054b0021186853
:10498c0000f006fa10bdc046e0000020e000002058
:04499c00e000002017
:020000040000fa
:1049a000f4464a1805d200f060f801d5c017400857
:1049b000604701235b05d34206d200f056f801d5cb
:1049c0000120c0074042604701d10042f5d0d01716
:0449d00040087047e4
:020000040000fa
:1049d400f7b516001f0000900191fef79ffe04003a
:1049e4000d0002000b0030003900fff7c5fe009aed
:1049f400019b121a8b41089920000a604b60290020
:044a040003b0f0bd4e
:020000040000fa
:104a080010b50948016811b9436803b910bd04001d
:104a18008368064a9bb20c349b009b58426820006e
:104a2800984780002018ede758400000284c000007
:020000040000fa
:104a380070b4012676054c005d00e6420cd8ee42c3
:104a48000ad825430543154303d0994204d190421f
:0e4a580002d1012070bc7047002070bc704776
:020000040000fa
:104a66004a0010d2520d03231b02ff33d21a0ad476
:104a760052421f3209d4400dc90208430123db0705
:0e4a86001843d040704700207047d01770478b
:020000040000fa
:104a94000a00000064000000e80300001027000082
:104aa400a086010040420f008096980000e1f505c1
:0c4ab400183535006bffcefbcefbc04672
:020000040000fa
:104ac000002380290fdb812901dd83290bd10721f8
:104ad000136807338b431900083111601a685b684b
:0a4ae00002604360012318007047d4
:020000040000fa
:104aea0070b505690400954200d915005db12a0028
:104afa00606900f0bcf8226963695b19551b0022e2
:084b0a00636125611a7070bda2
:020000040000fa
:104b120070b513006ab10024013a035d0e1933b176
:104b22000d5d25b1a24202d00134ab42f5d03078fe
:064b32001b1a180070bd03
:020000040000fa
:104b380037b50400fff76cfd10b1012040423ebdbf
:104b48006b46dd1d0122636c29002000984701286f
:064b5800f3d12878f3e719
:020000040000fa
:104b5e00002310b5934206d103201840421e904107
:0e4b6e009b08c01810bdc45ccc540133f2e7a4
:020000040000fa
:104b7c0044f69933c0f20003004206d5404200b51a
:0c4b8c00984708bc0122d20711431847cb
:020000040000fa
:104b980040f21d42010007d002d4013a0018fcd5aa
:0a4ba8001205c30a40059918704772
:020000040000fa
:104bb400037833b1030001331a78002afbd1181aa1
:084bc40070470020fce7c04629
:020000040000fa
:104bcc00036cc26b10b59c1a0165446511b18c4223
:084bdc0000dd5318c36410bd95
:020000040000fa
:104be40013b50400019201aafdf7c6fd6368db0654
:084bf40001d50120404216bd6d
:020000040000fa
:104bfc000eb403b503aa02ca019200f02df802b05c
:064c0c0008bc03b01847cc
:020000040000fa
:104c120068076c094c836a9074a07ac00080688827
:064c220000846c82008199
:020000040000fa
:104c2800b34c00005f4b00008d4d00008d4d00001f
:044c38008d4d00009e
:020000040000fa
:104c3c0032b10300c9b28218197001339342fbd10f
:044c4c007047c046a7
:020000040000fa
:104c500010b5fcf74bfffff76dfcfff731fffff7d7
:044c60002bfb10bd5d
:020000040000fa
:104c640010b513000a000249fff7aefc10bdc046a0
:044c7400ffffff7fc0
:020000040000fa
:104c780010b52ab10023cc5cc45401339342fad155
:044c880010bdc04655
:020000040000fa
:104c8c0003000a7818001a7001310133002af8d198
:044c9c007047c04657
:020000040000fa
:104ca000f0b40125ed076b4043f68114c0f2000417
:024cb00020479b
:020000040000fa
:104cb2008a18914201d10020704700230b70013104
:024cc200f7e712
:020000040000fa
:104cc400494e4600696e66004e414e006e616e00ac
:020000040000fa
:104cd40030b54900db0fdb074908194330bdc04636
:020000040000fa
:104ce40010b5fef746ff029a039bfef744fe10bd83
:020000040000fa
:0e4cf40010b50022fff742fcfff740fb10bd99
:020000040000fa
:0e4d02000300413b192b01d8202318437047b2
:020000040000fa
:0d4d1000696e66696e697479006e616e00ef
:020000040000fa
:0c4d1e0010b50400fff7b7fb200010bd2b
:020000040000fa
:0c4d2a0010b50400fff7adff200010bd25
:020000040000fa
:0a4d360010b5002100f001f810bdd7
:020000040000fa
:0a4d400010b50122fff71cfc10bda6
:020000040000fa
:0a4d4a0010b50222fff717fc10bda0
:020000040000fa
:084d5400286e696c290025009e
:020000040000fa
:084d5c0010b5fff7d0ff10bdf8
:020000040000fa
:084d640010b5fff701fe10bdc0
:020000040000fa
:084d6c0010b5fff7b9fb10bd03
:020000040000fa
:084d740049004b0819007047cb
:020000040000fa
:084d7c0010b5fef72df810bd83
:020000040000fa
:074d8400286e756c6c29001c
:020000040000fa
:044d8c00002070474c
:020000040000fa
:044d90000020704748
:020000040000fa
:044d94000020704744
:020000040000fa
:044d98000020704740
:020000040000fa
:044d9c00002070473c
:020000040000fa
:044da0007047c04652
:00000001FF
